{
  "contractName": "DaoGov",
  "abi": [
    {
      "inputs": [],
      "stateMutability": "nonpayable",
      "type": "constructor"
    },
    {
      "anonymous": false,
      "inputs": [
        {
          "indexed": false,
          "internalType": "uint256",
          "name": "_block",
          "type": "uint256"
        }
      ],
      "name": "Digichecked",
      "type": "event"
    },
    {
      "anonymous": false,
      "inputs": [
        {
          "indexed": false,
          "internalType": "uint256",
          "name": "_proposal",
          "type": "uint256"
        },
        {
          "indexed": false,
          "internalType": "bool",
          "name": "dtlcontract",
          "type": "bool"
        }
      ],
      "name": "proposalResult",
      "type": "event"
    },
    {
      "inputs": [],
      "name": "minimumVotingPeriod",
      "outputs": [
        {
          "internalType": "uint256",
          "name": "",
          "type": "uint256"
        }
      ],
      "stateMutability": "view",
      "type": "function",
      "constant": true
    },
    {
      "inputs": [
        {
          "internalType": "uint256",
          "name": "",
          "type": "uint256"
        }
      ],
      "name": "proposalContracts",
      "outputs": [
        {
          "internalType": "address",
          "name": "",
          "type": "address"
        }
      ],
      "stateMutability": "view",
      "type": "function",
      "constant": true
    },
    {
      "inputs": [
        {
          "internalType": "uint256",
          "name": "",
          "type": "uint256"
        }
      ],
      "name": "proposals",
      "outputs": [
        {
          "internalType": "address",
          "name": "proposer",
          "type": "address"
        },
        {
          "internalType": "string",
          "name": "basic_description",
          "type": "string"
        },
        {
          "internalType": "uint256",
          "name": "yesVotes",
          "type": "uint256"
        },
        {
          "internalType": "uint256",
          "name": "noVotes",
          "type": "uint256"
        },
        {
          "internalType": "uint256",
          "name": "startVoteBlock",
          "type": "uint256"
        },
        {
          "internalType": "uint256",
          "name": "endVoteBlock",
          "type": "uint256"
        },
        {
          "internalType": "uint256",
          "name": "proposalCost",
          "type": "uint256"
        },
        {
          "internalType": "bool",
          "name": "voteEnded",
          "type": "bool"
        },
        {
          "internalType": "bool",
          "name": "votePass",
          "type": "bool"
        },
        {
          "internalType": "bool",
          "name": "enacted",
          "type": "bool"
        },
        {
          "internalType": "uint256",
          "name": "initializationPoints",
          "type": "uint256"
        },
        {
          "internalType": "bool",
          "name": "initialized",
          "type": "bool"
        }
      ],
      "stateMutability": "view",
      "type": "function",
      "constant": true
    },
    {
      "inputs": [
        {
          "internalType": "address",
          "name": "",
          "type": "address"
        }
      ],
      "name": "proposers",
      "outputs": [
        {
          "internalType": "address",
          "name": "proposer",
          "type": "address"
        },
        {
          "internalType": "string",
          "name": "basic_description",
          "type": "string"
        },
        {
          "internalType": "uint256",
          "name": "yesVotes",
          "type": "uint256"
        },
        {
          "internalType": "uint256",
          "name": "noVotes",
          "type": "uint256"
        },
        {
          "internalType": "uint256",
          "name": "startVoteBlock",
          "type": "uint256"
        },
        {
          "internalType": "uint256",
          "name": "endVoteBlock",
          "type": "uint256"
        },
        {
          "internalType": "uint256",
          "name": "proposalCost",
          "type": "uint256"
        },
        {
          "internalType": "bool",
          "name": "voteEnded",
          "type": "bool"
        },
        {
          "internalType": "bool",
          "name": "votePass",
          "type": "bool"
        },
        {
          "internalType": "bool",
          "name": "enacted",
          "type": "bool"
        },
        {
          "internalType": "uint256",
          "name": "initializationPoints",
          "type": "uint256"
        },
        {
          "internalType": "bool",
          "name": "initialized",
          "type": "bool"
        }
      ],
      "stateMutability": "view",
      "type": "function",
      "constant": true
    },
    {
      "inputs": [],
      "name": "stakePoolAddress",
      "outputs": [
        {
          "internalType": "address",
          "name": "",
          "type": "address"
        }
      ],
      "stateMutability": "view",
      "type": "function",
      "constant": true
    },
    {
      "inputs": [],
      "name": "getStandardBurn",
      "outputs": [
        {
          "internalType": "uint256",
          "name": "",
          "type": "uint256"
        }
      ],
      "stateMutability": "view",
      "type": "function",
      "constant": true
    },
    {
      "inputs": [
        {
          "internalType": "address",
          "name": "pool",
          "type": "address"
        }
      ],
      "name": "setStakePool",
      "outputs": [],
      "stateMutability": "nonpayable",
      "type": "function"
    },
    {
      "inputs": [],
      "name": "getStakePool",
      "outputs": [
        {
          "internalType": "address",
          "name": "",
          "type": "address"
        }
      ],
      "stateMutability": "view",
      "type": "function",
      "constant": true
    },
    {
      "inputs": [],
      "name": "checkDigi",
      "outputs": [],
      "stateMutability": "nonpayable",
      "type": "function"
    },
    {
      "inputs": [],
      "name": "getDigiCheckBlock",
      "outputs": [
        {
          "internalType": "uint256",
          "name": "",
          "type": "uint256"
        }
      ],
      "stateMutability": "view",
      "type": "function",
      "constant": true
    },
    {
      "inputs": [
        {
          "internalType": "address",
          "name": "digitoken",
          "type": "address"
        }
      ],
      "name": "setDigitradeAddress",
      "outputs": [],
      "stateMutability": "nonpayable",
      "type": "function"
    },
    {
      "inputs": [],
      "name": "getDigitradeAddress",
      "outputs": [
        {
          "internalType": "address",
          "name": "",
          "type": "address"
        }
      ],
      "stateMutability": "view",
      "type": "function",
      "constant": true
    },
    {
      "inputs": [],
      "name": "set3DAOAddress",
      "outputs": [],
      "stateMutability": "nonpayable",
      "type": "function"
    },
    {
      "inputs": [],
      "name": "get3DAOAddress",
      "outputs": [
        {
          "internalType": "address",
          "name": "",
          "type": "address"
        }
      ],
      "stateMutability": "view",
      "type": "function",
      "constant": true
    },
    {
      "inputs": [
        {
          "internalType": "address",
          "name": "_rep",
          "type": "address"
        }
      ],
      "name": "setRepAddress",
      "outputs": [],
      "stateMutability": "nonpayable",
      "type": "function"
    },
    {
      "inputs": [],
      "name": "checkRegistration",
      "outputs": [
        {
          "internalType": "uint256",
          "name": "_unlockBlock",
          "type": "uint256"
        },
        {
          "internalType": "string",
          "name": "",
          "type": "string"
        }
      ],
      "stateMutability": "view",
      "type": "function",
      "constant": true
    },
    {
      "inputs": [
        {
          "internalType": "string",
          "name": "detailedDescription",
          "type": "string"
        },
        {
          "internalType": "uint256",
          "name": "_dgtCost",
          "type": "uint256"
        },
        {
          "internalType": "uint256",
          "name": "_votePeriod",
          "type": "uint256"
        }
      ],
      "name": "propose",
      "outputs": [],
      "stateMutability": "nonpayable",
      "type": "function"
    },
    {
      "inputs": [
        {
          "internalType": "uint256",
          "name": "_proposal",
          "type": "uint256"
        }
      ],
      "name": "initializeProposal",
      "outputs": [
        {
          "internalType": "string",
          "name": "message",
          "type": "string"
        },
        {
          "internalType": "uint256",
          "name": "points",
          "type": "uint256"
        }
      ],
      "stateMutability": "nonpayable",
      "type": "function"
    },
    {
      "inputs": [
        {
          "internalType": "uint256",
          "name": "_proposal",
          "type": "uint256"
        },
        {
          "internalType": "bool",
          "name": "yes",
          "type": "bool"
        },
        {
          "internalType": "bool",
          "name": "no",
          "type": "bool"
        }
      ],
      "name": "vote",
      "outputs": [
        {
          "internalType": "string",
          "name": "message",
          "type": "string"
        }
      ],
      "stateMutability": "nonpayable",
      "type": "function"
    },
    {
      "inputs": [
        {
          "internalType": "uint256",
          "name": "_proposal",
          "type": "uint256"
        }
      ],
      "name": "tallyProposal",
      "outputs": [
        {
          "internalType": "bool",
          "name": "_result",
          "type": "bool"
        }
      ],
      "stateMutability": "nonpayable",
      "type": "function"
    },
    {
      "inputs": [
        {
          "internalType": "uint256",
          "name": "_proposal",
          "type": "uint256"
        }
      ],
      "name": "veto",
      "outputs": [],
      "stateMutability": "nonpayable",
      "type": "function"
    },
    {
      "inputs": [
        {
          "internalType": "uint256",
          "name": "_weeks",
          "type": "uint256"
        }
      ],
      "name": "calculateReleaseBlock",
      "outputs": [
        {
          "internalType": "uint256",
          "name": "_releaseBlock",
          "type": "uint256"
        }
      ],
      "stateMutability": "view",
      "type": "function",
      "constant": true
    },
    {
      "inputs": [
        {
          "internalType": "uint256",
          "name": "_proposal",
          "type": "uint256"
        },
        {
          "internalType": "uint256",
          "name": "_weeks",
          "type": "uint256"
        },
        {
          "internalType": "address",
          "name": "_facilitator",
          "type": "address"
        }
      ],
      "name": "enactProposal",
      "outputs": [
        {
          "internalType": "address",
          "name": "",
          "type": "address"
        }
      ],
      "stateMutability": "nonpayable",
      "type": "function"
    }
  ],
  "bytecode": "0x60806040523480156200001157600080fd5b50600a6005819055630aba9500600c55600180546001600160a01b0319163317905560036009556109c490556200004b600b606462000054565b600b55620000e3565b6000808211620000aa5760405162461bcd60e51b815260206004820152601a60248201527f536166654d6174683a206469766973696f6e206279207a65726f000000000000604482015260640160405180910390fd5b6000620000b88385620000c0565b949350505050565b600082620000de57634e487b7160e01b600052601260045260246000fd5b500490565b613f4a80620000f36000396000f3fe60806040523480156200001157600080fd5b5060043610620001695760003560e01c80636a8068cd11620000d3578063aa7378091162000086578063aa7378091462000328578063b1c360ed146200033f578063c9880da51462000349578063df133bca1462000353578063e5ccacb71462000379578063fd1b2100146200038b57600080fd5b80636a8068cd14620002a25780636bdb593314620002ab5780637d5e7c3214620002d25780637daff29914620002e45780639577afa6146200030c5780639aa8a920146200031657600080fd5b80632aa77c4c116200012c5780632aa77c4c146200021f5780633a0e9288146200023657806343328c7c146200024d57806352639cd514620002615780635ab1f00f1462000274578063683d1aba146200028b57600080fd5b8063013cf08b146200016e57806317e7cf8b14620001a85780631817749714620001c15780631d28dec714620001d857806324b96c3b14620001ef575b600080fd5b620001856200017f36600462002756565b620003a5565b6040516200019f9c9b9a99989796959493929190620027c0565b60405180910390f35b620001bf620001b936600462002854565b620004be565b005b62000185620001d236600462002854565b62000562565b620001bf620001e936600462002756565b62000590565b620002066200020036600462002756565b620007e7565b6040516001600160a01b0390911681526020016200019f565b620001bf620002303660046200288a565b62000812565b620001bf6200024736600462002854565b62000d48565b60045462000206906001600160a01b031681565b6008545b6040519081526020016200019f565b620001bf6200028536600462002854565b62000ddd565b620002656200029c36600462002756565b62000e17565b600b5462000265565b620002c2620002bc36600462002756565b62000e3a565b6040516200019f92919062002958565b6004546001600160a01b031662000206565b620002fb620002f536600462002756565b620013d9565b60405190151581526020016200019f565b620001bf6200174f565b6002546001600160a01b031662000206565b62000206620003393660046200297c565b6200177b565b6200026560055481565b620001bf62001b99565b6200036a62000364366004620029ce565b62001c4c565b6040516200019f919062002a0f565b6000546001600160a01b031662000206565b62000395620021ca565b6040516200019f92919062002a24565b600e8181548110620003b657600080fd5b60009182526020909120600c9091020180546001820180546001600160a01b03909216935090620003e79062002a3f565b80601f0160208091040260200160405190810160405280929190818152602001828054620004159062002a3f565b8015620004665780601f106200043a5761010080835404028352916020019162000466565b820191906000526020600020905b8154815290600101906020018083116200044857829003601f168201915b50505060028401546003850154600486015460058701546006880154600889015460098a0154600a909a0154989995989497509295509093909260ff808416936101008104821693620100009091048216929091168c565b6001546001600160a01b03163314620004d657600080fd5b6000546001600160a01b031615620005405760405162461bcd60e51b815260206004820152602260248201527f546f6b656e20416464726573732068617320616c7265616479206265656e2073604482015261195d60f21b60648201526084015b60405180910390fd5b600080546001600160a01b0319166001600160a01b0392909216919091179055565b600d60205260009081526040902080546001820180546001600160a01b039092169291620003e79062002a3f565b6001546001600160a01b03163314620005a857600080fd5b6008544310620006065760405162461bcd60e51b815260206004820152602260248201527f44494749206e6f206c6f6e6765722068617320616e792070726976696c656467604482015261657360f01b606482015260840162000537565b6000600e82815481106200061e576200061e62002a76565b90600052602060002090600c02016002015490506000600e83815481106200064a576200064a62002a76565b90600052602060002090600c02016003015490506200068262000670600260036200248e565b6200067c8484620024f7565b62002561565b6200068e83836200248e565b10620006eb5760405162461bcd60e51b815260206004820152602560248201527f20363625206d616a6f72697479206f76657269646573204449474920617574686044820152646f7269747960d81b606482015260840162000537565b6000600e848154811062000703576200070362002a76565b90600052602060002090600c020160080160016101000a81548160ff0219169083151502179055506000600e848154811062000743576200074362002a76565b90600052602060002090600c020160080160026101000a81548160ff0219169083151502179055506001600e848154811062000783576200078362002a76565b60009182526020808320600c92909202909101600801805460ff19169315159390931790925560408051868152928301919091527f663e9a8ecb5524ad0e985cc0de18a478ae90a50e9f31186a862b5b83f606490e910160405180910390a1505050565b60068181548110620007f857600080fd5b6000918252602090912001546001600160a01b0316905081565b600360009054906101000a90046001600160a01b03166001600160a01b0316637780911c6040518163ffffffff1660e01b8152600401602060405180830381865afa15801562000866573d6000803e3d6000fd5b505050506040513d601f19601f820116820180604052508101906200088c919062002a8c565b6000546040516370a0823160e01b81523360048201526001600160a01b03909116906370a0823190602401602060405180830381865afa158015620008d5573d6000803e3d6000fd5b505050506040513d601f19601f82011682018060405250810190620008fb919062002a8c565b116200091b5760405162461bcd60e51b8152600401620005379062002aa6565b600360009054906101000a90046001600160a01b03166001600160a01b031662d7a3826040518163ffffffff1660e01b8152600401602060405180830381865afa1580156200096e573d6000803e3d6000fd5b505050506040513d601f19601f8201168201806040525081019062000994919062002add565b6001600160a01b0316336001600160a01b031614620009c75760405162461bcd60e51b8152600401620005379062002afd565b600360009054906101000a90046001600160a01b03166001600160a01b03166337e3ce8e6040518163ffffffff1660e01b8152600401602060405180830381865afa15801562000a1b573d6000803e3d6000fd5b505050506040513d601f19601f8201168201806040525081019062000a41919062002a8c565b431162000a625760405162461bcd60e51b8152600401620005379062002b28565b60008054600480546040516370a0823160e01b81526001600160a01b0391821692810192909252909116906370a0823190602401602060405180830381865afa15801562000ab4573d6000803e3d6000fd5b505050506040513d601f19601f8201168201806040525081019062000ada919062002a8c565b9050600062000af762000aef8360646200248e565b600262002561565b90508062000b0785600a62002b81565b62000b1490601262002b81565b1062000b785760405162461bcd60e51b815260206004820152602c60248201527f50726f706f73616c20636f73742065786365656473203225206f66206176616c60448201526b6961626c6520746f6b656e7360a01b606482015260840162000537565b600554831162000b8757600080fd5b6060600e604051806101c00160405280336001600160a01b03168152602001888152602001600081526020016000815260200143815260200162000bcc8743620024f7565b81526020808201899052604082018590526000606083018190526080830181905260a0830181905260c0830181905260e08301819052610100909201859052835460018082018655948352918190208351600c9093020180546001600160a01b0319166001600160a01b039093169290921782558281015180519394929362000c5d938501929190910190620025e8565b5060408201516002820155606082015160038201556080820151600482015560a0820151600582015560c0820151600682015560e0820151805162000cad91600784019160209091019062002677565b506101008281015160088301805461012086015161014087015161ffff1990921693151561ff001916939093179215159093029190911762ff0000191662010000921515929092029190911790556101608201516009820155610180820151600a8201805460ff19169115159190911790556101a0820151805162000d3d91600b84019160209091019062002677565b505050505050505050565b6001546001600160a01b0316331462000d6057600080fd5b6004546001600160a01b03161562000dbb5760405162461bcd60e51b815260206004820152601f60248201527f5374616b6520706f6f6c2068617320616c7265616479206265656e2073657400604482015260640162000537565b600480546001600160a01b0319166001600160a01b0392909216919091179055565b6001546001600160a01b0316331462000df557600080fd5b600380546001600160a01b0319166001600160a01b0392909216919091179055565b600062000e28826201117062002b81565b62000e34904362002ba3565b92915050565b60606000600360009054906101000a90046001600160a01b03166001600160a01b0316637780911c6040518163ffffffff1660e01b8152600401602060405180830381865afa15801562000e92573d6000803e3d6000fd5b505050506040513d601f19601f8201168201806040525081019062000eb8919062002a8c565b6000546040516370a0823160e01b81523360048201526001600160a01b03909116906370a0823190602401602060405180830381865afa15801562000f01573d6000803e3d6000fd5b505050506040513d601f19601f8201168201806040525081019062000f27919062002a8c565b1162000f475760405162461bcd60e51b8152600401620005379062002aa6565b600360009054906101000a90046001600160a01b03166001600160a01b031662d7a3826040518163ffffffff1660e01b8152600401602060405180830381865afa15801562000f9a573d6000803e3d6000fd5b505050506040513d601f19601f8201168201806040525081019062000fc0919062002add565b6001600160a01b0316336001600160a01b03161462000ff35760405162461bcd60e51b8152600401620005379062002afd565b600360009054906101000a90046001600160a01b03166001600160a01b03166337e3ce8e6040518163ffffffff1660e01b8152600401602060405180830381865afa15801562001047573d6000803e3d6000fd5b505050506040513d601f19601f820116820180604052508101906200106d919062002a8c565b43116200108e5760405162461bcd60e51b8152600401620005379062002b28565b620f4240600e8481548110620010a857620010a862002a76565b90600052602060002090600c02016009015410620011095760405162461bcd60e51b815260206004820152601c60248201527f50726f706f73616c20416c726561647920696e697469616c697a656400000000604482015260640162000537565b6000600e848154811062001121576200112162002a76565b600091825260208220600c91909102016009015481546040516370a0823160e01b81523360048201529193506001600160a01b0316906370a0823190602401602060405180830381865afa1580156200117e573d6000803e3d6000fd5b505050506040513d601f19601f82011682018060405250810190620011a4919062002a8c565b90506000620011b48383620024f7565b905080600e8781548110620011cd57620011cd62002a76565b90600052602060002090600c020160090181905550600c548111156200138b5760005b600e878154811062001206576200120662002a76565b90600052602060002090600c0201600b0180549050811015620012de57336001600160a01b0316600e888154811062001243576200124362002a76565b90600052602060002090600c0201600b01828154811062001268576200126862002a76565b6000918252602090912001546001600160a01b03161415620012c95760405162461bcd60e51b81526020600482015260196024820152784f6e6c79206f6e6520766f746520706572206164647265737360381b604482015260640162000537565b80620012d58162002bbe565b915050620011f0565b506001600e8781548110620012f757620012f762002a76565b90600052602060002090600c0201600a0160006101000a81548160ff021916908315150217905550600060405180604001604052806016815260200175141c9bdc1bdcd85b081a5cc81a5b9a5d185b1a5e995960521b815250905080955085600e88815481106200136c576200136c62002a76565b90600052602060002090600c0201600901549550955050505050915091565b600e8681548110620013a157620013a162002a76565b90600052602060002090600c0201600901546040518060600160405280603f815260200162003ed6603f913997909650945050505050565b600081600e8181548110620013f257620013f262002a76565b90600052602060002090600c0201600501544311620014545760405162461bcd60e51b815260206004820152601b60248201527f566f74696e6720706572696f6420686173206e6f7420656e6465640000000000604482015260640162000537565b600e83815481106200146a576200146a62002a76565b90600052602060002090600c020160030154600e848154811062001492576200149262002a76565b90600052602060002090600c02016002015411156200157b576001600e8481548110620014c357620014c362002a76565b90600052602060002090600c020160080160006101000a81548160ff0219169083151502179055506001600e848154811062001503576200150362002a76565b90600052602060002090600c020160080160016101000a81548160ff0219169083151502179055507f663e9a8ecb5524ad0e985cc0de18a478ae90a50e9f31186a862b5b83f606490e836001604051620015699291909182521515602082015260400190565b60405180910390a16001915062001749565b600e838154811062001591576200159162002a76565b90600052602060002090600c020160030154600e8481548110620015b957620015b962002a76565b90600052602060002090600c020160020154101562001749576001600e8481548110620015ea57620015ea62002a76565b600091825260208220600c9190910201600801805460ff191692151592909217909155600e80548590811062001624576200162462002a76565b90600052602060002090600c020160080160016101000a81548160ff0219169083151502179055507f663e9a8ecb5524ad0e985cc0de18a478ae90a50e9f31186a862b5b83f606490e8360016040516200168a9291909182521515602082015260400190565b60405180910390a1600e8381548110620016a857620016a862002a76565b600091825260208220600c9091020180546001600160a01b031916815590620016d56001830182620026cf565b600282016000905560038201600090556004820160009055600582016000905560068201600090556007820160006200170f919062002711565b60088201805462ffffff19169055600060098301819055600a8301805460ff191690556200174290600b84019062002711565b5050600091505b50919050565b6001546001600160a01b031633146200176757600080fd5b600280546001600160a01b03191630179055565b600083600e818154811062001794576200179462002a76565b60009182526020909120600c90910201546001600160a01b03163314620018175760405162461bcd60e51b815260206004820152603060248201527f4f6e6c79207468652070726f706f73616c2063726561746f722063616e20636160448201526f3636103a3434b990333ab731ba34b7b760811b606482015260840162000537565b60008411620018825760405162461bcd60e51b815260206004820152603060248201527f2050726f70726f73616c206e65656473206174206c656173742031207765656b60448201526f081d1bc818994818dbdb5c1b195d195960821b606482015260840162000537565b6001600e86815481106200189a576200189a62002a76565b60009182526020909120600c90910201600801805461ff00191661010083151502179055620019045760405162461bcd60e51b815260206004820152601560248201527454686520766f746520646964206e6f74207061737360581b604482015260640162000537565b600080546040516370a0823160e01b81523360048201526001600160a01b03909116906370a0823190602401602060405180830381865afa1580156200194e573d6000803e3d6000fd5b505050506040513d601f19601f8201168201806040525081019062001974919062002a8c565b9050600e86815481106200198c576200198c62002a76565b90600052602060002090600c02016006015481101562001a155760405162461bcd60e51b815260206004820152603e60248201527f596f7572204447542062616c616e6365206973203c207468616e20746865206160448201527f6d6f756e74206e656564656420746f20656e6163742070726f706f73616c0000606482015260840162000537565b600062001a228662000e17565b60078054919250600062001a368362002bbe565b919050556007819055506000600754600e898154811062001a5b5762001a5b62002a76565b60009182526020909120600c9091020154600e80546001600160a01b03909216918b90811062001a8f5762001a8f62002a76565b6000918252602082206006600c909202010154600154600254925460045460405193948d948a946001600160a01b03908116949281169392811692169062001ad79062002731565b9889526001600160a01b0397881660208a0152604089019690965293861660608801526080870192909252841660a0860152831660c0850152821660e08401521661010082015261012001604051809103906000f08015801562001b3f573d6000803e3d6000fd5b50600680546001810182556000919091527ff652222313e28459528d920b65115c16c04f3efc82aaedc97be59f3f377c0d3f0180546001600160a01b0319166001600160a01b03831617905594505050505b509392505050565b6001546001600160a01b0316331462001bb157600080fd5b6008541562001c035760405162461bcd60e51b815260206004820152601d60248201527f446967692068617320616c7265616479206265656e20636865636b6564000000604482015260640162000537565b62001c1243621a5740620024f7565b60088190556040519081527fe251dffdf3f1cad797fdd22a4807a5ab0f7346f20e1cadadceb591290c6ceeed9060200160405180910390a1565b60035460408051631de0244760e21b815290516060926001600160a01b031691637780911c9160048083019260209291908290030181865afa15801562001c97573d6000803e3d6000fd5b505050506040513d601f19601f8201168201806040525081019062001cbd919062002a8c565b6000546040516370a0823160e01b81523360048201526001600160a01b03909116906370a0823190602401602060405180830381865afa15801562001d06573d6000803e3d6000fd5b505050506040513d601f19601f8201168201806040525081019062001d2c919062002a8c565b1162001d4c5760405162461bcd60e51b8152600401620005379062002aa6565b600360009054906101000a90046001600160a01b03166001600160a01b031662d7a3826040518163ffffffff1660e01b8152600401602060405180830381865afa15801562001d9f573d6000803e3d6000fd5b505050506040513d601f19601f8201168201806040525081019062001dc5919062002add565b6001600160a01b0316336001600160a01b03161462001df85760405162461bcd60e51b8152600401620005379062002afd565b600360009054906101000a90046001600160a01b03166001600160a01b03166337e3ce8e6040518163ffffffff1660e01b8152600401602060405180830381865afa15801562001e4c573d6000803e3d6000fd5b505050506040513d601f19601f8201168201806040525081019062001e72919062002a8c565b431162001e935760405162461bcd60e51b8152600401620005379062002b28565b83600e818154811062001eaa5762001eaa62002a76565b60009182526020909120600a600c90920201015460ff16151560011462001f145760405162461bcd60e51b815260206004820152601b60248201527f50726f706f73616c206973206e6f7420696e697469616c697a65640000000000604482015260640162000537565b60005b600e868154811062001f2d5762001f2d62002a76565b90600052602060002090600c0201600701805490508110156200200557336001600160a01b0316600e878154811062001f6a5762001f6a62002a76565b90600052602060002090600c0201600701828154811062001f8f5762001f8f62002a76565b6000918252602090912001546001600160a01b0316141562001ff05760405162461bcd60e51b81526020600482015260196024820152784f6e6c79206f6e6520766f746520706572206164647265737360381b604482015260640162000537565b8062001ffc8162002bbe565b91505062001f17565b5043600e86815481106200201d576200201d62002a76565b90600052602060002090600c02016005015411620020715760405162461bcd60e51b815260206004820152601060248201526f159bdd1a5b99c81a185cc8195b99195960821b604482015260640162000537565b60018415151415620020f55782156200208957600080fd5b6001600e8681548110620020a157620020a162002a76565b90600052602060002090600c02016002016000828254620020c3919062002ba3565b909155505060408051808201909152600e81526d596f7520766f746564207965732160901b6020820152915062001b91565b60018315151415620021785783156200210d57600080fd5b6001600e868154811062002125576200212562002a76565b90600052602060002090600c0201600301600082825462002147919062002ba3565b909155505060408051808201909152600d81526c596f7520766f746564206e6f2160981b6020820152915062001b91565b600e85815481106200218e576200218e62002a76565b600091825260208083206007600c9093020191909101805460018101825590835291200180546001600160a01b03191633179055509392505050565b60006060600360009054906101000a90046001600160a01b03166001600160a01b031662d7a3826040518163ffffffff1660e01b8152600401602060405180830381865afa15801562002221573d6000803e3d6000fd5b505050506040513d601f19601f8201168201806040525081019062002247919062002add565b6001600160a01b0316336001600160a01b031614620022a95760405162461bcd60e51b815260206004820152601b60248201527f596f752068617665206e6f742072656769737465726564207965740000000000604482015260640162000537565b60035460408051631bf1e74760e11b8152905143926001600160a01b0316916337e3ce8e9160048083019260209291908290030181865afa158015620022f3573d6000803e3d6000fd5b505050506040513d601f19601f8201168201806040525081019062002319919062002a8c565b101562002350575050604080518082019091526012815271165bdd48185c99481c9959da5cdd195c995960721b6020820152600191565b600360009054906101000a90046001600160a01b03166001600160a01b031663a5f18c016040518163ffffffff1660e01b8152600401602060405180830381865afa158015620023a4573d6000803e3d6000fd5b505050506040513d601f19601f82011682018060405250810190620023ca919062002a8c565b600360009054906101000a90046001600160a01b03166001600160a01b03166337e3ce8e6040518163ffffffff1660e01b8152600401602060405180830381865afa1580156200241e573d6000803e3d6000fd5b505050506040513d601f19601f8201168201806040525081019062002444919062002a8c565b62002450919062002bdc565b6040518060400160405280601e81526020017f6d6f726520626c6f636b7320756e74696c20726567697374726174696f6e0000815250915091509091565b6000808211620024e15760405162461bcd60e51b815260206004820152601a60248201527f536166654d6174683a206469766973696f6e206279207a65726f000000000000604482015260640162000537565b6000620024ef838562002bf6565b949350505050565b60008062002506838562002ba3565b9050838110156200255a5760405162461bcd60e51b815260206004820152601b60248201527f536166654d6174683a206164646974696f6e206f766572666c6f770000000000604482015260640162000537565b9392505050565b600082620025725750600062000e34565b600062002580838562002b81565b9050826200258f858362002bf6565b146200255a5760405162461bcd60e51b815260206004820152602160248201527f536166654d6174683a206d756c7469706c69636174696f6e206f766572666c6f6044820152607760f81b606482015260840162000537565b828054620025f69062002a3f565b90600052602060002090601f0160209004810192826200261a576000855562002665565b82601f106200263557805160ff191683800117855562002665565b8280016001018555821562002665579182015b828111156200266557825182559160200191906001019062002648565b50620026739291506200273f565b5090565b82805482825590600052602060002090810192821562002665579160200282015b828111156200266557825182546001600160a01b0319166001600160a01b0390911617825560209092019160019091019062002698565b508054620026dd9062002a3f565b6000825580601f10620026ee575050565b601f0160209004906000526020600020908101906200270e91906200273f565b50565b50805460008255906000526020600020908101906200270e91906200273f565b6112bc8062002c1a83390190565b5b8082111562002673576000815560010162002740565b6000602082840312156200276957600080fd5b5035919050565b6000815180845260005b8181101562002798576020818501810151868301820152016200277a565b81811115620027ab576000602083870101525b50601f01601f19169290920160200192915050565b6001600160a01b038d16815261018060208201819052600090620027e78382018f62002770565b604084019d909d5250506060810199909952608089019790975260a088019590955260c087019390935290151560e08601521515610100850152151561012084015261014083015215156101609091015292915050565b6001600160a01b03811681146200270e57600080fd5b6000602082840312156200286757600080fd5b81356200255a816200283e565b634e487b7160e01b600052604160045260246000fd5b600080600060608486031215620028a057600080fd5b833567ffffffffffffffff80821115620028b957600080fd5b818601915086601f830112620028ce57600080fd5b813581811115620028e357620028e362002874565b604051601f8201601f19908116603f011681019083821181831017156200290e576200290e62002874565b816040528281528960208487010111156200292857600080fd5b82602086016020830137600060208483010152809750505050505060208401359150604084013590509250925092565b6040815260006200296d604083018562002770565b90508260208301529392505050565b6000806000606084860312156200299257600080fd5b83359250602084013591506040840135620029ad816200283e565b809150509250925092565b80358015158114620029c957600080fd5b919050565b600080600060608486031215620029e457600080fd5b83359250620029f660208501620029b8565b915062002a0660408501620029b8565b90509250925092565b6020815260006200255a602083018462002770565b828152604060208201526000620024ef604083018462002770565b600181811c9082168062002a5457607f821691505b602082108114156200174957634e487b7160e01b600052602260045260246000fd5b634e487b7160e01b600052603260045260246000fd5b60006020828403121562002a9f57600080fd5b5051919050565b6020808252601b908201527f4e6f7420656e6f7567682064696769747261646520746f6b656e730000000000604082015260600190565b60006020828403121562002af057600080fd5b81516200255a816200283e565b6020808252601190820152700596f7520617265206e6f7420612072657607c1b604082015260600190565b60208082526023908201527f556e6c6f636b426c6f636b203c202063757272656e7420626c6f636b206e756d6040820152623132b960e91b606082015260800190565b634e487b7160e01b600052601160045260246000fd5b600081600019048311821515161562002b9e5762002b9e62002b6b565b500290565b6000821982111562002bb95762002bb962002b6b565b500190565b600060001982141562002bd55762002bd562002b6b565b5060010190565b60008282101562002bf15762002bf162002b6b565b500390565b60008262002c1457634e487b7160e01b600052601260045260246000fd5b50049056fe60806040523480156200001157600080fd5b50604051620012bc380380620012bc8339810160408190526200003491620001a2565b600a898155600480546001600160a01b03199081166001600160a01b038c8116919091179092556005805482168a841617905560068a9055600788905560008054821688841617905560038054821687841617905560028054909116918516919091179055620000b3908690620000ad908290620000f6565b62000162565b600d55600f80546001600160a01b0390921661010002610100600160a81b031990921691909117905550506008805461ffff19169055506200028b945050505050565b60008082116200014c5760405162461bcd60e51b815260206004820152601a60248201527f536166654d6174683a206469766973696f6e206279207a65726f000000000000604482015260640160405180910390fd5b60006200015a838562000242565b949350505050565b6000828211156200017257600080fd5b6200017e828462000265565b9392505050565b80516001600160a01b03811681146200019d57600080fd5b919050565b60008060008060008060008060006101208a8c031215620001c257600080fd5b89519850620001d460208b0162000185565b975060408a01519650620001eb60608b0162000185565b955060808a015194506200020260a08b0162000185565b93506200021260c08b0162000185565b92506200022260e08b0162000185565b9150620002336101008b0162000185565b90509295985092959850929598565b6000826200026057634e487b7160e01b600052601260045260246000fd5b500490565b6000828210156200028657634e487b7160e01b600052601160045260246000fd5b500390565b611021806200029b6000396000f3fe608060405234801561001057600080fd5b50600436106101215760003560e01c80637a117b87116100ad578063a54d6df811610071578063a54d6df814610234578063a8e4fb901461023d578063ada403a314610250578063e055984114610258578063e664f3b21461028157600080fd5b80637a117b87146101da578063863040e9146101ed57806398fabd3a1461020e5780639d15bb31146101985780639d76ea581461022157600080fd5b80634c77a10f116100f45780634c77a10f146101875780635769b50614610190578063657749931461019a5780636876d0bd146101a25780637797cee4146101af57600080fd5b806308d233dc146101265780630b4f3f3d146101415780630c3283061461016157806342c1b5071461016a575b600080fd5b61012e61028a565b6040519081526020015b60405180910390f35b61015461014f366004610daa565b6102fc565b6040516101389190610e34565b61012e600b5481565b6008546101779060ff1681565b6040519015158152602001610138565b61012e60075481565b61019861051c565b005b610198610698565b600f546101779060ff1681565b6005546101c2906001600160a01b031681565b6040516001600160a01b039091168152602001610138565b6101986101e8366004610e55565b61078e565b6102006101fb366004610ea7565b610878565b604051610138929190610ec0565b6003546101c2906001600160a01b031681565b6002546101c2906001600160a01b031681565b61012e600c5481565b6004546101c2906001600160a01b031681565b610198610b1a565b61012e610266366004610ee2565b6001600160a01b031660009081526011602052604090205490565b61012e60065481565b6002546040516370a0823160e01b81523060048201526000916001600160a01b0316906370a0823190602401602060405180830381865afa1580156102d3573d6000803e3d6000fd5b505050506040513d601f19601f820116820180604052508101906102f79190610f0b565b905090565b60085460609060ff61010090910416151560011461031957600080fd5b6000546001600160a01b031633148061033c57506005546001600160a01b031633145b1561046157600754431061034f57600080fd5b60025460048054600b5460405163a9059cbb60e01b81526001600160a01b039283169381019390935260248301529091169063a9059cbb906044016020604051808303816000875af11580156103a9573d6000803e3d6000fd5b505050506040513d601f19601f820116820180604052508101906103cd9190610f24565b50600254600f54600c5460405163a9059cbb60e01b81526001600160a01b0361010090930483166004820152602481019190915291169063a9059cbb906044015b6020604051808303816000875af115801561042d573d6000803e3d6000fd5b505050506040513d601f19601f820116820180604052508101906104519190610f24565b50506008805461ff001916905590565b6004546001600160a01b031633141561051757600754431061048257600080fd5b6008805461ffff191660011790556104a761049f605a6064610c01565b600b54610c68565b600b819055600254600f546001600160a01b039182169263a9059cbb92610100909204909116906104d9906001610f57565b600c546104e69190610f76565b6040516001600160e01b031960e085901b1681526001600160a01b039092166004830152602482015260440161040e565b919050565b6000546001600160a01b0316331461053357600080fd5b600360009054906101000a90046001600160a01b03166001600160a01b03166352639cd56040518163ffffffff1660e01b8152600401602060405180830381865afa158015610586573d6000803e3d6000fd5b505050506040513d601f19601f820116820180604052508101906105aa9190610f0b565b6001819055431061060d5760405162461bcd60e51b815260206004820152602260248201527f44494749206e6f206c6f6e6765722068617320616e792070726976696c656467604482015261657360f01b60648201526084015b60405180910390fd5b60025460065460405163a9059cbb60e01b815230600482015260248101919091526001600160a01b039091169063a9059cbb906044016020604051808303816000875af1158015610662573d6000803e3d6000fd5b505050506040513d601f19601f820116820180604052508101906106869190610f24565b506008805461ff001916610100179055565b6004546001600160a01b031633146106af57600080fd5b60085460ff1615156001146106fe5760405162461bcd60e51b8152602060048201526015602482015274165bdd481dd95c995b89dd081c195b985b1a5e9959605a1b6044820152606401610604565b600e54431161070c57600080fd5b60025460048054600b5460405163a9059cbb60e01b81526001600160a01b039283169381019390935260248301529091169063a9059cbb906044015b6020604051808303816000875af1158015610767573d6000803e3d6000fd5b505050506040513d601f19601f8201168201806040525081019061078b9190610f24565b50565b6005546001600160a01b031633146107a557600080fd5b600754431061081c5760405162461bcd60e51b815260206004820152603960248201527f5468652074696d6520746f20636f6d706c6574652074686520636f6d706c657460448201527f65207468652070726f706f73616c2068617320706173736564000000000000006064820152608401610604565b600f805460ff19168215151790556040517f6c291555923627821681051abd1364dae6f7649790bfaf96caca33de353f50329061085c9084908490610f8e565b60405180910390a18061087457610872826102fc565b505b5050565b6004546060906000906001600160a01b0316331461089557600080fd5b6006548311156108f35760405162461bcd60e51b8152602060048201526024808201527f53656e64696e67206d6f7265207468616e206167726565642075706f6e20616d6044820152631bdd5b9d60e21b6064820152608401610604565b600854610100900460ff161561094b5760405162461bcd60e51b815260206004820152601860248201527f50726f706f73616c20616c726561647920656e61626c656400000000000000006044820152606401610604565b6002546040516323b872dd60e01b8152336004820152306024820152604481018590526001600160a01b03909116906323b872dd906064016020604051808303816000875af11580156109a2573d6000803e3d6000fd5b505050506040513d601f19601f820116820180604052508101906109c69190610f24565b506002546009546001600160a01b039091169063a9059cbb9061dead906109ed9087610c68565b6040516001600160e01b031960e085901b1681526001600160a01b03909216600483015260248201526044016020604051808303816000875af1158015610a38573d6000803e3d6000fd5b505050506040513d601f19601f82011682018060405250810190610a5c9190610f24565b506008805461ff001916610100179055600654610a799084610cee565b600b819055831115610adc576000610a9384600b54610cee565b600a54600d5460408051928352602083018490528201529091507f7d4f064d15c232a3ae67a4813da9c815f784de413afec1d031d073650bc899db9060600160405180910390a1505b505060408051808201909152601e81527f436f6d706c6574696f6e206e6f74696669636174696f6e2064756520627900006020820152600d54915091565b6005546001600160a01b03163314610b3157600080fd5b60085460ff610100909104161515600114610b4b57600080fd5b6007544311610bc25760405162461bcd60e51b815260206004820152603760248201527f5468652063757272656e7420626c6f636b206e756d626572206973206c65737360448201527f207468616e207468652072656c6561736520626c6f636b0000000000000000006064820152608401610604565b60025460055460065460405163a9059cbb60e01b81526001600160a01b039283166004820152602481019190915291169063a9059cbb90604401610748565b6000808211610c525760405162461bcd60e51b815260206004820152601a60248201527f536166654d6174683a206469766973696f6e206279207a65726f0000000000006044820152606401610604565b6000610c5e8385610fb2565b9150505b92915050565b600082610c7757506000610c62565b6000610c838385610f57565b905082610c908583610fb2565b14610ce75760405162461bcd60e51b815260206004820152602160248201527f536166654d6174683a206d756c7469706c69636174696f6e206f766572666c6f6044820152607760f81b6064820152608401610604565b9392505050565b600082821115610cfd57600080fd5b610ce78284610fd4565b634e487b7160e01b600052604160045260246000fd5b600082601f830112610d2e57600080fd5b813567ffffffffffffffff80821115610d4957610d49610d07565b604051601f8301601f19908116603f01168101908282118183101715610d7157610d71610d07565b81604052838152866020858801011115610d8a57600080fd5b836020870160208301376000602085830101528094505050505092915050565b600060208284031215610dbc57600080fd5b813567ffffffffffffffff811115610dd357600080fd5b610ddf84828501610d1d565b949350505050565b6000815180845260005b81811015610e0d57602081850181015186830182015201610df1565b81811115610e1f576000602083870101525b50601f01601f19169290920160200192915050565b602081526000610ce76020830184610de7565b801515811461078b57600080fd5b60008060408385031215610e6857600080fd5b823567ffffffffffffffff811115610e7f57600080fd5b610e8b85828601610d1d565b9250506020830135610e9c81610e47565b809150509250929050565b600060208284031215610eb957600080fd5b5035919050565b604081526000610ed36040830185610de7565b90508260208301529392505050565b600060208284031215610ef457600080fd5b81356001600160a01b0381168114610ce757600080fd5b600060208284031215610f1d57600080fd5b5051919050565b600060208284031215610f3657600080fd5b8151610ce781610e47565b634e487b7160e01b600052601160045260246000fd5b6000816000190483118215151615610f7157610f71610f41565b500290565b60008219821115610f8957610f89610f41565b500190565b604081526000610fa16040830185610de7565b905082151560208301529392505050565b600082610fcf57634e487b7160e01b600052601260045260246000fd5b500490565b600082821015610fe657610fe6610f41565b50039056fea2646970667358221220463d7da8591f2ed240f3a4018cb208ace0c0e5fbbc7857efcac6235f133a600564736f6c634300080a00333130303030303020726571756972656420746f20696e697469616c697a652c2043757272656e7420696e697469616c697a6174696f6e20706f696e74733a20a264697066735822122063e183eadc14c25fed8d1a2dd35b07c0bb9c1dfdc208b709c1751b534205631e64736f6c634300080a0033",
  "immutableReferences": {},
  "source": "// SPDX-License-Identifier: MIT\r\npragma solidity 0.8.10;\r\n//DAO GOV version 1.0.0\r\n\r\n//NOT READY FOR PRODUCTION 12/30/2021\r\ncontract SafeMath {\r\n\r\n    function add(uint256 a, uint256 b) internal pure returns (uint256) {\r\n        uint256 c = a + b;\r\n        require(c >= a, \"SafeMath: addition overflow\");\r\n        return c;    }\r\n\r\n    function safeAdd(uint a, uint b) internal pure returns (uint c) {\r\n        c = a + b;\r\n        require(c >= a);\r\n    }\r\n    function safeSub(uint a, uint b) internal pure returns (uint c) {\r\n        require(b <= a);\r\n        c = a - b;\r\n    }\r\n\r\n    function mul(uint256 a, uint256 b) internal pure returns (uint256) {\r\n        if (a == 0) {\r\n            return 0;}\r\n            uint256 c = a * b;\r\n            require(c / a == b, \"SafeMath: multiplication overflow\");\r\n            return c;}\r\n\r\n    function div(uint256 a, uint256 b) internal pure returns (uint256) {\r\n        require(b > 0, \"SafeMath: division by zero\");\r\n        uint256 c = a / b;\r\n        return c;    }\r\n}\r\n\r\ninterface InterfaceDigi {\r\n    function balanceOf(address tokenOwner) external view returns (uint balance);\r\n    function totalSupply() external view returns (uint);\r\n    function transfer(address receiver, uint tokens) external returns (bool success);\r\n    function transferFrom(address sender, address receiver, uint tokens) external returns (bool success);\r\n\r\n}\r\n\r\n\r\ninterface InterfaceReps {\r\n    function checkRep() external view returns (bool);\r\n    function getMaturationTime() external view returns (uint);\r\n    function getRepMin() external view returns (uint);\r\n    function getRep() external view returns (address);\r\n    function getUnlockBlock() external view returns (uint);\r\n    function getStartBlock() external view returns (uint);\r\n\r\n}\r\n\r\ncontract DaoGov is SafeMath{\r\n    address tokenAddress;\r\n    address DIGI;\r\n    address DAO;\r\n    address REP;\r\n    address public stakePoolAddress;\r\n    uint public minimumVotingPeriod;\r\n    address [] public proposalContracts;\r\n    uint proposalContractID;\r\n    event proposalResult(uint _proposal, bool dtlcontract);\r\n    event Digichecked(uint _block);\r\n    uint DigiCheckBlock;\r\n    uint proposerBonus;\r\n    uint standardBonus;\r\n    uint standardBurn;\r\n    uint proposalIntializationThreshold;\r\n\r\n    struct Proposal {\r\n        address proposer;\r\n        string basic_description;\r\n        uint yesVotes;\r\n        uint noVotes;\r\n        uint startVoteBlock;\r\n        uint endVoteBlock;\r\n        uint proposalCost;\r\n        address [] alreadyVoted;\r\n        bool voteEnded;\r\n        bool votePass;\r\n        bool enacted;\r\n        uint initializationPoints;\r\n        bool initialized;\r\n        address [] initializers;\r\n    }\r\n\r\n    mapping(address => Proposal )  public proposers;\r\n    Proposal[] public proposals;\r\n\r\n    constructor(){\r\n        minimumVotingPeriod = 10; //01 blocks\r\n        proposalIntializationThreshold = 1000000 *10 *18; //1000000 DGT 1% of total supply\r\n        DIGI = msg.sender;\r\n        proposerBonus = 3;      //  3% of proposal cost\r\n        standardBonus = 2500;   //  2500 DGT\r\n        standardBurn = div(11,100);       //  1.11% of proposal cost\r\n    }\r\n\r\n    modifier onlyDIGI(){\r\n        require(msg.sender == DIGI);\r\n        _;\r\n    }\r\n    modifier DIGIcheck{\r\n        require(block.number < DigiCheckBlock,\"DIGI no longer has any priviledges\");\r\n        _;\r\n\r\n    }\r\n\r\n    function getStandardBurn() public view returns (uint){\r\n        return standardBurn;\r\n    }\r\n    function setStakePool(address pool) public onlyDIGI{\r\n        require(stakePoolAddress==address(0),\"Stake pool has already been set\");\r\n        stakePoolAddress = pool;\r\n    }\r\n    function getStakePool() public view returns (address){\r\n       return stakePoolAddress;\r\n    }\r\n    function checkDigi() public onlyDIGI{\r\n       require(DigiCheckBlock==0,\"Digi has already been checked\");\r\n       DigiCheckBlock =  add(block.number,1726272);\r\n       emit Digichecked(DigiCheckBlock);\r\n    }\r\n    function getDigiCheckBlock() public view returns(uint){\r\n        return DigiCheckBlock;\r\n    }\r\n    function setDigitradeAddress(address digitoken) public onlyDIGI(){\r\n        require(tokenAddress==address(0),\"Token Address has already been set\");\r\n        tokenAddress = digitoken;\r\n    }\r\n    function getDigitradeAddress() public view returns(address){\r\n        return tokenAddress;\r\n    }\r\n    function set3DAOAddress() public onlyDIGI{\r\n        DAO = address(this);\r\n    }\r\n    function get3DAOAddress() public view returns(address) {\r\n        return DAO;\r\n    }\r\n    function setRepAddress(address _rep) public onlyDIGI{\r\n        REP = _rep;\r\n    }\r\n\r\n    modifier onlyVestedReps(){\r\n       require(InterfaceDigi(tokenAddress).balanceOf(msg.sender) > InterfaceReps(REP).getRepMin(), \"Not enough digitrade tokens\");\r\n       require(msg.sender == InterfaceReps(REP).getRep(),\"You are not a rep\" );\r\n       require(block.number > InterfaceReps(REP).getUnlockBlock(), \"UnlockBlock <  current block number\");\r\n      _;\r\n    }\r\n    modifier onlyInitializedProposal(uint _proposal){\r\n      require(proposals[_proposal].initialized == true,\"Proposal is not initialized\");\r\n      _;\r\n    }\r\n    modifier onlyProposalSponsor(uint _proposal){\r\n       require(msg.sender == proposals[_proposal].proposer, \"Only the proposal creator can call this function\");\r\n      _;\r\n    }\r\n    modifier onlyNonEnactedProposals(uint _proposal){\r\n      require(proposals[_proposal].enacted == false, \"Proposal is already enacted\");\r\n      _;\r\n    }\r\n    modifier onlyEndedProposals(uint _proposal){\r\n      require(block.number > proposals[_proposal].endVoteBlock ,\"Voting period has not ended\");\r\n      _;\r\n    }\r\n\r\n\r\n    function checkRegistration() public view returns(uint _unlockBlock, string memory){\r\n        require(msg.sender == InterfaceReps(REP).getRep(), \"You have not registered yet\");\r\n        if(InterfaceReps(REP).getUnlockBlock()< block.number){\r\n           return (1,'You are registered');\r\n        }else{\r\n          return ((InterfaceReps(REP).getUnlockBlock() - InterfaceReps(REP).getStartBlock()), 'more blocks until registration');\r\n        }\r\n    }\r\n      //VOTING PROCESS...\r\n\r\n    function propose(string memory detailedDescription, uint256 _dgtCost, uint _votePeriod) public onlyVestedReps{\r\n        uint256 stakeBalance = InterfaceDigi(tokenAddress).balanceOf(stakePoolAddress);\r\n        uint maximumAvailiableTokens = mul(div(stakeBalance,100),2);\r\n        require((_dgtCost*10*18) < maximumAvailiableTokens, \"Proposal cost exceeds 2% of avaliable tokens\");\r\n        require(_votePeriod > minimumVotingPeriod);\r\n        address[] memory iVoted;\r\n        proposals.push(Proposal({\r\n                proposer: msg.sender,\r\n                basic_description: detailedDescription,\r\n                yesVotes: 0,\r\n                noVotes: 0,\r\n                startVoteBlock:block.number,\r\n                endVoteBlock: add(_votePeriod,block.number),\r\n                proposalCost: _dgtCost,\r\n                alreadyVoted:iVoted,\r\n                voteEnded:false,\r\n                votePass:false,\r\n                enacted:false,\r\n                initializationPoints: 0,\r\n                initialized:false,\r\n                initializers:iVoted\r\n            }));\r\n    }\r\n\r\n    function initializeProposal(uint _proposal) public onlyVestedReps returns (string memory message, uint points){\r\n      require(proposals[_proposal].initializationPoints < 1000000, \"Proposal Already initialized\");\r\n      uint previousPoints = proposals[_proposal].initializationPoints;\r\n      uint addedPoints = InterfaceDigi(tokenAddress).balanceOf(msg.sender);\r\n      uint currentPoints = add(previousPoints, addedPoints);\r\n      proposals[_proposal].initializationPoints = currentPoints;\r\n      if(currentPoints > proposalIntializationThreshold){\r\n        for (uint i=0; i<proposals[_proposal].initializers.length; i++){\r\n            require(proposals[_proposal].initializers[i] != msg.sender, \"Only one vote per address\");\r\n        }\r\n      proposals[_proposal].initialized = true;\r\n      string memory _message = \"Proposal is initalized\";\r\n      message = _message;\r\n      return (message, proposals[_proposal].initializationPoints);\r\n        }else{\r\n        return (\"1000000 required to initialize, Current initialization points: \", proposals[_proposal].initializationPoints);\r\n        }\r\n    }\r\n\r\n    function vote(uint _proposal, bool yes, bool no) public onlyVestedReps onlyInitializedProposal(_proposal) returns (string memory message){\r\n       for (uint i=0; i<proposals[_proposal].alreadyVoted.length; i++) {\r\n       require(proposals[_proposal].alreadyVoted[i] != msg.sender, \"Only one vote per address\");}\r\n       require(proposals[_proposal].endVoteBlock > block.number, \"Voting has ended\");\r\n       if(yes == true){\r\n           require(no == false);\r\n           proposals[_proposal].yesVotes += 1;\r\n           return \"You voted yes!\";}\r\n       if(no == true){\r\n           require(yes == false);\r\n           proposals[_proposal].noVotes += 1;\r\n           return \"You voted no!\";}\r\n       proposals[_proposal].alreadyVoted.push(msg.sender);\r\n    }\r\n\r\n    function tallyProposal(uint _proposal) public onlyEndedProposals(_proposal)  returns (bool _result) {\r\n        if(proposals[_proposal].yesVotes > proposals[_proposal].noVotes){\r\n        proposals[_proposal].voteEnded = true;\r\n        proposals[_proposal].votePass = true;\r\n        emit proposalResult(_proposal, true);\r\n        return true;\r\n        }\r\n        if(proposals[_proposal].yesVotes < proposals[_proposal].noVotes){\r\n        proposals[_proposal].voteEnded = true;\r\n        proposals[_proposal].votePass = false;\r\n        emit proposalResult(_proposal, true);\r\n        delete proposals[_proposal];\r\n        return false;\r\n        }\r\n    }\r\n\r\n    function veto(uint _proposal) public onlyDIGI DIGIcheck(){\r\n        uint yesVotes = proposals[_proposal].yesVotes;\r\n        uint noVotes  = proposals[_proposal].noVotes;\r\n        require((div(yesVotes,noVotes)) < mul((div(2,3)),(add(yesVotes,noVotes))),\" 66% majority overides DIGI authority\");\r\n        proposals[_proposal].votePass = false;\r\n        proposals[_proposal].enacted = false;\r\n        proposals[_proposal].voteEnded = true;\r\n        emit proposalResult(_proposal, false);\r\n    }\r\n\r\n    function calculateReleaseBlock(uint _weeks) public view returns (uint _releaseBlock){\r\n        _releaseBlock = block.number + (_weeks * 70000);\r\n        return _releaseBlock;\r\n    }\r\n\r\n    function enactProposal(\r\n        uint _proposal,\r\n        uint _weeks,\r\n        address _facilitator\r\n        )\r\n        public  onlyProposalSponsor(_proposal) returns (address) {\r\n        require(_weeks > 0,\" Proprosal needs at least 1 week to be completed\");\r\n        require(proposals[_proposal].votePass = true, \"The vote did not pass\");\r\n        uint proposerBalance = InterfaceDigi(tokenAddress).balanceOf(msg.sender);\r\n        require(proposerBalance >= proposals[_proposal].proposalCost,\"Your DGT balance is < than the amount needed to enact proposal\");\r\n        uint _releaseBlock = calculateReleaseBlock(_weeks);\r\n\r\n        proposalContractID = proposalContractID ++;\r\n\r\n        ProposalContract newContract = new ProposalContract(\r\n        proposalContractID,\r\n        proposals[_proposal].proposer,\r\n        proposals[_proposal].proposalCost,\r\n        _facilitator,\r\n        _releaseBlock,\r\n        DIGI,\r\n        DAO,\r\n        tokenAddress,\r\n        stakePoolAddress);\r\n        address newContractAddress = address(newContract);\r\n        proposalContracts.push(address(newContract));\r\n\r\n        return newContractAddress;\r\n    }\r\n\r\n    //END VOTING PROCESS\r\n\r\n}\r\n\r\ninterface InterfaceDaoGov {\r\n  function getStakePool() external view returns (address);\r\n  function getDIGI() external view returns (address);\r\n  function getDigiCheckBlock() external view returns (uint);\r\n  function get3DAOAddress() external view returns (address);\r\n  function getDigitradeAddress() external view returns (address);\r\n  function getStandardBurn() external view returns (address);\r\n}\r\n\r\ncontract ProposalContract is SafeMath{\r\n    address DIGI;\r\n    uint DigiCheckBlock;\r\n    address public tokenAddress;\r\n    address public DAO;\r\n    address public proposer;\r\n    address public facilitator;\r\n    uint public proposalCost;\r\n    uint public releaseBlock;\r\n    bool public penalized;\r\n    bool enable;\r\n    uint burnAmount;\r\n    uint ID;\r\n\r\n    uint public proposerStake;\r\n    uint public otherStakers;\r\n    uint completionBlock;\r\n    uint timeOut;\r\n    bool public taskComplete;\r\n    address stakePoolAddress;\r\n    address [] sponsors;\r\n    mapping(address => uint) balances;\r\n\r\n    struct Sponsors{\r\n    address sponsor;\r\n    uint balance;\r\n    }\r\n\r\n    event FundingNeeded(uint contractNumber, uint _amount, uint _timeRemaining);\r\n\r\n    event TaskComplete(string completionMessage, bool _completionStatus);\r\n\r\n\r\n    //TEAM STAKING\r\n    constructor(\r\n      uint _ID,\r\n      address _proposer,\r\n      uint _cost,\r\n      address _facilitator,\r\n      uint _releaseBlock,\r\n      address _DIGI,\r\n      address _DAO,\r\n      address _tokenAddress,\r\n      address _stakePool){\r\n        ID = _ID;\r\n        proposer = _proposer;\r\n        facilitator = _facilitator;\r\n        proposalCost = _cost;\r\n        releaseBlock = _releaseBlock;\r\n        DIGI = _DIGI;\r\n        DAO = _DAO;\r\n        tokenAddress = _tokenAddress;\r\n        completionBlock = safeSub(_releaseBlock , div(_releaseBlock,10));\r\n        stakePoolAddress = _stakePool;\r\n        enable = false;\r\n        penalized = false;\r\n\r\n    }\r\n\r\n    function sponsorBalance(address _sponsor) public  view returns (uint balance) {\r\n        return balances[_sponsor];\r\n    }\r\n\r\n    modifier DIGIcheck{\r\n        DigiCheckBlock = InterfaceDaoGov(DAO).getDigiCheckBlock();\r\n        require(block.number < DigiCheckBlock,\"DIGI no longer has any priviledges\");\r\n        _;\r\n\r\n    }\r\n    modifier onlyEnabled(){\r\n        require(enable == true);\r\n        _;\r\n    }\r\n    modifier onlyProposer(){\r\n        require(msg.sender == proposer);\r\n        _;\r\n    }\r\n    modifier onlyFacilitator(){\r\n        require(msg.sender == facilitator);\r\n        _;\r\n    }\r\n    modifier onlyDIGI(){\r\n        require(msg.sender == DIGI);\r\n        _;\r\n    }\r\n\r\n    function ProposerFundContract(uint _amount) public onlyProposer returns (string memory message, uint _completionBlock){\r\n        require(_amount <= proposalCost, \"Sending more than agreed upon amount\");\r\n        require(enable == false, \"Proposal already enabled\");\r\n        InterfaceDigi(tokenAddress).transferFrom(msg.sender, address(this) , _amount);\r\n        InterfaceDigi(tokenAddress).transfer(0x000000000000000000000000000000000000dEaD , mul(burnAmount,_amount));\r\n        enable = true;\r\n        proposerStake= safeSub(proposalCost,_amount);\r\n        if(proposerStake < _amount){\r\n            uint fundsNeeded = safeSub(_amount, proposerStake);\r\n            emit FundingNeeded(ID, fundsNeeded, completionBlock);\r\n        }\r\n        message = \"Completion notification due by\";\r\n        _completionBlock = completionBlock;\r\n        return (message, _completionBlock);\r\n    }\r\n\r\n    function DigiFundContract() public onlyDIGI DIGIcheck{\r\n        InterfaceDigi(tokenAddress).transfer(address(this),proposalCost);\r\n        enable = true;\r\n    }\r\n\r\n    function checkFunds() public view returns(uint){\r\n        return InterfaceDigi(tokenAddress).balanceOf(address(this));\r\n    }\r\n\r\n    function completionNotification(string memory message, bool _complete) public onlyFacilitator {\r\n      require(block.number < releaseBlock, \"The time to complete the complete the proposal has passed\");\r\n      taskComplete = _complete;\r\n      emit TaskComplete(message, _complete);\r\n      if(_complete == false){\r\n        cancel(message);\r\n      }\r\n    }\r\n\r\n    function releasePayments() public onlyFacilitator onlyEnabled{\r\n        require(block.number > releaseBlock, \"The current block number is less than the release block\");\r\n        InterfaceDigi(tokenAddress).transfer(facilitator,proposalCost);\r\n    }\r\n\r\n    function cancel(string memory reason) public onlyEnabled returns ( string memory _reason){\r\n        if(msg.sender == DIGI || msg.sender == facilitator){\r\n            require(block.number < releaseBlock);\r\n            InterfaceDigi(tokenAddress).transfer(proposer, proposerStake);\r\n            InterfaceDigi(tokenAddress).transfer(stakePoolAddress ,otherStakers);\r\n            //100% return of tokens to stakePoolAddress and proposer\r\n            enable = false;\r\n            _reason = reason;\r\n            return _reason;\r\n            }\r\n        if(msg.sender == proposer){\r\n            require(block.number < releaseBlock);\r\n            enable = false;\r\n            penalized = true;\r\n            proposerStake = mul((div(90,100)),proposerStake);\r\n            InterfaceDigi(tokenAddress).transfer(stakePoolAddress ,(otherStakers+(1*proposerStake)));\r\n            //100% return of tokens to stakePoolAddress but penalize proposer 10%\r\n            enable = false;\r\n            _reason = reason;\r\n            return _reason;\r\n            }\r\n\r\n    }\r\n\r\n    function collectProposerBenefit() public {\r\n\r\n    }\r\n\r\n    function returnPenalizedStake() public onlyProposer{\r\n            require(penalized == true, \"You weren't penalized\");\r\n            require(block.number > timeOut);\r\n            InterfaceDigi(tokenAddress).transfer(proposer,proposerStake);\r\n    }\r\n\r\n\r\n\r\n\r\n\r\n}\r\n\r\ncontract StakePool{\r\n\r\n}\r\n",
  "sourcePath": "C:\\Users\\Julian Airhawk\\Desktop\\3dao\\Digitrade\\contracts\\DaoGov.sol",
  "compiler": {
    "name": "solc",
    "version": "0.8.10+commit.fc410830.Emscripten.clang"
  },
  "schemaVersion": "3.4.4",
  "updatedAt": "2022-01-05T20:19:07.917Z",
  "networkType": "ethereum",
  "devdoc": {
    "kind": "dev",
    "methods": {},
    "version": 1
  },
  "userdoc": {
    "kind": "user",
    "methods": {},
    "version": 1
  }
}