{
  "contractName": "Operations",
  "abi": [
    {
      "inputs": [
        {
          "internalType": "address",
          "name": "_digi",
          "type": "address"
        }
      ],
      "stateMutability": "nonpayable",
      "type": "constructor"
    },
    {
      "inputs": [
        {
          "internalType": "address",
          "name": "",
          "type": "address"
        }
      ],
      "name": "Locations",
      "outputs": [
        {
          "internalType": "address",
          "name": "operator",
          "type": "address"
        },
        {
          "internalType": "address",
          "name": "location",
          "type": "address"
        },
        {
          "internalType": "string",
          "name": "position",
          "type": "string"
        }
      ],
      "stateMutability": "view",
      "type": "function"
    },
    {
      "inputs": [
        {
          "internalType": "address",
          "name": "",
          "type": "address"
        }
      ],
      "name": "Managers",
      "outputs": [
        {
          "internalType": "address",
          "name": "location",
          "type": "address"
        },
        {
          "internalType": "address",
          "name": "manager",
          "type": "address"
        }
      ],
      "stateMutability": "view",
      "type": "function"
    },
    {
      "inputs": [
        {
          "internalType": "address",
          "name": "",
          "type": "address"
        }
      ],
      "name": "Operators",
      "outputs": [
        {
          "internalType": "address",
          "name": "operator",
          "type": "address"
        },
        {
          "internalType": "address",
          "name": "timeLock",
          "type": "address"
        }
      ],
      "stateMutability": "view",
      "type": "function"
    },
    {
      "inputs": [
        {
          "internalType": "address",
          "name": "",
          "type": "address"
        }
      ],
      "name": "Sellers",
      "outputs": [
        {
          "internalType": "address",
          "name": "manager",
          "type": "address"
        },
        {
          "internalType": "bool",
          "name": "active",
          "type": "bool"
        },
        {
          "internalType": "address",
          "name": "seller",
          "type": "address"
        },
        {
          "internalType": "string",
          "name": "seller_name",
          "type": "string"
        },
        {
          "internalType": "uint256",
          "name": "sellerId",
          "type": "uint256"
        }
      ],
      "stateMutability": "view",
      "type": "function"
    },
    {
      "inputs": [
        {
          "internalType": "uint256",
          "name": "",
          "type": "uint256"
        }
      ],
      "name": "locations",
      "outputs": [
        {
          "internalType": "address",
          "name": "operator",
          "type": "address"
        },
        {
          "internalType": "address",
          "name": "location",
          "type": "address"
        },
        {
          "internalType": "string",
          "name": "position",
          "type": "string"
        }
      ],
      "stateMutability": "view",
      "type": "function"
    },
    {
      "inputs": [
        {
          "internalType": "uint256",
          "name": "",
          "type": "uint256"
        }
      ],
      "name": "menus",
      "outputs": [
        {
          "internalType": "string",
          "name": "item",
          "type": "string"
        },
        {
          "internalType": "string",
          "name": "price",
          "type": "string"
        }
      ],
      "stateMutability": "view",
      "type": "function"
    },
    {
      "inputs": [
        {
          "internalType": "uint256",
          "name": "",
          "type": "uint256"
        }
      ],
      "name": "oplocks",
      "outputs": [
        {
          "internalType": "contract OperatorLock",
          "name": "",
          "type": "address"
        }
      ],
      "stateMutability": "view",
      "type": "function"
    },
    {
      "inputs": [
        {
          "internalType": "uint256",
          "name": "",
          "type": "uint256"
        }
      ],
      "name": "posts",
      "outputs": [
        {
          "internalType": "address",
          "name": "operator",
          "type": "address"
        },
        {
          "internalType": "address",
          "name": "sender",
          "type": "address"
        },
        {
          "internalType": "string",
          "name": "items",
          "type": "string"
        },
        {
          "internalType": "string",
          "name": "customerLocation",
          "type": "string"
        },
        {
          "internalType": "string",
          "name": "customer",
          "type": "string"
        },
        {
          "internalType": "bool",
          "name": "complete",
          "type": "bool"
        },
        {
          "internalType": "bool",
          "name": "accepted",
          "type": "bool"
        },
        {
          "internalType": "uint256",
          "name": "time",
          "type": "uint256"
        },
        {
          "internalType": "address",
          "name": "asset",
          "type": "address"
        },
        {
          "internalType": "uint256",
          "name": "total",
          "type": "uint256"
        }
      ],
      "stateMutability": "view",
      "type": "function"
    },
    {
      "inputs": [
        {
          "internalType": "uint256",
          "name": "",
          "type": "uint256"
        }
      ],
      "name": "records",
      "outputs": [
        {
          "internalType": "address",
          "name": "operator",
          "type": "address"
        },
        {
          "internalType": "string",
          "name": "items",
          "type": "string"
        },
        {
          "internalType": "string",
          "name": "sellerId",
          "type": "string"
        },
        {
          "internalType": "string",
          "name": "customerLocation",
          "type": "string"
        },
        {
          "internalType": "string",
          "name": "customer",
          "type": "string"
        }
      ],
      "stateMutability": "view",
      "type": "function"
    },
    {
      "inputs": [
        {
          "internalType": "address",
          "name": "_address",
          "type": "address"
        }
      ],
      "name": "setOperatorFactory",
      "outputs": [],
      "stateMutability": "nonpayable",
      "type": "function"
    },
    {
      "inputs": [],
      "name": "createOperator",
      "outputs": [],
      "stateMutability": "nonpayable",
      "type": "function"
    },
    {
      "inputs": [
        {
          "internalType": "address",
          "name": "_location",
          "type": "address"
        },
        {
          "internalType": "string",
          "name": "_position",
          "type": "string"
        }
      ],
      "name": "createLocation",
      "outputs": [],
      "stateMutability": "nonpayable",
      "type": "function"
    },
    {
      "inputs": [
        {
          "internalType": "address",
          "name": "_manager",
          "type": "address"
        }
      ],
      "name": "createManager",
      "outputs": [],
      "stateMutability": "nonpayable",
      "type": "function"
    },
    {
      "inputs": [
        {
          "internalType": "address",
          "name": "_seller",
          "type": "address"
        },
        {
          "internalType": "string",
          "name": "_seller_name",
          "type": "string"
        },
        {
          "internalType": "uint256",
          "name": "_sellerId",
          "type": "uint256"
        }
      ],
      "name": "createSeller",
      "outputs": [],
      "stateMutability": "nonpayable",
      "type": "function"
    },
    {
      "inputs": [
        {
          "internalType": "string",
          "name": "_item",
          "type": "string"
        },
        {
          "internalType": "string",
          "name": "_price",
          "type": "string"
        }
      ],
      "name": "createMenuItem",
      "outputs": [],
      "stateMutability": "nonpayable",
      "type": "function"
    },
    {
      "inputs": [
        {
          "components": [
            {
              "internalType": "string",
              "name": "item",
              "type": "string"
            },
            {
              "internalType": "string",
              "name": "price",
              "type": "string"
            }
          ],
          "internalType": "struct Operations.Menu[]",
          "name": "_items",
          "type": "tuple[]"
        }
      ],
      "name": "createMenu",
      "outputs": [],
      "stateMutability": "nonpayable",
      "type": "function"
    },
    {
      "inputs": [],
      "name": "getLocations",
      "outputs": [
        {
          "internalType": "address[]",
          "name": "",
          "type": "address[]"
        }
      ],
      "stateMutability": "view",
      "type": "function"
    },
    {
      "inputs": [],
      "name": "getManagers",
      "outputs": [
        {
          "internalType": "address[]",
          "name": "",
          "type": "address[]"
        }
      ],
      "stateMutability": "view",
      "type": "function"
    },
    {
      "inputs": [],
      "name": "getSubManagers",
      "outputs": [
        {
          "internalType": "address[]",
          "name": "",
          "type": "address[]"
        }
      ],
      "stateMutability": "view",
      "type": "function"
    },
    {
      "inputs": [],
      "name": "getSellers",
      "outputs": [
        {
          "internalType": "address[]",
          "name": "",
          "type": "address[]"
        }
      ],
      "stateMutability": "view",
      "type": "function"
    },
    {
      "inputs": [
        {
          "internalType": "address",
          "name": "_myLocation",
          "type": "address"
        }
      ],
      "name": "getLocationManagers",
      "outputs": [
        {
          "internalType": "address[]",
          "name": "",
          "type": "address[]"
        }
      ],
      "stateMutability": "view",
      "type": "function"
    },
    {
      "inputs": [
        {
          "internalType": "address",
          "name": "_myManager",
          "type": "address"
        }
      ],
      "name": "getManagersSellers",
      "outputs": [
        {
          "internalType": "address[]",
          "name": "",
          "type": "address[]"
        }
      ],
      "stateMutability": "view",
      "type": "function"
    },
    {
      "inputs": [
        {
          "internalType": "address",
          "name": "_manager",
          "type": "address"
        }
      ],
      "name": "getMenu",
      "outputs": [
        {
          "components": [
            {
              "internalType": "string",
              "name": "item",
              "type": "string"
            },
            {
              "internalType": "string",
              "name": "price",
              "type": "string"
            }
          ],
          "internalType": "struct Operations.Menu",
          "name": "",
          "type": "tuple"
        }
      ],
      "stateMutability": "view",
      "type": "function"
    },
    {
      "inputs": [
        {
          "internalType": "address",
          "name": "_location",
          "type": "address"
        }
      ],
      "name": "deleteLocation",
      "outputs": [],
      "stateMutability": "nonpayable",
      "type": "function"
    },
    {
      "inputs": [
        {
          "internalType": "address",
          "name": "_manager",
          "type": "address"
        }
      ],
      "name": "deleteManager",
      "outputs": [],
      "stateMutability": "nonpayable",
      "type": "function"
    },
    {
      "inputs": [
        {
          "internalType": "address",
          "name": "_seller",
          "type": "address"
        }
      ],
      "name": "deleteSeller",
      "outputs": [],
      "stateMutability": "nonpayable",
      "type": "function"
    },
    {
      "inputs": [],
      "name": "deleteAllLocations",
      "outputs": [],
      "stateMutability": "nonpayable",
      "type": "function"
    },
    {
      "inputs": [],
      "name": "deleteAllManagers",
      "outputs": [],
      "stateMutability": "nonpayable",
      "type": "function"
    },
    {
      "inputs": [],
      "name": "deleteAllSellers",
      "outputs": [],
      "stateMutability": "nonpayable",
      "type": "function"
    },
    {
      "inputs": [
        {
          "internalType": "address",
          "name": "_seller",
          "type": "address"
        }
      ],
      "name": "activateSeller",
      "outputs": [],
      "stateMutability": "view",
      "type": "function"
    },
    {
      "inputs": [
        {
          "internalType": "address[]",
          "name": "_sellers",
          "type": "address[]"
        }
      ],
      "name": "activateSellers",
      "outputs": [],
      "stateMutability": "view",
      "type": "function"
    },
    {
      "inputs": [
        {
          "internalType": "address",
          "name": "_seller",
          "type": "address"
        }
      ],
      "name": "deactivateSeller",
      "outputs": [],
      "stateMutability": "view",
      "type": "function"
    },
    {
      "inputs": [
        {
          "internalType": "address[]",
          "name": "_sellers",
          "type": "address[]"
        }
      ],
      "name": "deactivateSellers",
      "outputs": [],
      "stateMutability": "view",
      "type": "function"
    },
    {
      "inputs": [
        {
          "internalType": "address payable",
          "name": "_operator",
          "type": "address"
        },
        {
          "internalType": "address",
          "name": "_seller",
          "type": "address"
        },
        {
          "internalType": "string",
          "name": "_items",
          "type": "string"
        },
        {
          "internalType": "string",
          "name": "_sellerId",
          "type": "string"
        },
        {
          "internalType": "string",
          "name": "_customerLocation",
          "type": "string"
        },
        {
          "internalType": "string",
          "name": "_customer",
          "type": "string"
        },
        {
          "internalType": "uint256",
          "name": "itemTotal",
          "type": "uint256"
        },
        {
          "internalType": "uint256",
          "name": "_burnAmount",
          "type": "uint256"
        }
      ],
      "name": "addSale",
      "outputs": [],
      "stateMutability": "payable",
      "type": "function"
    },
    {
      "inputs": [
        {
          "internalType": "address",
          "name": "_factory",
          "type": "address"
        }
      ],
      "name": "createOpTimeLock",
      "outputs": [
        {
          "internalType": "address",
          "name": "Addres",
          "type": "address"
        }
      ],
      "stateMutability": "nonpayable",
      "type": "function"
    },
    {
      "inputs": [
        {
          "internalType": "address",
          "name": "_operator",
          "type": "address"
        }
      ],
      "name": "getOperatorLockContract",
      "outputs": [
        {
          "internalType": "address",
          "name": "",
          "type": "address"
        }
      ],
      "stateMutability": "view",
      "type": "function"
    }
  ],
  "bytecode": "0x60806040523480156200001157600080fd5b5060405162004aab38038062004aab8339810160408190526200003491620000c0565b806001600160a01b031663e5ccacb76040518163ffffffff1660e01b8152600401602060405180830381865afa15801562000073573d6000803e3d6000fd5b505050506040513d601f19601f82011682018060405250810190620000999190620000c0565b600080546001600160a01b0319166001600160a01b039290921691909117905550620000f2565b600060208284031215620000d357600080fd5b81516001600160a01b0381168114620000eb57600080fd5b9392505050565b6149a980620001026000396000f3fe6080604052600436106200023b5760003560e01c806396799760116200012f578063c24f638311620000ad578063dbf5f4c41162000078578063dbf5f4c4146200071d578063ea06d42e1462000742578063edbbdf2e1462000767578063ef170eee14620007ac578063f94ca55114620007d157600080fd5b8063c24f63831462000696578063d015ee2714620006bb578063d63ab3ce14620006e0578063d7d4ce3a14620006f857600080fd5b8063ab63616f11620000fa578063ab63616f14620005e7578063ab647e7e14620005ff578063b44a80041462000624578063b75e131e146200063b578063b9e0db35146200066057600080fd5b806396799760146200058557806396a861c014620003cc578063a8d088bb14620005aa578063aa50670d14620005c257600080fd5b8063541bcaea11620001bd57806378db5abe116200018857806378db5abe146200047d5780637ee454cb14620004bd57806383aa96c514620004d55780639290f4df14620004fa57806394234e42146200051f57600080fd5b8063541bcaea14620003f157806368970b2814620004095780636fcf0b7e14620004215780636fe66b03146200044857600080fd5b806322d69d3f116200020a57806322d69d3f14620002fd5780633446106714620003225780633d3b11bb146200035a578063433d27fe14620003985780634c0ff8fc14620003cc57600080fd5b806302e89c121462000240578063063dac80146200025a5780630b1e7f83146200027f578063155fe8a414620002c5575b600080fd5b3480156200024d57600080fd5b5062000258620007f6565b005b3480156200026757600080fd5b506200025862000279366004620026d6565b6200087e565b3480156200028c57600080fd5b50620002a46200029e366004620026f6565b620009a4565b604051620002bc9a9998979695949392919062002771565b60405180910390f35b348015620002d257600080fd5b50620002ea620002e4366004620026d6565b62000bd4565b604051620002bc959493929190620027fd565b3480156200030a57600080fd5b50620002586200031c36600462002932565b62000ca6565b3480156200032f57600080fd5b506200034762000341366004620026f6565b62000d5a565b604051620002bc95949392919062002991565b3480156200036757600080fd5b506200037f62000379366004620026d6565b62000fe7565b6040516001600160a01b039091168152602001620002bc565b348015620003a557600080fd5b50620003bd620003b7366004620026d6565b62001146565b604051620002bc919062002a03565b348015620003d957600080fd5b5062000258620003eb366004620026d6565b620012b6565b348015620003fe57600080fd5b506200025862001329565b3480156200041657600080fd5b5062000258620013b4565b3480156200042e57600080fd5b506200043962001433565b604051620002bc919062002a49565b3480156200045557600080fd5b506200046d62000467366004620026f6565b620014a3565b604051620002bc92919062002a98565b3480156200048a57600080fd5b506200037f6200049c366004620026d6565b6001600160a01b039081166000908152600860205260409020600101541690565b348015620004ca57600080fd5b5062000439620015f8565b348015620004e257600080fd5b506200037f620004f4366004620026f6565b62001666565b3480156200050757600080fd5b50620002586200051936600462002ae8565b62001691565b3480156200052c57600080fd5b50620005646200053e366004620026d6565b600860205260009081526040902080546001909101546001600160a01b03918216911682565b604080516001600160a01b03938416815292909116602083015201620002bc565b3480156200059257600080fd5b5062000258620005a4366004620026d6565b62001724565b348015620005b757600080fd5b506200043962001849565b348015620005cf57600080fd5b5062000258620005e136600462002c0d565b620018b7565b348015620005f457600080fd5b506200043962001962565b3480156200060c57600080fd5b50620002586200061e36600462002c63565b620019d0565b620002586200063536600462002cc4565b62001a54565b3480156200064857600080fd5b50620002586200065a36600462002db7565b62001ca8565b3480156200066d57600080fd5b50620006856200067f366004620026f6565b62001ddc565b604051620002bc9392919062002e5c565b348015620006a357600080fd5b5062000439620006b5366004620026d6565b62001eb1565b348015620006c857600080fd5b5062000258620006da366004620026d6565b62001f2c565b348015620006ed57600080fd5b506200025862001fdc565b3480156200070557600080fd5b506200043962000717366004620026d6565b62002038565b3480156200072a57600080fd5b50620002586200073c366004620026d6565b620020d9565b3480156200074f57600080fd5b506200068562000761366004620026d6565b620021d8565b3480156200077457600080fd5b506200056462000786366004620026d6565b600b60205260009081526040902080546001909101546001600160a01b03918216911682565b348015620007b957600080fd5b5062000258620007cb36600462002db7565b6200220f565b348015620007de57600080fd5b5062000258620007f0366004620026d6565b62002343565b336000818152600960205260409020600101546001600160a01b0316146200085c5760405162461bcd60e51b815260206004820152601460248201527320b2323932b9b9903737ba103637b1b0ba34b7b760611b60448201526064015b60405180910390fd5b3360009081526009602052604081206200087c91600290910190620025da565b565b336000818152600860205260409020546001600160a01b031614620008dd5760405162461bcd60e51b815260206004820152601460248201527320b2323932b9b9903737ba1037b832b930ba37b960611b604482015260640162000853565b60005b33600090815260086020526040902060020154811015620009a05733600090815260086020526040902060020180546001600160a01b0384169190839081106200092e576200092e62002e8a565b6000918252602090912001546001600160a01b031614156200098b5733600090815260086020526040902060020180548290811062000971576200097162002e8a565b600091825260209091200180546001600160a01b03191690555b80620009978162002eb6565b915050620008e0565b5050565b60108181548110620009b557600080fd5b60009182526020909120600990910201805460018201546002830180546001600160a01b039384169550929091169291620009f09062002ed4565b80601f016020809104026020016040519081016040528092919081815260200182805462000a1e9062002ed4565b801562000a6f5780601f1062000a435761010080835404028352916020019162000a6f565b820191906000526020600020905b81548152906001019060200180831162000a5157829003601f168201915b50505050509080600301805462000a869062002ed4565b80601f016020809104026020016040519081016040528092919081815260200182805462000ab49062002ed4565b801562000b055780601f1062000ad95761010080835404028352916020019162000b05565b820191906000526020600020905b81548152906001019060200180831162000ae757829003601f168201915b50505050509080600401805462000b1c9062002ed4565b80601f016020809104026020016040519081016040528092919081815260200182805462000b4a9062002ed4565b801562000b9b5780601f1062000b6f5761010080835404028352916020019162000b9b565b820191906000526020600020905b81548152906001019060200180831162000b7d57829003601f168201915b505050600584015460068501546007860154600890960154949560ff808416966101009094041694509092506001600160a01b0316908a565b600c602052600090815260409020805460018201546002830180546001600160a01b0380851695600160a01b90950460ff1694931692919062000c179062002ed4565b80601f016020809104026020016040519081016040528092919081815260200182805462000c459062002ed4565b801562000c965780601f1062000c6a5761010080835404028352916020019162000c96565b820191906000526020600020905b81548152906001019060200180831162000c7857829003601f168201915b5050505050908060030154905085565b336000818152600c6020908152604090912080546001600160a81b03191660ff60a01b199093169290921782556001820180546001600160a01b0319166001600160a01b038716179055835162000d049260020191850190620025fa565b50336000908152600c60209081526040808320600390810194909455600b8252822090920180546001810182559082529190200180546001600160a01b0319166001600160a01b03939093169290921790915550565b600e818154811062000d6b57600080fd5b6000918252602090912060059091020180546001820180546001600160a01b0390921693509062000d9c9062002ed4565b80601f016020809104026020016040519081016040528092919081815260200182805462000dca9062002ed4565b801562000e1b5780601f1062000def5761010080835404028352916020019162000e1b565b820191906000526020600020905b81548152906001019060200180831162000dfd57829003601f168201915b50505050509080600201805462000e329062002ed4565b80601f016020809104026020016040519081016040528092919081815260200182805462000e609062002ed4565b801562000eb15780601f1062000e855761010080835404028352916020019162000eb1565b820191906000526020600020905b81548152906001019060200180831162000e9357829003601f168201915b50505050509080600301805462000ec89062002ed4565b80601f016020809104026020016040519081016040528092919081815260200182805462000ef69062002ed4565b801562000f475780601f1062000f1b5761010080835404028352916020019162000f47565b820191906000526020600020905b81548152906001019060200180831162000f2957829003601f168201915b50505050509080600401805462000f5e9062002ed4565b80601f016020809104026020016040519081016040528092919081815260200182805462000f8c9062002ed4565b801562000fdd5780601f1062000fb15761010080835404028352916020019162000fdd565b820191906000526020600020905b81548152906001019060200180831162000fbf57829003601f168201915b5050505050905085565b3360008181526008602052604081205490916001600160a01b0390911614620010455760405162461bcd60e51b815260206004820152600f60248201526e2737ba1030b71037b832b930ba37b960891b604482015260640162000853565b6007546001600160a01b038381169116146200109b5760405162461bcd60e51b81526020600482015260146024820152730c2c8c8e4cae6e6cae640c8dedce840dac2e8c6d60631b604482015260640162000853565b600082604051620010ac9062002689565b6001600160a01b039091168152602001604051809103906000f080158015620010d9573d6000803e3d6000fd5b506005805460018181019092557f036b6384b5eca791c62761152d0c79bb0604c104a5fb6f4eb0703f3154bb3db00180546001600160a01b0384166001600160a01b0319918216811790925533600090815260086020526040902090920180549092161790559392505050565b60408051808201909152606080825260208201526001600160a01b0382166000908152601160205260409081902081518083019092528054829082906200118d9062002ed4565b80601f0160208091040260200160405190810160405280929190818152602001828054620011bb9062002ed4565b80156200120c5780601f10620011e0576101008083540402835291602001916200120c565b820191906000526020600020905b815481529060010190602001808311620011ee57829003601f168201915b50505050508152602001600182018054620012279062002ed4565b80601f0160208091040260200160405190810160405280929190818152602001828054620012559062002ed4565b8015620012a65780601f106200127a57610100808354040283529160200191620012a6565b820191906000526020600020905b8154815290600101906020018083116200128857829003601f168201915b5050505050815250509050919050565b336000818152600b60205260409020600101546001600160a01b031614620012f25760405162461bcd60e51b8152600401620008539062002f11565b336000818152600c60205260409020546001600160a01b0316146200131657600080fd5b6001600160a01b0316600052600c602052565b336000818152600860205260409020546001600160a01b03161415620013925760405162461bcd60e51b815260206004820152601860248201527f4164647265737320616c7265616479206f70657261746f720000000000000000604482015260640162000853565b33600081815260086020526040902080546001600160a01b0319169091179055565b336000818152600860205260409020546001600160a01b031614620014135760405162461bcd60e51b815260206004820152601460248201527320b2323932b9b9903737ba1037b832b930ba37b960611b604482015260640162000853565b3360009081526008602052604081206200087c91600290910190620025da565b336000908152600b60209081526040918290206002018054835181840281018401909452808452606093928301828280156200149957602002820191906000526020600020905b81546001600160a01b031681526001909101906020018083116200147a575b5050505050905090565b60128181548110620014b457600080fd5b9060005260206000209060020201600091509050806000018054620014d99062002ed4565b80601f0160208091040260200160405190810160405280929190818152602001828054620015079062002ed4565b8015620015585780601f106200152c5761010080835404028352916020019162001558565b820191906000526020600020905b8154815290600101906020018083116200153a57829003601f168201915b5050505050908060010180546200156f9062002ed4565b80601f01602080910402602001604051908101604052809291908181526020018280546200159d9062002ed4565b8015620015ee5780601f10620015c257610100808354040283529160200191620015ee565b820191906000526020600020905b815481529060010190602001808311620015d057829003601f168201915b5050505050905082565b336000908152600b602090815260409182902060030180548351818402810184019094528084526060939283018282801562001499576020028201919060005260206000209081546001600160a01b031681526001909101906020018083116200147a575050505050905090565b600581815481106200167757600080fd5b6000918252602090912001546001600160a01b0316905081565b60005b8151811015620009a0576012828281518110620016b557620016b562002e8a565b602090810291909101810151825460018101845560009384529282902081518051929460020290910192620016f092849290910190620025fa565b5060208281015180516200170b9260018501920190620025fa565b50505080806200171b9062002eb6565b91505062001694565b336000818152600960205260409020600101546001600160a01b031614620017865760405162461bcd60e51b815260206004820152601460248201527320b2323932b9b9903737ba103637b1b0ba34b7b760611b604482015260640162000853565b60005b33600090815260096020526040902060020154811015620009a05733600090815260096020526040902060020180546001600160a01b038416919083908110620017d757620017d762002e8a565b6000918252602090912001546001600160a01b0316141562001834573360009081526009602052604090206002018054829081106200181a576200181a62002e8a565b600091825260209091200180546001600160a01b03191690555b80620018408162002eb6565b91505062001789565b3360009081526009602090815260409182902060020180548351818402810184019094528084526060939283018282801562001499576020028201919060005260206000209081546001600160a01b031681526001909101906020018083116200147a575050505050905090565b33600090815260086020908152604080832060020180546001810182559084528284200180546001600160a01b0319166001600160a01b0387169081179091559092526009815290516200190e9183910162002f3e565b60408051601f1981840301815282825280516020918201206001600160a01b0386166000908152600983529290922091926200194f92600301910162002f5c565b60408051601f1981840301905252505050565b3360009081526008602090815260409182902060020180548351818402810184019094528084526060939283018282801562001499576020028201919060005260206000209081546001600160a01b031681526001909101906020018083116200147a575050505050905090565b604080518082019091528281526020808201839052601280546001810182556000919091528251805160029092027fbb8a6a4669ba250d26cd7a459eca9d215f8307e33aebe50379bc5a3617ec3444019262001a3292849290910190620025fa565b50602082810151805162001a4d9260018501920190620025fa565b5050505050565b6001600160a01b0387166000908152600c60205260409020548790600160a01b900460ff16151560011462001a8857600080fd5b3483101562001a9657600080fd5b6040805160a0810182526001600160a01b038b8116825260208083018b81529383018a90526060830189905260808301889052600e805460018101825560009190915283517fbb7b4a454dc3493923482f07822329ed19e8244eff582cc204f8554c3620c3fd600590920291820180546001600160a01b03191691909416178355935180519394929362001b52937fbb7b4a454dc3493923482f07822329ed19e8244eff582cc204f8554c3620c3fe01929190910190620025fa565b506040820151805162001b70916002840191602090910190620025fa565b506060820151805162001b8e916003840191602090910190620025fa565b506080820151805162001bac916004840191602090910190620025fa565b50505060008060009054906101000a90046001600160a01b03166001600160a01b031663f7fb07b06040518163ffffffff1660e01b8152600401602060405180830381865afa15801562001c04573d6000803e3d6000fd5b505050506040513d601f19601f8201168201806040525081019062001c2a919062003000565b905062001c4b62001c448267016345785d8a0000620023f4565b346200245f565b925062001c5883620024ed565b83341462001c6557600080fd5b6040516001600160a01b038b16903480156108fc02916000818181858888f1935050505015801562001c9b573d6000803e3d6000fd5b5050505050505050505050565b336000818152600b60205260409020600101546001600160a01b03161462001ce45760405162461bcd60e51b8152600401620008539062002f11565b60005b336000908152600b6020526040902060030154811015620009a05781818151811062001d175762001d1762002e8a565b60200260200101516001600160a01b0316600b6000336001600160a01b03166001600160a01b03168152602001908152602001600020600301828154811062001d645762001d6462002e8a565b6000918252602090912001546001600160a01b0316141562001dc757336000908152600b602052604081206003018054600c9291908490811062001dac5762001dac62002e8a565b600091825260209182902001546001600160a01b0316825201525b8062001dd38162002eb6565b91505062001ce7565b600a818154811062001ded57600080fd5b60009182526020909120600490910201805460018201546003830180546001600160a01b03938416955092909116929162001e289062002ed4565b80601f016020809104026020016040519081016040528092919081815260200182805462001e569062002ed4565b801562001ea75780601f1062001e7b5761010080835404028352916020019162001ea7565b820191906000526020600020905b81548152906001019060200180831162001e8957829003601f168201915b5050505050905083565b6001600160a01b03811660009081526009602090815260409182902060020180548351818402810184019094528084526060939283018282801562001f2057602002820191906000526020600020905b81546001600160a01b0316815260019091019060200180831162001f01575b50505050509050919050565b336000818152600b60205260409020600101546001600160a01b0316141562001f9257336000908152600b60209081526040822060020180546001810182559083529082200180546001600160a01b0319166001600160a01b0393909316928317905552565b336000908152600960209081526040822060020180546001810182559083528183200180546001600160a01b0319166001600160a01b038516908117909155909152600b90525b50565b336000818152600b60205260409020600101546001600160a01b031614620020185760405162461bcd60e51b8152600401620008539062002f11565b336000908152600b602052604081206200087c91600390910190620025da565b6001600160a01b038181166000908152600b60205260409020546060911633146200206257600080fd5b6001600160a01b0382166000908152600b60209081526040918290206003018054835181840281018401909452808452909183018282801562001f20576020028201919060005260206000209081546001600160a01b0316815260019091019060200180831162001f015750505050509050919050565b336000818152600b60205260409020600101546001600160a01b031614620021155760405162461bcd60e51b8152600401620008539062002f11565b60005b336000908152600b6020526040902060030154811015620009a057336000908152600b6020526040902060030180546001600160a01b03841691908390811062002166576200216662002e8a565b6000918252602090912001546001600160a01b03161415620021c357336000908152600b60205260409020600301805482908110620021a957620021a962002e8a565b600091825260209091200180546001600160a01b03191690555b80620021cf8162002eb6565b91505062002118565b6009602052600090815260409020805460018201546003830180546001600160a01b0393841694929093169262001e289062002ed4565b336000818152600b60205260409020600101546001600160a01b0316146200224b5760405162461bcd60e51b8152600401620008539062002f11565b60005b336000908152600b6020526040902060030154811015620009a0578181815181106200227e576200227e62002e8a565b60200260200101516001600160a01b0316600b6000336001600160a01b03166001600160a01b031681526020019081526020016000206003018281548110620022cb57620022cb62002e8a565b6000918252602090912001546001600160a01b031614156200232e57336000908152600b602052604081206003018054600c9291908490811062002313576200231362002e8a565b600091825260209182902001546001600160a01b0316825201525b806200233a8162002eb6565b9150506200224e565b6000546040805163ad9b44cd60e01b8152905183926001600160a01b03169163ad9b44cd9160048083019260209291908290030181865afa1580156200238d573d6000803e3d6000fd5b505050506040513d601f19601f82011682018060405250810190620023b391906200301a565b6001600160a01b0316816001600160a01b031614620023d157600080fd5b50600780546001600160a01b0319166001600160a01b0392909216919091179055565b6000808211620024475760405162461bcd60e51b815260206004820152601a60248201527f536166654d6174683a206469766973696f6e206279207a65726f000000000000604482015260640162000853565b60006200245583856200303a565b9150505b92915050565b600082620024705750600062002459565b60006200247e83856200305d565b9050826200248d85836200303a565b14620024e65760405162461bcd60e51b815260206004820152602160248201527f536166654d6174683a206d756c7469706c69636174696f6e206f766572666c6f6044820152607760f81b606482015260840162000853565b9392505050565b600054604080516338b39d2960e01b815290516001600160a01b039092169163a9059cbb9183916338b39d29916004808201926020929091908290030181865afa15801562002540573d6000803e3d6000fd5b505050506040513d601f19601f820116820180604052508101906200256691906200301a565b6040516001600160e01b031960e084901b1681526001600160a01b039091166004820152602481018490526044016020604051808303816000875af1158015620025b4573d6000803e3d6000fd5b505050506040513d601f19601f82011682018060405250810190620009a091906200307f565b508054600082559060005260206000209081019062001fd9919062002697565b828054620026089062002ed4565b90600052602060002090601f0160209004810192826200262c576000855562002677565b82601f106200264757805160ff191683800117855562002677565b8280016001018555821562002677579182015b82811115620026775782518255916020019190600101906200265a565b506200268592915062002697565b5090565b6118d080620030a483390190565b5b8082111562002685576000815560010162002698565b6001600160a01b038116811462001fd957600080fd5b8035620026d181620026ae565b919050565b600060208284031215620026e957600080fd5b8135620024e681620026ae565b6000602082840312156200270957600080fd5b5035919050565b60005b838110156200272d57818101518382015260200162002713565b838111156200273d576000848401525b50505050565b600081518084526200275d81602086016020860162002710565b601f01601f19169290920160200192915050565b6001600160a01b038b811682528a8116602083015261014060408301819052600091620027a18483018d62002743565b91508382036060850152620027b7828c62002743565b91508382036080850152620027cd828b62002743565b98151560a085015296151560c0840152505060e08101939093529216610100820152610120015295945050505050565b6001600160a01b03868116825285151560208301528416604082015260a060608201819052600090620028339083018562002743565b90508260808301529695505050505050565b634e487b7160e01b600052604160045260246000fd5b6040805190810167ffffffffffffffff8111828210171562002881576200288162002845565b60405290565b604051601f8201601f1916810167ffffffffffffffff81118282101715620028b357620028b362002845565b604052919050565b600082601f830112620028cd57600080fd5b813567ffffffffffffffff811115620028ea57620028ea62002845565b620028ff601f8201601f191660200162002887565b8181528460208386010111156200291557600080fd5b816020850160208301376000918101602001919091529392505050565b6000806000606084860312156200294857600080fd5b83356200295581620026ae565b9250602084013567ffffffffffffffff8111156200297257600080fd5b6200298086828701620028bb565b925050604084013590509250925092565b6001600160a01b038616815260a060208201819052600090620029b79083018762002743565b8281036040840152620029cb818762002743565b90508281036060840152620029e1818662002743565b90508281036080840152620029f7818562002743565b98975050505050505050565b60208152600082516040602084015262002a21606084018262002743565b90506020840151601f1984830301604085015262002a40828262002743565b95945050505050565b6020808252825182820181905260009190848201906040850190845b8181101562002a8c5783516001600160a01b03168352928401929184019160010162002a65565b50909695505050505050565b60408152600062002aad604083018562002743565b828103602084015262002a40818562002743565b600067ffffffffffffffff82111562002ade5762002ade62002845565b5060051b60200190565b6000602080838503121562002afc57600080fd5b823567ffffffffffffffff8082111562002b1557600080fd5b818501915085601f83011262002b2a57600080fd5b813562002b4162002b3b8262002ac1565b62002887565b81815260059190911b8301840190848101908883111562002b6157600080fd5b8585015b8381101562002c005780358581111562002b7f5760008081fd5b86016040818c03601f190181131562002b985760008081fd5b62002ba26200285b565b898301358881111562002bb55760008081fd5b62002bc58e8c83870101620028bb565b82525090820135908782111562002bdc5760008081fd5b62002bec8d8b84860101620028bb565b818b01528552505091860191860162002b65565b5098975050505050505050565b6000806040838503121562002c2157600080fd5b823562002c2e81620026ae565b9150602083013567ffffffffffffffff81111562002c4b57600080fd5b62002c5985828601620028bb565b9150509250929050565b6000806040838503121562002c7757600080fd5b823567ffffffffffffffff8082111562002c9057600080fd5b62002c9e86838701620028bb565b9350602085013591508082111562002cb557600080fd5b5062002c5985828601620028bb565b600080600080600080600080610100898b03121562002ce257600080fd5b62002ced89620026c4565b975062002cfd60208a01620026c4565b9650604089013567ffffffffffffffff8082111562002d1b57600080fd5b62002d298c838d01620028bb565b975060608b013591508082111562002d4057600080fd5b62002d4e8c838d01620028bb565b965060808b013591508082111562002d6557600080fd5b62002d738c838d01620028bb565b955060a08b013591508082111562002d8a57600080fd5b5062002d998b828c01620028bb565b93505060c0890135915060e089013590509295985092959890939650565b6000602080838503121562002dcb57600080fd5b823567ffffffffffffffff81111562002de357600080fd5b8301601f8101851362002df557600080fd5b803562002e0662002b3b8262002ac1565b81815260059190911b8201830190838101908783111562002e2657600080fd5b928401925b8284101562002e5157833562002e4181620026ae565b8252928401929084019062002e2b565b979650505050505050565b6001600160a01b0384811682528316602082015260606040820181905260009062002a409083018462002743565b634e487b7160e01b600052603260045260246000fd5b634e487b7160e01b600052601160045260246000fd5b600060001982141562002ecd5762002ecd62002ea0565b5060010190565b600181811c9082168062002ee957607f821691505b6020821081141562002f0b57634e487b7160e01b600052602260045260246000fd5b50919050565b60208082526013908201527220b2323932b9b9903737ba1036b0b730b3b2b960691b604082015260600190565b6000825162002f5281846020870162002710565b9190910192915050565b600080835481600182811c91508083168062002f7957607f831692505b602080841082141562002f9a57634e487b7160e01b86526022600452602486fd5b81801562002fb1576001811462002fc35762002ff2565b60ff1986168952848901965062002ff2565b60008a81526020902060005b8681101562002fea5781548b82015290850190830162002fcf565b505084890196505b509498975050505050505050565b6000602082840312156200301357600080fd5b5051919050565b6000602082840312156200302d57600080fd5b8151620024e681620026ae565b6000826200305857634e487b7160e01b600052601260045260246000fd5b500490565b60008160001904831182151516156200307a576200307a62002ea0565b500290565b6000602082840312156200309257600080fd5b81518015158114620024e657600080fdfe608060405234801561001057600080fd5b50604051620018d0380380620018d083398101604081905261003191610097565b600280546001600160a01b03199081163317909155600380549091163017905561005a81610060565b506100c7565b6001600160a01b038116331461007557600080fd5b600080546001600160a01b0319166001600160a01b0392909216919091179055565b6000602082840312156100a957600080fd5b81516001600160a01b03811681146100c057600080fd5b9392505050565b6117f980620000d76000396000f3fe6080604052600436106100f35760003560e01c8063a85c38ef1161008a578063e8e0bb5411610059578063e8e0bb5414610365578063eb5c1c901461039d578063f478a0f5146103b0578063fc39e0ed1461051657600080fd5b8063a85c38ef14610246578063afad2e1614610266578063b1b43ae51461032f578063e5892f641461034557600080fd5b80636a42b8f8116100c65780636a42b8f8146101b65780637d645fab146101da578063824c1db5146101f05780638822fb981461021057600080fd5b80630210ba09146100f857806343d726d61461015d57806367e4ac2c14610174578063690e7c0914610196575b600080fd5b34801561010457600080fd5b506101186101133660046112ec565b610529565b604080516001600160a01b0397881681529587166020870152939095169284019290925215156060830152608082015260a081019190915260c0015b60405180910390f35b34801561016957600080fd5b50610172610584565b005b34801561018057600080fd5b506101896105aa565b604051610154919061134e565b3480156101a257600080fd5b506101726101b13660046112ec565b610656565b3480156101c257600080fd5b506101cc60015481565b604051908152602001610154565b3480156101e657600080fd5b506101cc61064081565b3480156101fc57600080fd5b5061017261020b3660046113b8565b61072e565b34801561021c57600080fd5b5061023061022b3660046113eb565b6109ae565b6040516101549a9998979695949392919061140d565b34801561025257600080fd5b506102306102613660046112ec565b610a99565b34801561027257600080fd5b506103226102813660046113eb565b6040805160c081018252600080825260208201819052918101829052606081018290526080810182905260a0810191909152506001600160a01b03908116600090815260046020818152604092839020835160c0810185528154861681526001820154861692810192909252600281015494851693820193909352600160a01b90930460ff161515606084015260038201546080840152015460a082015290565b60405161015491906114bd565b34801561033b57600080fd5b506101cc61032081565b34801561035157600080fd5b506101726103603660046113b8565b610afd565b34801561037157600080fd5b50600054610385906001600160a01b031681565b6040516001600160a01b039091168152602001610154565b6101726103ab3660046114d1565b610c90565b3480156103bc57600080fd5b506101726103cb36600461151c565b6040805160c0810182526001600160a01b03948516815233602082018181529282019081526001606083018181526080840196875260a0840195865260058054928301815560008190529351919093027f036b6384b5eca791c62761152d0c79bb0604c104a5fb6f4eb0703f3154bb3db0810180549289166001600160a01b031993841617905593517f036b6384b5eca791c62761152d0c79bb0604c104a5fb6f4eb0703f3154bb3db18501805491891691909216179055517f036b6384b5eca791c62761152d0c79bb0604c104a5fb6f4eb0703f3154bb3db28301805492511515600160a01b026001600160a81b031990931691909616171790935590517f036b6384b5eca791c62761152d0c79bb0604c104a5fb6f4eb0703f3154bb3db3830155517f036b6384b5eca791c62761152d0c79bb0604c104a5fb6f4eb0703f3154bb3db490910155565b610172610524366004611606565b610f33565b6005818154811061053957600080fd5b6000918252602090912060059091020180546001820154600283015460038401546004909401546001600160a01b0393841695509183169392811692600160a01b90910460ff169186565b6002546001600160a01b0316331461059b57600080fd5b6002805460ff60a01b19169055565b60606005805480602002602001604051908101604052809291908181526020016000905b8282101561064d5760008481526020908190206040805160c0810182526005860290920180546001600160a01b039081168452600180830154821685870152600283015491821693850193909352600160a01b900460ff1615156060840152600381015460808401526004015460a083015290835290920191016105ce565b50505050905090565b8061032081116106ad5760405162461bcd60e51b815260206004820152601860248201527f54696d6520706572696f6420697320746f6f2073686f7274000000000000000060448201526064015b60405180910390fd5b61064081106106fe5760405162461bcd60e51b815260206004820152601b60248201527f45786365656473206d6178696d756d2074696d6520706572696f64000000000060448201526064016106a4565b6002546001600160a01b0316331461071557600080fd5b506001556002805460ff60a01b1916600160a01b179055565b6002546001600160a01b0316331461074557600080fd5b600254600160a01b900460ff16151560011461076057600080fd5b6001600160a01b038216600090815260076020526040902060080154829043106107cc5760405162461bcd60e51b815260206004820152601960248201527f4f72646572206973206e6f206c6f6e676572206163746976650000000000000060448201526064016106a4565b600080546001600160a01b038581168084526007602052604093849020600490810154945163a9059cbb60e01b8152908101919091526024810193909352169063a9059cbb906044016020604051808303816000875af1158015610834573d6000803e3d6000fd5b505050506040513d601f19601f820116820180604052508101906108589190611721565b5061dead6001600160a01b0383161461091d576001600160a01b038083166000818152600460205260409020549091161461091d57600080546001600160a01b0385811683526007602052604092839020600490810154935163a9059cbb60e01b8152868316918101919091526024810193909352169063a9059cbb906044016020604051808303816000875af11580156108f7573d6000803e3d6000fd5b505050506040513d601f19601f8201168201806040525081019061091b9190611721565b505b6001600160a01b038316600090815260076020526040812080546001600160a01b03199081168255600182018054821690556002820180549091169055906109686003830182611182565b60006004830181905560058301805460ff1916905561098b9060068401906111a3565b506000600782018190556008820181905560098201819055600a90910155505050565b6007602052600090815260409020805460018201546002830154600484015460058501546006860180546001600160a01b03968716979587169690941694929360ff90921692916109fe90611743565b80601f0160208091040260200160405190810160405280929190818152602001828054610a2a90611743565b8015610a775780601f10610a4c57610100808354040283529160200191610a77565b820191906000526020600020905b815481529060010190602001808311610a5a57829003601f168201915b50505050509080600701549080600801549080600901549080600a015490508a565b60068181548110610aa957600080fd5b60009182526020909120600b90910201805460018201546002830154600484015460058501546006860180546001600160a01b039687169850948616969590931694919360ff90911692906109fe90611743565b6002546001600160a01b03163314610b1457600080fd5b6001600160a01b038083166000908152600760205260408120600a81015491546004909101549192169063a9059cbb908490610b51908590611794565b6040516001600160e01b031960e085901b1681526001600160a01b03909216600483015260248201526044016020604051808303816000875af1158015610b9c573d6000803e3d6000fd5b505050506040513d601f19601f82011682018060405250810190610bc09190611721565b50600080546002546001600160a01b0386811684526007602052604093849020600490810154945163a9059cbb60e01b815292821690830152602482019390935291169063a9059cbb906044016020604051808303816000875af1158015610c2c573d6000803e3d6000fd5b505050506040513d601f19601f82011682018060405250810190610c509190611721565b506040516001600160a01b038084169133918616907f1325fab82fb821b9caa564d404c04fa55cb4084c5ab9dca2b0c19ca3b2eca45290600090a4505050565b600254600160a01b900460ff161515600114610cab57600080fd5b6001600160a01b03841660009081526007602052604090206008015461012c90610cd590436117ac565b11610d305760405162461bcd60e51b815260206004820152602560248201527f4e6f7420656e6f7567682074696d6520746f206d616b6520746869732064656c604482015264697665727960d81b60648201526084016106a4565b6001600160a01b038216331480610d5457506002546001600160a01b038481169116145b610d5d57600080fd5b6001600160a01b0380841660009081526004602052604090205483821691161415610e09576001600160a01b038481166000818152600760209081526040808320600280820180546001600160a01b0319168a89169081179091559154905487168552600480855294839020909401549151918252949290921692917ff8da7defa11046a6aa94f9af2eb365ed7db214c053312bf359b40f8d5f7c3060910160405180910390a4610f2d565b6001600160a01b0384166000908152600760205260409020600401543414610e3057600080fd5b60005460035460405163a9059cbb60e01b81526001600160a01b0391821660048201526024810184905291169063a9059cbb906044016020604051808303816000875af1158015610e85573d6000803e3d6000fd5b505050506040513d601f19601f82011682018060405250810190610ea99190611721565b506001600160a01b038481166000818152600760209081526040808320600280820180546001600160a01b0319168a89169081179091559154905487168552600480855294839020909401549151918252949290921692917ff8da7defa11046a6aa94f9af2eb365ed7db214c053312bf359b40f8d5f7c3060910160405180910390a45b50505050565b600254600160a01b900460ff161515600114610f4e57600080fd5b813411610f5a57600080fd5b6006604051806101600160405280856001600160a01b03168152602001886001600160a01b0316815260200161dead6001600160a01b0316815260200186815260200184815260200160001515815260200187815260200143815260200160015443610fc69190611794565b8152606460208083019190915260006040928301819052845460018082018755958252908290208451600b9092020180546001600160a01b03199081166001600160a01b0393841617825585840151968201805482169784169790971790965592840151600284018054909616911617909355606082015180519293919261105492600385019201906111dd565b506080820151600482015560a082015160058201805460ff191691151591909117905560c0820151805161109291600684019160209091019061123a565b5060e082015160078201556101008201516008820155610120820151600982015561014090910151600a909101556040518181526001600160a01b0384169033907fd98199fce99fc7eec7d11ebed9cb852bb6b4b35b10765e4f09efb7a907cb7d5d9060200160405180910390a360005460035460405163a9059cbb60e01b81526001600160a01b0391821660048201526024810185905291169063a9059cbb906044016020604051808303816000875af1158015611155573d6000803e3d6000fd5b505050506040513d601f19601f820116820180604052508101906111799190611721565b50505050505050565b50805460008255906000526020600020908101906111a091906112ba565b50565b5080546111af90611743565b6000825580601f106111bf575050565b601f0160209004906000526020600020908101906111a091906112d7565b82805482825590600052602060002090810192821561122a579160200282015b8281111561122a578251805161121a91849160209091019061123a565b50916020019190600101906111fd565b506112369291506112ba565b5090565b82805461124690611743565b90600052602060002090601f01602090048101928261126857600085556112ae565b82601f1061128157805160ff19168380011785556112ae565b828001600101855582156112ae579182015b828111156112ae578251825591602001919060010190611293565b506112369291506112d7565b808211156112365760006112ce82826111a3565b506001016112ba565b5b8082111561123657600081556001016112d8565b6000602082840312156112fe57600080fd5b5035919050565b80516001600160a01b039081168352602080830151821690840152604080830151909116908301526060808201511515908301526080808201519083015260a090810151910152565b6020808252825182820181905260009190848201906040850190845b818110156113905761137d838551611305565b9284019260c0929092019160010161136a565b50909695505050505050565b80356001600160a01b03811681146113b357600080fd5b919050565b600080604083850312156113cb57600080fd5b6113d48361139c565b91506113e26020840161139c565b90509250929050565b6000602082840312156113fd57600080fd5b6114068261139c565b9392505050565b600061014060018060a01b03808e1684526020818e1681860152818d1660408601528b60608601528a151560808601528260a0860152895191508183860152600092505b8183101561147057898301810151858401610160015291820191611451565b508082111561148457600061016082860101525b60c0840197909752505060e0810193909352610100830191909152610120820152610160601f909201601f191601019695505050505050565b60c081016114cb8284611305565b92915050565b600080600080608085870312156114e757600080fd5b6114f08561139c565b93506114fe6020860161139c565b925061150c6040860161139c565b9396929550929360600135925050565b60008060006060848603121561153157600080fd5b61153a8461139c565b95602085013595506040909401359392505050565b634e487b7160e01b600052604160045260246000fd5b604051601f8201601f1916810167ffffffffffffffff8111828210171561158e5761158e61154f565b604052919050565b600082601f8301126115a757600080fd5b813567ffffffffffffffff8111156115c1576115c161154f565b6115d4601f8201601f1916602001611565565b8181528460208386010111156115e957600080fd5b816020850160208301376000918101602001919091529392505050565b60008060008060008060c0878903121561161f57600080fd5b6116288761139c565b955060208088013567ffffffffffffffff8082111561164657600080fd5b6116528b838c01611596565b975060408a013591508082111561166857600080fd5b818a0191508a601f83011261167c57600080fd5b81358181111561168e5761168e61154f565b8060051b61169d858201611565565b918252838101850191858101908e8411156116b757600080fd5b86860192505b838310156116f15784833511156116d357600080fd5b6116e28f888535890101611596565b825291860191908601906116bd565b809a50505050505050506117076060880161139c565b92506080870135915060a087013590509295509295509295565b60006020828403121561173357600080fd5b8151801515811461140657600080fd5b600181811c9082168061175757607f821691505b6020821081141561177857634e487b7160e01b600052602260045260246000fd5b50919050565b634e487b7160e01b600052601160045260246000fd5b600082198211156117a7576117a761177e565b500190565b6000828210156117be576117be61177e565b50039056fea264697066735822122020c3a819bc1c7fc9d13c314ac0799cf071b218fd64f336f2d98043da48277dcc64736f6c634300080a0033a2646970667358221220575ceb66d3e88bd77a46dc0db5a1c38e3beab7565c03801b40065d0e672b471564736f6c634300080a0033",
  "immutableReferences": {},
  "source": "// SPDX-License-Identifier: unlicensed\r\npragma solidity 0.8.10;\r\n\r\ncontract SafeMath {\r\n\r\n    function add(uint256 a, uint256 b) internal pure returns (uint256) {\r\n        uint256 c = a + b;\r\n        require(c >= a, \"SafeMath: addition overflow\");\r\n        return c;    }\r\n\r\n    function safeAdd(uint a, uint b) internal pure returns (uint c) {\r\n        c = a + b;\r\n        require(c >= a);\r\n    }\r\n    function safeSub(uint a, uint b) internal pure returns (uint c) {\r\n        require(b <= a);\r\n        c = a - b;\r\n    }\r\n\r\n    function mul(uint256 a, uint256 b) internal pure returns (uint256) {\r\n        if (a == 0) {\r\n            return 0;}\r\n            uint256 c = a * b;\r\n            require(c / a == b, \"SafeMath: multiplication overflow\");\r\n            return c;}\r\n\r\n    function div(uint256 a, uint256 b) internal pure returns (uint256) {\r\n        require(b > 0, \"SafeMath: division by zero\");\r\n        uint256 c = a / b;\r\n        return c;    }\r\n}\r\n\r\n\r\ninterface InterfaceDigi {\r\n    function setCurrentRate(uint _rate) external;\r\n    function getCurrentRate() external view returns (uint);\r\n    function getBurnAddress() external view returns (address);\r\n    function balanceOf(address tokenOwner) external view returns (uint balance);\r\n    function totalSupply() external view returns (uint);\r\n    function transfer(address receiver, uint tokens) external returns (bool success);\r\n    function getDAOAddress() external view returns (address);\r\n    function getDigitradeAddress() external view returns (address);\r\n    function setDigitradeAddress(address _digitrade) external;}\r\n\r\ninterface InterfaceOperator {function transfer(address receiver, uint tokens) external returns (bool success);}\r\n\r\ncontract Operations is SafeMath{\r\n    address digitrade;\r\n    address operator;\r\n    address location;\r\n    address manager;\r\n    address seller;\r\n    OperatorLock[] public oplocks;\r\n    mapping(address => OperatorLock) locks;\r\n    address operatorFactory;\r\n\r\n    struct Operator { address operator; address timeLock; address [] locations;}\r\n    mapping(address => Operator)  public Operators;\r\n\r\n    struct Location {address operator; address location; address [] managers; string position;}\r\n    mapping(address => Location)   public Locations;\r\n    Location[] public locations;\r\n\r\n    struct Manager {address location; address manager; address [] subManagers; address [] sellers;}\r\n    mapping(address => Manager)   public Managers;\r\n\r\n    struct Seller {address manager; bool active; address seller; string seller_name; uint sellerId;}\r\n    mapping(address => Seller )  public Sellers;\r\n\r\n    struct Record {address operator; string items; string sellerId; string customerLocation; string customer;}\r\n    mapping(address => Record) RecordOwners;\r\n    Record[] public records;\r\n\r\n    struct Post {address operator; address sender; string items; string customerLocation; string customer; bool complete; bool accepted; uint time; address asset; uint total;}\r\n    mapping(address => Post) PostOrders;\r\n    Post[] public posts;\r\n\r\n    struct Menu {string item; string price;}\r\n    mapping (address => Menu) LocationMenus;\r\n    Menu[] public menus;\r\n\r\n    modifier onlyNewOperator(){\r\n        require(Operators[msg.sender].operator != msg.sender, 'Address already operator');\r\n        _;\r\n    }\r\n    modifier OperatorAccess(){\r\n        require(msg.sender == Operators[msg.sender].operator, 'Address not operator');\r\n        _;\r\n    }\r\n    modifier LocationAccess(){\r\n        require(msg.sender == Locations[msg.sender].location,'Address not location');\r\n        _;\r\n    }\r\n    modifier ManagerAccess(){\r\n        require(msg.sender == Managers[msg.sender].manager,'Address not manager');\r\n        _;\r\n    }\r\n    modifier ActiveSeller(address _seller){\r\n        require(Sellers[_seller].active == true);\r\n        _;\r\n    }\r\n    constructor(address _digi){\r\n        digitrade = InterfaceDigi(_digi).getDigitradeAddress();\r\n    }\r\n    modifier onlyDAO(address _address){\r\n        require(_address == InterfaceDigi(digitrade).getDAOAddress());\r\n        _;\r\n    }\r\n\r\n    function setOperatorFactory(address _address) public onlyDAO(_address){\r\n        operatorFactory = _address;\r\n    }\r\n    function createOperator() public onlyNewOperator {\r\n        Operators[msg.sender].operator = msg.sender;\r\n\r\n    }\r\n    function createLocation(address _location, string memory _position) public {\r\n        Operators[msg.sender].locations.push(_location);\r\n        Locations[_location].location == _location;\r\n        Locations[_location].operator == msg.sender;\r\n        keccak256(abi.encodePacked(Locations[_location].position)) == keccak256(abi.encodePacked(_position));\r\n    }\r\n    function createManager(address _manager) public {\r\n        if(Managers[msg.sender].manager == msg.sender){\r\n        //Sub-Manager\r\n        Managers[msg.sender].subManagers.push(_manager);\r\n        Managers[_manager].manager == msg.sender;\r\n        Managers[_manager].location == msg.sender;\r\n        }\r\n        else{\r\n        Locations[msg.sender].managers.push(_manager);\r\n        Managers[_manager].manager == _manager;\r\n        Managers[_manager].location == msg.sender;\r\n        }\r\n\r\n    }\r\n    function createSeller(address _seller, string memory _seller_name, uint _sellerId) public {\r\n        Sellers[msg.sender].manager = msg.sender;\r\n        Sellers[msg.sender].active = false;\r\n        Sellers[msg.sender].seller = _seller;\r\n        Sellers[msg.sender].seller_name = _seller_name;\r\n        Sellers[msg.sender].sellerId = _sellerId;\r\n        Managers[msg.sender].sellers.push(_seller);\r\n\r\n    }\r\n    function createMenuItem(string memory _item, string memory _price) public{\r\n        menus.push(Menu({\r\n            item:_item,\r\n            price:_price\r\n        }));\r\n    }\r\n    function createMenu(Menu[] memory _items) public{\r\n        for(uint i = 0; i < _items.length; i++ ){\r\n            menus.push(_items[i]);\r\n        }\r\n    }\r\n    function getLocations() public view returns(address[] memory){\r\n        return Operators[msg.sender].locations;\r\n    }\r\n    function getManagers() public view returns(address[] memory){\r\n        return Locations[msg.sender].managers;\r\n    }\r\n    function getSubManagers() public view returns(address[] memory){\r\n        return Managers[msg.sender].subManagers;\r\n    }\r\n    function getSellers() public view returns(address[] memory){\r\n        return Managers[msg.sender].sellers;\r\n    }\r\n    function getLocationManagers(address _myLocation) public view returns(address[] memory){\r\n        //require(Locations[_myLocation].operator== msg.sender, 'Locations[_myLocation].operator != msg.sender');\r\n        return Locations[_myLocation].managers;\r\n    }\r\n    function getManagersSellers(address _myManager) public view returns(address[] memory){\r\n        require(Managers[_myManager].location == msg.sender);\r\n        return Managers[_myManager].sellers;\r\n    }\r\n    function getMenu(address _manager) public view returns(Menu  memory){\r\n        return LocationMenus[_manager];\r\n    }\r\n    function deleteLocation(address _location) public OperatorAccess{\r\n         for(uint i = 0; i < Operators[msg.sender].locations.length; i++ ){\r\n            if(Operators[msg.sender].locations[i] ==_location){\r\n                delete Operators[msg.sender].locations[i];\r\n            }}\r\n    }\r\n    function deleteManager(address _manager) public LocationAccess{\r\n        for(uint i = 0; i < Locations[msg.sender].managers.length; i++ ){\r\n            if(Locations[msg.sender].managers[i] ==_manager){\r\n                delete Locations[msg.sender].managers[i];\r\n            }}\r\n    }\r\n    function deleteSeller(address _seller) public ManagerAccess{\r\n           for(uint i = 0; i < Managers[msg.sender].sellers.length; i++ ){\r\n            if(Managers[msg.sender].sellers[i] ==_seller){\r\n                delete Managers[msg.sender].sellers[i];\r\n            }}\r\n    }\r\n    function deleteAllLocations() public OperatorAccess{\r\n        delete Operators[msg.sender].locations;\r\n    }\r\n    function deleteAllManagers() public LocationAccess{\r\n        delete Locations[msg.sender].managers;\r\n    }\r\n    function deleteAllSellers() public ManagerAccess{\r\n        delete Managers[msg.sender].sellers;\r\n    }\r\n    function activateSeller(address _seller) public view ManagerAccess{\r\n        require(msg.sender == Sellers[msg.sender].manager);\r\n        Sellers[_seller].active == true;\r\n    }\r\n    function activateSellers(address [] memory _sellers) public view ManagerAccess{\r\n         for (uint i=0; i <Managers[msg.sender].sellers.length; i++){\r\n         if(Managers[msg.sender].sellers[i] ==_sellers[i]){\r\n         Sellers[Managers[msg.sender].sellers[i]].active == true;\r\n         }}\r\n    }\r\n    function deactivateSeller(address _seller) public view ManagerAccess{\r\n        require(msg.sender == Sellers[msg.sender].manager);\r\n        Sellers[_seller].active ==false;\r\n\r\n    }\r\n    function deactivateSellers(address [] memory _sellers) public view ManagerAccess{\r\n        for (uint i=0; i <Managers[msg.sender].sellers.length; i++){\r\n         if(Managers[msg.sender].sellers[i] ==_sellers[i]){\r\n         Sellers[Managers[msg.sender].sellers[i]].active == false;\r\n         }}\r\n    }\r\n    function addSale(\r\n        address payable _operator,\r\n        address _seller,\r\n        string memory _items,\r\n        string memory _sellerId,\r\n        string memory _customerLocation,\r\n        string memory _customer,\r\n        uint itemTotal,\r\n        uint _burnAmount\r\n        ) payable public ActiveSeller(_seller){\r\n        require(itemTotal >= msg.value);\r\n        records.push(Record({\r\n            operator: _operator,\r\n            items: _items,\r\n            sellerId: _sellerId,\r\n            customerLocation: _customerLocation,\r\n            customer: _customer\r\n        }));\r\n        uint rate = InterfaceDigi(digitrade).getCurrentRate();\r\n        _burnAmount = SafeMath.mul((div(rate,100000000000000000)),msg.value);\r\n        burn(_burnAmount);\r\n        require(msg.value == itemTotal);\r\n        _operator.transfer(msg.value);\r\n    }\r\n    function burn(uint256 _value) internal {\r\n        InterfaceDigi(digitrade).transfer(InterfaceDigi(digitrade).getBurnAddress(),_value);\r\n    }\r\n    function createOpTimeLock(address _factory) public returns (address Addres)  {\r\n        require(msg.sender == Operators[msg.sender].operator, \"Not an operator\");\r\n        require(_factory == operatorFactory, \"addresses dont match\");\r\n        //locks[msg.sender] = new OperatorLock(operatorFactory);\r\n        OperatorLock newContract = new OperatorLock(_factory);\r\n        oplocks.push(newContract);\r\n        Addres = address(newContract);\r\n        Operators[msg.sender].timeLock = Addres;\r\n        return Addres;\r\n    }\r\n    function getOperatorLockContract(address _operator) public view returns(address) {\r\n        return Operators[_operator].timeLock;\r\n    }\r\n\r\n}\r\n\r\ncontract OperatorLock {\r\n        address public  operatorContract;\r\n        //Don't forget to secure strings related to personal data.\r\n        uint public constant MINIMUM_DELAY = 800;//2 hr blocktime\r\n        uint public constant MAXIMUM_DELAY = 1600;\r\n        uint public delay;\r\n        address private _owner;\r\n        bool status;\r\n        event requestOrder(address indexed customer, address indexed seller, uint region);\r\n        event acceptedOrder(address indexed customer, address indexed seller,address indexed driver, uint region);\r\n        event completedOrder(address indexed customer, address indexed seller,address indexed driver);\r\n        address timeLockContract;\r\n        struct openOrders {\r\n            address location;\r\n            address customer;\r\n            address driver;\r\n            string [] items;\r\n            uint total;\r\n            bool accepted;\r\n            string cLocation;\r\n            uint start;\r\n            uint expires;\r\n            uint delayBlocks;\r\n            uint driverPayment;\r\n        }\r\n\r\n    struct Asset {address asset; address location; address verifier; bool verified; uint expiration; uint region;}\r\n    mapping(address => Asset) OperatorAssets;\r\n    Asset[] public asset_array;\r\n\r\n    openOrders[] public orders;\r\n    mapping(address => openOrders )  public orderMap;\r\n\r\n    constructor(address _op)  {\r\n       _owner = msg.sender;\r\n       timeLockContract = address(this);\r\n       setOperatorContract(_op);\r\n    }\r\n\r\n    function setOperatorContract(address _operatorContract) internal{\r\n        require(_operatorContract == msg.sender);\r\n        operatorContract = _operatorContract;\r\n    }\r\n\r\n    modifier VerifiedAsset(address _asset){\r\n        require(msg.sender == OperatorAssets[_asset].asset);\r\n        _;\r\n    }\r\n\r\n    modifier delayBlocks(uint number){\r\n        require(number > MINIMUM_DELAY, \"Time period is too short\");\r\n        require(number < MAXIMUM_DELAY, \"Exceeds maximum time period\");\r\n        _;\r\n    }\r\n\r\n    modifier activeOrder(address _customer){\r\n        require(block.number < orderMap[_customer].expires, \"Order is no longer active\");\r\n        _;\r\n\r\n    }\r\n    modifier onlyOwner(){\r\n        require(msg.sender==_owner);\r\n        _;\r\n    }\r\n\r\n    modifier onlyOpen(){\r\n    require(status == true);\r\n    _;\r\n    }\r\n\r\n    function addAsset(address _asset, uint _expiration, uint _region) public{\r\n        Asset memory thisAsset = Asset(_asset, msg.sender, msg.sender, true ,_expiration , _region);\r\n        asset_array.push(thisAsset);\r\n    }\r\n    function getAssetInfo(address _asset) public view returns(Asset memory){\r\n        return OperatorAssets[_asset];\r\n    }\r\n    function getAssets() public view returns(Asset[] memory){\r\n        return asset_array;\r\n    }\r\n    function open(uint _delay) delayBlocks(_delay) public onlyOwner{\r\n        delay = _delay;\r\n        status = true;\r\n    }\r\n\r\n    function request(\r\n        address _customer,\r\n        string memory _customerLocation,\r\n        string [] memory _items,\r\n        address _seller,\r\n        uint _total,\r\n        uint region)\r\n        public payable onlyOpen{\r\n            require(msg.value > _total);\r\n            orders.push(openOrders({\r\n            location: _seller,\r\n            customer: _customer,\r\n            driver : 0x000000000000000000000000000000000000dEaD,\r\n            items: _items,\r\n            total:_total,\r\n            accepted: false,\r\n            start:block.number,\r\n            expires:block.number + delay,\r\n            cLocation: _customerLocation,\r\n            delayBlocks: 100,\r\n            driverPayment: 0\r\n        }));\r\n\r\n        emit requestOrder(msg.sender,_seller,region);\r\n        InterfaceOperator(operatorContract).transfer(timeLockContract, _total);\r\n    }\r\n\r\n    function accept(address _customer, address _location, address _driver, uint _amount) public payable onlyOpen{\r\n        require((block.number - orderMap[_customer].expires)>300, \"Not enough time to make this delivery\");\r\n        require(_driver == msg.sender || _location == _owner);\r\n        if(_driver == OperatorAssets[_location].asset){\r\n        orderMap[_customer].driver = _driver;\r\n        emit acceptedOrder(_customer, orderMap[_customer].location, _driver, OperatorAssets[_owner].region);\r\n        }\r\n        else{\r\n            require(msg.value == orderMap[_customer].total);\r\n            InterfaceOperator(operatorContract).transfer(timeLockContract,_amount);\r\n            orderMap[_customer].driverPayment == msg.value;\r\n            orderMap[_customer].driver = _driver;\r\n            emit acceptedOrder(_customer, orderMap[_customer].location, _driver, OperatorAssets[_owner].region);\r\n            }\r\n\r\n    }\r\n\r\n    function complete(address _customer, address _driver) public onlyOwner{\r\n        uint driverhold = orderMap[_customer].driverPayment;\r\n        InterfaceOperator(operatorContract).transfer(_driver, (orderMap[_customer].total+driverhold));\r\n        InterfaceOperator(operatorContract).transfer(_owner, orderMap[_customer].total);\r\n        emit completedOrder(_customer, msg.sender, _driver);\r\n    }\r\n\r\n    function cancel(address _customer, address _driver) public onlyOwner onlyOpen activeOrder(_customer){\r\n        InterfaceOperator(operatorContract).transfer(_customer, orderMap[_customer].total);\r\n        if(_driver !=0x000000000000000000000000000000000000dEaD)\r\n        if(_driver != OperatorAssets[_driver].asset)\r\n        InterfaceOperator(operatorContract).transfer(_driver, orderMap[_customer].total);\r\n        delete orderMap[_customer];\r\n    }\r\n\r\n    function close() public onlyOwner{\r\n     status = false;\r\n    }\r\n\r\n\r\n\r\n\r\n}\r\n",
  "sourcePath": "C:\\Users\\Julian Airhawk\\Desktop\\3dao\\Digitrade\\contracts\\Operations.sol",
  "compiler": {
    "name": "solc",
    "version": "0.8.10+commit.fc410830.Emscripten.clang"
  },
  "schemaVersion": "3.4.4",
  "updatedAt": "2022-01-05T20:19:08.013Z",
  "networkType": "ethereum",
  "devdoc": {
    "kind": "dev",
    "methods": {},
    "version": 1
  },
  "userdoc": {
    "kind": "user",
    "methods": {},
    "version": 1
  }
}