{
  "contractName": "OperatorLock",
  "abi": [
    {
      "inputs": [
        {
          "internalType": "address",
          "name": "_op",
          "type": "address"
        }
      ],
      "stateMutability": "nonpayable",
      "type": "constructor"
    },
    {
      "anonymous": false,
      "inputs": [
        {
          "indexed": true,
          "internalType": "address",
          "name": "customer",
          "type": "address"
        },
        {
          "indexed": true,
          "internalType": "address",
          "name": "seller",
          "type": "address"
        },
        {
          "indexed": true,
          "internalType": "address",
          "name": "driver",
          "type": "address"
        },
        {
          "indexed": false,
          "internalType": "uint256",
          "name": "region",
          "type": "uint256"
        }
      ],
      "name": "acceptedOrder",
      "type": "event"
    },
    {
      "anonymous": false,
      "inputs": [
        {
          "indexed": true,
          "internalType": "address",
          "name": "customer",
          "type": "address"
        },
        {
          "indexed": true,
          "internalType": "address",
          "name": "seller",
          "type": "address"
        },
        {
          "indexed": true,
          "internalType": "address",
          "name": "driver",
          "type": "address"
        }
      ],
      "name": "completedOrder",
      "type": "event"
    },
    {
      "anonymous": false,
      "inputs": [
        {
          "indexed": true,
          "internalType": "address",
          "name": "customer",
          "type": "address"
        },
        {
          "indexed": true,
          "internalType": "address",
          "name": "seller",
          "type": "address"
        },
        {
          "indexed": false,
          "internalType": "uint256",
          "name": "region",
          "type": "uint256"
        }
      ],
      "name": "requestOrder",
      "type": "event"
    },
    {
      "inputs": [],
      "name": "MAXIMUM_DELAY",
      "outputs": [
        {
          "internalType": "uint256",
          "name": "",
          "type": "uint256"
        }
      ],
      "stateMutability": "view",
      "type": "function"
    },
    {
      "inputs": [],
      "name": "MINIMUM_DELAY",
      "outputs": [
        {
          "internalType": "uint256",
          "name": "",
          "type": "uint256"
        }
      ],
      "stateMutability": "view",
      "type": "function"
    },
    {
      "inputs": [
        {
          "internalType": "uint256",
          "name": "",
          "type": "uint256"
        }
      ],
      "name": "asset_array",
      "outputs": [
        {
          "internalType": "address",
          "name": "asset",
          "type": "address"
        },
        {
          "internalType": "address",
          "name": "location",
          "type": "address"
        },
        {
          "internalType": "address",
          "name": "verifier",
          "type": "address"
        },
        {
          "internalType": "bool",
          "name": "verified",
          "type": "bool"
        },
        {
          "internalType": "uint256",
          "name": "expiration",
          "type": "uint256"
        },
        {
          "internalType": "uint256",
          "name": "region",
          "type": "uint256"
        }
      ],
      "stateMutability": "view",
      "type": "function"
    },
    {
      "inputs": [],
      "name": "delay",
      "outputs": [
        {
          "internalType": "uint256",
          "name": "",
          "type": "uint256"
        }
      ],
      "stateMutability": "view",
      "type": "function"
    },
    {
      "inputs": [],
      "name": "operatorContract",
      "outputs": [
        {
          "internalType": "address",
          "name": "",
          "type": "address"
        }
      ],
      "stateMutability": "view",
      "type": "function"
    },
    {
      "inputs": [
        {
          "internalType": "address",
          "name": "",
          "type": "address"
        }
      ],
      "name": "orderMap",
      "outputs": [
        {
          "internalType": "address",
          "name": "location",
          "type": "address"
        },
        {
          "internalType": "address",
          "name": "customer",
          "type": "address"
        },
        {
          "internalType": "address",
          "name": "driver",
          "type": "address"
        },
        {
          "internalType": "uint256",
          "name": "total",
          "type": "uint256"
        },
        {
          "internalType": "bool",
          "name": "accepted",
          "type": "bool"
        },
        {
          "internalType": "string",
          "name": "cLocation",
          "type": "string"
        },
        {
          "internalType": "uint256",
          "name": "start",
          "type": "uint256"
        },
        {
          "internalType": "uint256",
          "name": "expires",
          "type": "uint256"
        },
        {
          "internalType": "uint256",
          "name": "delayBlocks",
          "type": "uint256"
        },
        {
          "internalType": "uint256",
          "name": "driverPayment",
          "type": "uint256"
        }
      ],
      "stateMutability": "view",
      "type": "function"
    },
    {
      "inputs": [
        {
          "internalType": "uint256",
          "name": "",
          "type": "uint256"
        }
      ],
      "name": "orders",
      "outputs": [
        {
          "internalType": "address",
          "name": "location",
          "type": "address"
        },
        {
          "internalType": "address",
          "name": "customer",
          "type": "address"
        },
        {
          "internalType": "address",
          "name": "driver",
          "type": "address"
        },
        {
          "internalType": "uint256",
          "name": "total",
          "type": "uint256"
        },
        {
          "internalType": "bool",
          "name": "accepted",
          "type": "bool"
        },
        {
          "internalType": "string",
          "name": "cLocation",
          "type": "string"
        },
        {
          "internalType": "uint256",
          "name": "start",
          "type": "uint256"
        },
        {
          "internalType": "uint256",
          "name": "expires",
          "type": "uint256"
        },
        {
          "internalType": "uint256",
          "name": "delayBlocks",
          "type": "uint256"
        },
        {
          "internalType": "uint256",
          "name": "driverPayment",
          "type": "uint256"
        }
      ],
      "stateMutability": "view",
      "type": "function"
    },
    {
      "inputs": [
        {
          "internalType": "address",
          "name": "_asset",
          "type": "address"
        },
        {
          "internalType": "uint256",
          "name": "_expiration",
          "type": "uint256"
        },
        {
          "internalType": "uint256",
          "name": "_region",
          "type": "uint256"
        }
      ],
      "name": "addAsset",
      "outputs": [],
      "stateMutability": "nonpayable",
      "type": "function"
    },
    {
      "inputs": [
        {
          "internalType": "address",
          "name": "_asset",
          "type": "address"
        }
      ],
      "name": "getAssetInfo",
      "outputs": [
        {
          "components": [
            {
              "internalType": "address",
              "name": "asset",
              "type": "address"
            },
            {
              "internalType": "address",
              "name": "location",
              "type": "address"
            },
            {
              "internalType": "address",
              "name": "verifier",
              "type": "address"
            },
            {
              "internalType": "bool",
              "name": "verified",
              "type": "bool"
            },
            {
              "internalType": "uint256",
              "name": "expiration",
              "type": "uint256"
            },
            {
              "internalType": "uint256",
              "name": "region",
              "type": "uint256"
            }
          ],
          "internalType": "struct OperatorLock.Asset",
          "name": "",
          "type": "tuple"
        }
      ],
      "stateMutability": "view",
      "type": "function"
    },
    {
      "inputs": [],
      "name": "getAssets",
      "outputs": [
        {
          "components": [
            {
              "internalType": "address",
              "name": "asset",
              "type": "address"
            },
            {
              "internalType": "address",
              "name": "location",
              "type": "address"
            },
            {
              "internalType": "address",
              "name": "verifier",
              "type": "address"
            },
            {
              "internalType": "bool",
              "name": "verified",
              "type": "bool"
            },
            {
              "internalType": "uint256",
              "name": "expiration",
              "type": "uint256"
            },
            {
              "internalType": "uint256",
              "name": "region",
              "type": "uint256"
            }
          ],
          "internalType": "struct OperatorLock.Asset[]",
          "name": "",
          "type": "tuple[]"
        }
      ],
      "stateMutability": "view",
      "type": "function"
    },
    {
      "inputs": [
        {
          "internalType": "uint256",
          "name": "_delay",
          "type": "uint256"
        }
      ],
      "name": "open",
      "outputs": [],
      "stateMutability": "nonpayable",
      "type": "function"
    },
    {
      "inputs": [
        {
          "internalType": "address",
          "name": "_customer",
          "type": "address"
        },
        {
          "internalType": "string",
          "name": "_customerLocation",
          "type": "string"
        },
        {
          "internalType": "string[]",
          "name": "_items",
          "type": "string[]"
        },
        {
          "internalType": "address",
          "name": "_seller",
          "type": "address"
        },
        {
          "internalType": "uint256",
          "name": "_total",
          "type": "uint256"
        },
        {
          "internalType": "uint256",
          "name": "region",
          "type": "uint256"
        }
      ],
      "name": "request",
      "outputs": [],
      "stateMutability": "payable",
      "type": "function"
    },
    {
      "inputs": [
        {
          "internalType": "address",
          "name": "_customer",
          "type": "address"
        },
        {
          "internalType": "address",
          "name": "_location",
          "type": "address"
        },
        {
          "internalType": "address",
          "name": "_driver",
          "type": "address"
        },
        {
          "internalType": "uint256",
          "name": "_amount",
          "type": "uint256"
        }
      ],
      "name": "accept",
      "outputs": [],
      "stateMutability": "payable",
      "type": "function"
    },
    {
      "inputs": [
        {
          "internalType": "address",
          "name": "_customer",
          "type": "address"
        },
        {
          "internalType": "address",
          "name": "_driver",
          "type": "address"
        }
      ],
      "name": "complete",
      "outputs": [],
      "stateMutability": "nonpayable",
      "type": "function"
    },
    {
      "inputs": [
        {
          "internalType": "address",
          "name": "_customer",
          "type": "address"
        },
        {
          "internalType": "address",
          "name": "_driver",
          "type": "address"
        }
      ],
      "name": "cancel",
      "outputs": [],
      "stateMutability": "nonpayable",
      "type": "function"
    },
    {
      "inputs": [],
      "name": "close",
      "outputs": [],
      "stateMutability": "nonpayable",
      "type": "function"
    }
  ],
  "bytecode": "0x608060405234801561001057600080fd5b50604051620018d0380380620018d083398101604081905261003191610097565b600280546001600160a01b03199081163317909155600380549091163017905561005a81610060565b506100c7565b6001600160a01b038116331461007557600080fd5b600080546001600160a01b0319166001600160a01b0392909216919091179055565b6000602082840312156100a957600080fd5b81516001600160a01b03811681146100c057600080fd5b9392505050565b6117f980620000d76000396000f3fe6080604052600436106100f35760003560e01c8063a85c38ef1161008a578063e8e0bb5411610059578063e8e0bb5414610365578063eb5c1c901461039d578063f478a0f5146103b0578063fc39e0ed1461051657600080fd5b8063a85c38ef14610246578063afad2e1614610266578063b1b43ae51461032f578063e5892f641461034557600080fd5b80636a42b8f8116100c65780636a42b8f8146101b65780637d645fab146101da578063824c1db5146101f05780638822fb981461021057600080fd5b80630210ba09146100f857806343d726d61461015d57806367e4ac2c14610174578063690e7c0914610196575b600080fd5b34801561010457600080fd5b506101186101133660046112ec565b610529565b604080516001600160a01b0397881681529587166020870152939095169284019290925215156060830152608082015260a081019190915260c0015b60405180910390f35b34801561016957600080fd5b50610172610584565b005b34801561018057600080fd5b506101896105aa565b604051610154919061134e565b3480156101a257600080fd5b506101726101b13660046112ec565b610656565b3480156101c257600080fd5b506101cc60015481565b604051908152602001610154565b3480156101e657600080fd5b506101cc61064081565b3480156101fc57600080fd5b5061017261020b3660046113b8565b61072e565b34801561021c57600080fd5b5061023061022b3660046113eb565b6109ae565b6040516101549a9998979695949392919061140d565b34801561025257600080fd5b506102306102613660046112ec565b610a99565b34801561027257600080fd5b506103226102813660046113eb565b6040805160c081018252600080825260208201819052918101829052606081018290526080810182905260a0810191909152506001600160a01b03908116600090815260046020818152604092839020835160c0810185528154861681526001820154861692810192909252600281015494851693820193909352600160a01b90930460ff161515606084015260038201546080840152015460a082015290565b60405161015491906114bd565b34801561033b57600080fd5b506101cc61032081565b34801561035157600080fd5b506101726103603660046113b8565b610afd565b34801561037157600080fd5b50600054610385906001600160a01b031681565b6040516001600160a01b039091168152602001610154565b6101726103ab3660046114d1565b610c90565b3480156103bc57600080fd5b506101726103cb36600461151c565b6040805160c0810182526001600160a01b03948516815233602082018181529282019081526001606083018181526080840196875260a0840195865260058054928301815560008190529351919093027f036b6384b5eca791c62761152d0c79bb0604c104a5fb6f4eb0703f3154bb3db0810180549289166001600160a01b031993841617905593517f036b6384b5eca791c62761152d0c79bb0604c104a5fb6f4eb0703f3154bb3db18501805491891691909216179055517f036b6384b5eca791c62761152d0c79bb0604c104a5fb6f4eb0703f3154bb3db28301805492511515600160a01b026001600160a81b031990931691909616171790935590517f036b6384b5eca791c62761152d0c79bb0604c104a5fb6f4eb0703f3154bb3db3830155517f036b6384b5eca791c62761152d0c79bb0604c104a5fb6f4eb0703f3154bb3db490910155565b610172610524366004611606565b610f33565b6005818154811061053957600080fd5b6000918252602090912060059091020180546001820154600283015460038401546004909401546001600160a01b0393841695509183169392811692600160a01b90910460ff169186565b6002546001600160a01b0316331461059b57600080fd5b6002805460ff60a01b19169055565b60606005805480602002602001604051908101604052809291908181526020016000905b8282101561064d5760008481526020908190206040805160c0810182526005860290920180546001600160a01b039081168452600180830154821685870152600283015491821693850193909352600160a01b900460ff1615156060840152600381015460808401526004015460a083015290835290920191016105ce565b50505050905090565b8061032081116106ad5760405162461bcd60e51b815260206004820152601860248201527f54696d6520706572696f6420697320746f6f2073686f7274000000000000000060448201526064015b60405180910390fd5b61064081106106fe5760405162461bcd60e51b815260206004820152601b60248201527f45786365656473206d6178696d756d2074696d6520706572696f64000000000060448201526064016106a4565b6002546001600160a01b0316331461071557600080fd5b506001556002805460ff60a01b1916600160a01b179055565b6002546001600160a01b0316331461074557600080fd5b600254600160a01b900460ff16151560011461076057600080fd5b6001600160a01b038216600090815260076020526040902060080154829043106107cc5760405162461bcd60e51b815260206004820152601960248201527f4f72646572206973206e6f206c6f6e676572206163746976650000000000000060448201526064016106a4565b600080546001600160a01b038581168084526007602052604093849020600490810154945163a9059cbb60e01b8152908101919091526024810193909352169063a9059cbb906044016020604051808303816000875af1158015610834573d6000803e3d6000fd5b505050506040513d601f19601f820116820180604052508101906108589190611721565b5061dead6001600160a01b0383161461091d576001600160a01b038083166000818152600460205260409020549091161461091d57600080546001600160a01b0385811683526007602052604092839020600490810154935163a9059cbb60e01b8152868316918101919091526024810193909352169063a9059cbb906044016020604051808303816000875af11580156108f7573d6000803e3d6000fd5b505050506040513d601f19601f8201168201806040525081019061091b9190611721565b505b6001600160a01b038316600090815260076020526040812080546001600160a01b03199081168255600182018054821690556002820180549091169055906109686003830182611182565b60006004830181905560058301805460ff1916905561098b9060068401906111a3565b506000600782018190556008820181905560098201819055600a90910155505050565b6007602052600090815260409020805460018201546002830154600484015460058501546006860180546001600160a01b03968716979587169690941694929360ff90921692916109fe90611743565b80601f0160208091040260200160405190810160405280929190818152602001828054610a2a90611743565b8015610a775780601f10610a4c57610100808354040283529160200191610a77565b820191906000526020600020905b815481529060010190602001808311610a5a57829003601f168201915b50505050509080600701549080600801549080600901549080600a015490508a565b60068181548110610aa957600080fd5b60009182526020909120600b90910201805460018201546002830154600484015460058501546006860180546001600160a01b039687169850948616969590931694919360ff90911692906109fe90611743565b6002546001600160a01b03163314610b1457600080fd5b6001600160a01b038083166000908152600760205260408120600a81015491546004909101549192169063a9059cbb908490610b51908590611794565b6040516001600160e01b031960e085901b1681526001600160a01b03909216600483015260248201526044016020604051808303816000875af1158015610b9c573d6000803e3d6000fd5b505050506040513d601f19601f82011682018060405250810190610bc09190611721565b50600080546002546001600160a01b0386811684526007602052604093849020600490810154945163a9059cbb60e01b815292821690830152602482019390935291169063a9059cbb906044016020604051808303816000875af1158015610c2c573d6000803e3d6000fd5b505050506040513d601f19601f82011682018060405250810190610c509190611721565b506040516001600160a01b038084169133918616907f1325fab82fb821b9caa564d404c04fa55cb4084c5ab9dca2b0c19ca3b2eca45290600090a4505050565b600254600160a01b900460ff161515600114610cab57600080fd5b6001600160a01b03841660009081526007602052604090206008015461012c90610cd590436117ac565b11610d305760405162461bcd60e51b815260206004820152602560248201527f4e6f7420656e6f7567682074696d6520746f206d616b6520746869732064656c604482015264697665727960d81b60648201526084016106a4565b6001600160a01b038216331480610d5457506002546001600160a01b038481169116145b610d5d57600080fd5b6001600160a01b0380841660009081526004602052604090205483821691161415610e09576001600160a01b038481166000818152600760209081526040808320600280820180546001600160a01b0319168a89169081179091559154905487168552600480855294839020909401549151918252949290921692917ff8da7defa11046a6aa94f9af2eb365ed7db214c053312bf359b40f8d5f7c3060910160405180910390a4610f2d565b6001600160a01b0384166000908152600760205260409020600401543414610e3057600080fd5b60005460035460405163a9059cbb60e01b81526001600160a01b0391821660048201526024810184905291169063a9059cbb906044016020604051808303816000875af1158015610e85573d6000803e3d6000fd5b505050506040513d601f19601f82011682018060405250810190610ea99190611721565b506001600160a01b038481166000818152600760209081526040808320600280820180546001600160a01b0319168a89169081179091559154905487168552600480855294839020909401549151918252949290921692917ff8da7defa11046a6aa94f9af2eb365ed7db214c053312bf359b40f8d5f7c3060910160405180910390a45b50505050565b600254600160a01b900460ff161515600114610f4e57600080fd5b813411610f5a57600080fd5b6006604051806101600160405280856001600160a01b03168152602001886001600160a01b0316815260200161dead6001600160a01b0316815260200186815260200184815260200160001515815260200187815260200143815260200160015443610fc69190611794565b8152606460208083019190915260006040928301819052845460018082018755958252908290208451600b9092020180546001600160a01b03199081166001600160a01b0393841617825585840151968201805482169784169790971790965592840151600284018054909616911617909355606082015180519293919261105492600385019201906111dd565b506080820151600482015560a082015160058201805460ff191691151591909117905560c0820151805161109291600684019160209091019061123a565b5060e082015160078201556101008201516008820155610120820151600982015561014090910151600a909101556040518181526001600160a01b0384169033907fd98199fce99fc7eec7d11ebed9cb852bb6b4b35b10765e4f09efb7a907cb7d5d9060200160405180910390a360005460035460405163a9059cbb60e01b81526001600160a01b0391821660048201526024810185905291169063a9059cbb906044016020604051808303816000875af1158015611155573d6000803e3d6000fd5b505050506040513d601f19601f820116820180604052508101906111799190611721565b50505050505050565b50805460008255906000526020600020908101906111a091906112ba565b50565b5080546111af90611743565b6000825580601f106111bf575050565b601f0160209004906000526020600020908101906111a091906112d7565b82805482825590600052602060002090810192821561122a579160200282015b8281111561122a578251805161121a91849160209091019061123a565b50916020019190600101906111fd565b506112369291506112ba565b5090565b82805461124690611743565b90600052602060002090601f01602090048101928261126857600085556112ae565b82601f1061128157805160ff19168380011785556112ae565b828001600101855582156112ae579182015b828111156112ae578251825591602001919060010190611293565b506112369291506112d7565b808211156112365760006112ce82826111a3565b506001016112ba565b5b8082111561123657600081556001016112d8565b6000602082840312156112fe57600080fd5b5035919050565b80516001600160a01b039081168352602080830151821690840152604080830151909116908301526060808201511515908301526080808201519083015260a090810151910152565b6020808252825182820181905260009190848201906040850190845b818110156113905761137d838551611305565b9284019260c0929092019160010161136a565b50909695505050505050565b80356001600160a01b03811681146113b357600080fd5b919050565b600080604083850312156113cb57600080fd5b6113d48361139c565b91506113e26020840161139c565b90509250929050565b6000602082840312156113fd57600080fd5b6114068261139c565b9392505050565b600061014060018060a01b03808e1684526020818e1681860152818d1660408601528b60608601528a151560808601528260a0860152895191508183860152600092505b8183101561147057898301810151858401610160015291820191611451565b508082111561148457600061016082860101525b60c0840197909752505060e0810193909352610100830191909152610120820152610160601f909201601f191601019695505050505050565b60c081016114cb8284611305565b92915050565b600080600080608085870312156114e757600080fd5b6114f08561139c565b93506114fe6020860161139c565b925061150c6040860161139c565b9396929550929360600135925050565b60008060006060848603121561153157600080fd5b61153a8461139c565b95602085013595506040909401359392505050565b634e487b7160e01b600052604160045260246000fd5b604051601f8201601f1916810167ffffffffffffffff8111828210171561158e5761158e61154f565b604052919050565b600082601f8301126115a757600080fd5b813567ffffffffffffffff8111156115c1576115c161154f565b6115d4601f8201601f1916602001611565565b8181528460208386010111156115e957600080fd5b816020850160208301376000918101602001919091529392505050565b60008060008060008060c0878903121561161f57600080fd5b6116288761139c565b955060208088013567ffffffffffffffff8082111561164657600080fd5b6116528b838c01611596565b975060408a013591508082111561166857600080fd5b818a0191508a601f83011261167c57600080fd5b81358181111561168e5761168e61154f565b8060051b61169d858201611565565b918252838101850191858101908e8411156116b757600080fd5b86860192505b838310156116f15784833511156116d357600080fd5b6116e28f888535890101611596565b825291860191908601906116bd565b809a50505050505050506117076060880161139c565b92506080870135915060a087013590509295509295509295565b60006020828403121561173357600080fd5b8151801515811461140657600080fd5b600181811c9082168061175757607f821691505b6020821081141561177857634e487b7160e01b600052602260045260246000fd5b50919050565b634e487b7160e01b600052601160045260246000fd5b600082198211156117a7576117a761177e565b500190565b6000828210156117be576117be61177e565b50039056fea264697066735822122020c3a819bc1c7fc9d13c314ac0799cf071b218fd64f336f2d98043da48277dcc64736f6c634300080a0033",
  "immutableReferences": {},
  "source": "// SPDX-License-Identifier: unlicensed\r\npragma solidity 0.8.10;\r\n\r\ncontract SafeMath {\r\n\r\n    function add(uint256 a, uint256 b) internal pure returns (uint256) {\r\n        uint256 c = a + b;\r\n        require(c >= a, \"SafeMath: addition overflow\");\r\n        return c;    }\r\n\r\n    function safeAdd(uint a, uint b) internal pure returns (uint c) {\r\n        c = a + b;\r\n        require(c >= a);\r\n    }\r\n    function safeSub(uint a, uint b) internal pure returns (uint c) {\r\n        require(b <= a);\r\n        c = a - b;\r\n    }\r\n\r\n    function mul(uint256 a, uint256 b) internal pure returns (uint256) {\r\n        if (a == 0) {\r\n            return 0;}\r\n            uint256 c = a * b;\r\n            require(c / a == b, \"SafeMath: multiplication overflow\");\r\n            return c;}\r\n\r\n    function div(uint256 a, uint256 b) internal pure returns (uint256) {\r\n        require(b > 0, \"SafeMath: division by zero\");\r\n        uint256 c = a / b;\r\n        return c;    }\r\n}\r\n\r\n\r\ninterface InterfaceDigi {\r\n    function setCurrentRate(uint _rate) external;\r\n    function getCurrentRate() external view returns (uint);\r\n    function getBurnAddress() external view returns (address);\r\n    function balanceOf(address tokenOwner) external view returns (uint balance);\r\n    function totalSupply() external view returns (uint);\r\n    function transfer(address receiver, uint tokens) external returns (bool success);\r\n    function getDAOAddress() external view returns (address);\r\n    function getDigitradeAddress() external view returns (address);\r\n    function setDigitradeAddress(address _digitrade) external;}\r\n\r\ninterface InterfaceOperator {function transfer(address receiver, uint tokens) external returns (bool success);}\r\n\r\ncontract Operations is SafeMath{\r\n    address digitrade;\r\n    address operator;\r\n    address location;\r\n    address manager;\r\n    address seller;\r\n    OperatorLock[] public oplocks;\r\n    mapping(address => OperatorLock) locks;\r\n    address operatorFactory;\r\n\r\n    struct Operator { address operator; address timeLock; address [] locations;}\r\n    mapping(address => Operator)  public Operators;\r\n\r\n    struct Location {address operator; address location; address [] managers; string position;}\r\n    mapping(address => Location)   public Locations;\r\n    Location[] public locations;\r\n\r\n    struct Manager {address location; address manager; address [] subManagers; address [] sellers;}\r\n    mapping(address => Manager)   public Managers;\r\n\r\n    struct Seller {address manager; bool active; address seller; string seller_name; uint sellerId;}\r\n    mapping(address => Seller )  public Sellers;\r\n\r\n    struct Record {address operator; string items; string sellerId; string customerLocation; string customer;}\r\n    mapping(address => Record) RecordOwners;\r\n    Record[] public records;\r\n\r\n    struct Post {address operator; address sender; string items; string customerLocation; string customer; bool complete; bool accepted; uint time; address asset; uint total;}\r\n    mapping(address => Post) PostOrders;\r\n    Post[] public posts;\r\n\r\n    struct Menu {string item; string price;}\r\n    mapping (address => Menu) LocationMenus;\r\n    Menu[] public menus;\r\n\r\n    modifier onlyNewOperator(){\r\n        require(Operators[msg.sender].operator != msg.sender, 'Address already operator');\r\n        _;\r\n    }\r\n    modifier OperatorAccess(){\r\n        require(msg.sender == Operators[msg.sender].operator, 'Address not operator');\r\n        _;\r\n    }\r\n    modifier LocationAccess(){\r\n        require(msg.sender == Locations[msg.sender].location,'Address not location');\r\n        _;\r\n    }\r\n    modifier ManagerAccess(){\r\n        require(msg.sender == Managers[msg.sender].manager,'Address not manager');\r\n        _;\r\n    }\r\n    modifier ActiveSeller(address _seller){\r\n        require(Sellers[_seller].active == true);\r\n        _;\r\n    }\r\n    constructor(address _digi){\r\n        digitrade = InterfaceDigi(_digi).getDigitradeAddress();\r\n    }\r\n    modifier onlyDAO(address _address){\r\n        require(_address == InterfaceDigi(digitrade).getDAOAddress());\r\n        _;\r\n    }\r\n\r\n    function setOperatorFactory(address _address) public onlyDAO(_address){\r\n        operatorFactory = _address;\r\n    }\r\n    function createOperator() public onlyNewOperator {\r\n        Operators[msg.sender].operator = msg.sender;\r\n\r\n    }\r\n    function createLocation(address _location, string memory _position) public {\r\n        Operators[msg.sender].locations.push(_location);\r\n        Locations[_location].location == _location;\r\n        Locations[_location].operator == msg.sender;\r\n        keccak256(abi.encodePacked(Locations[_location].position)) == keccak256(abi.encodePacked(_position));\r\n    }\r\n    function createManager(address _manager) public {\r\n        if(Managers[msg.sender].manager == msg.sender){\r\n        //Sub-Manager\r\n        Managers[msg.sender].subManagers.push(_manager);\r\n        Managers[_manager].manager == msg.sender;\r\n        Managers[_manager].location == msg.sender;\r\n        }\r\n        else{\r\n        Locations[msg.sender].managers.push(_manager);\r\n        Managers[_manager].manager == _manager;\r\n        Managers[_manager].location == msg.sender;\r\n        }\r\n\r\n    }\r\n    function createSeller(address _seller, string memory _seller_name, uint _sellerId) public {\r\n        Sellers[msg.sender].manager = msg.sender;\r\n        Sellers[msg.sender].active = false;\r\n        Sellers[msg.sender].seller = _seller;\r\n        Sellers[msg.sender].seller_name = _seller_name;\r\n        Sellers[msg.sender].sellerId = _sellerId;\r\n        Managers[msg.sender].sellers.push(_seller);\r\n\r\n    }\r\n    function createMenuItem(string memory _item, string memory _price) public{\r\n        menus.push(Menu({\r\n            item:_item,\r\n            price:_price\r\n        }));\r\n    }\r\n    function createMenu(Menu[] memory _items) public{\r\n        for(uint i = 0; i < _items.length; i++ ){\r\n            menus.push(_items[i]);\r\n        }\r\n    }\r\n    function getLocations() public view returns(address[] memory){\r\n        return Operators[msg.sender].locations;\r\n    }\r\n    function getManagers() public view returns(address[] memory){\r\n        return Locations[msg.sender].managers;\r\n    }\r\n    function getSubManagers() public view returns(address[] memory){\r\n        return Managers[msg.sender].subManagers;\r\n    }\r\n    function getSellers() public view returns(address[] memory){\r\n        return Managers[msg.sender].sellers;\r\n    }\r\n    function getLocationManagers(address _myLocation) public view returns(address[] memory){\r\n        //require(Locations[_myLocation].operator== msg.sender, 'Locations[_myLocation].operator != msg.sender');\r\n        return Locations[_myLocation].managers;\r\n    }\r\n    function getManagersSellers(address _myManager) public view returns(address[] memory){\r\n        require(Managers[_myManager].location == msg.sender);\r\n        return Managers[_myManager].sellers;\r\n    }\r\n    function getMenu(address _manager) public view returns(Menu  memory){\r\n        return LocationMenus[_manager];\r\n    }\r\n    function deleteLocation(address _location) public OperatorAccess{\r\n         for(uint i = 0; i < Operators[msg.sender].locations.length; i++ ){\r\n            if(Operators[msg.sender].locations[i] ==_location){\r\n                delete Operators[msg.sender].locations[i];\r\n            }}\r\n    }\r\n    function deleteManager(address _manager) public LocationAccess{\r\n        for(uint i = 0; i < Locations[msg.sender].managers.length; i++ ){\r\n            if(Locations[msg.sender].managers[i] ==_manager){\r\n                delete Locations[msg.sender].managers[i];\r\n            }}\r\n    }\r\n    function deleteSeller(address _seller) public ManagerAccess{\r\n           for(uint i = 0; i < Managers[msg.sender].sellers.length; i++ ){\r\n            if(Managers[msg.sender].sellers[i] ==_seller){\r\n                delete Managers[msg.sender].sellers[i];\r\n            }}\r\n    }\r\n    function deleteAllLocations() public OperatorAccess{\r\n        delete Operators[msg.sender].locations;\r\n    }\r\n    function deleteAllManagers() public LocationAccess{\r\n        delete Locations[msg.sender].managers;\r\n    }\r\n    function deleteAllSellers() public ManagerAccess{\r\n        delete Managers[msg.sender].sellers;\r\n    }\r\n    function activateSeller(address _seller) public view ManagerAccess{\r\n        require(msg.sender == Sellers[msg.sender].manager);\r\n        Sellers[_seller].active == true;\r\n    }\r\n    function activateSellers(address [] memory _sellers) public view ManagerAccess{\r\n         for (uint i=0; i <Managers[msg.sender].sellers.length; i++){\r\n         if(Managers[msg.sender].sellers[i] ==_sellers[i]){\r\n         Sellers[Managers[msg.sender].sellers[i]].active == true;\r\n         }}\r\n    }\r\n    function deactivateSeller(address _seller) public view ManagerAccess{\r\n        require(msg.sender == Sellers[msg.sender].manager);\r\n        Sellers[_seller].active ==false;\r\n\r\n    }\r\n    function deactivateSellers(address [] memory _sellers) public view ManagerAccess{\r\n        for (uint i=0; i <Managers[msg.sender].sellers.length; i++){\r\n         if(Managers[msg.sender].sellers[i] ==_sellers[i]){\r\n         Sellers[Managers[msg.sender].sellers[i]].active == false;\r\n         }}\r\n    }\r\n    function addSale(\r\n        address payable _operator,\r\n        address _seller,\r\n        string memory _items,\r\n        string memory _sellerId,\r\n        string memory _customerLocation,\r\n        string memory _customer,\r\n        uint itemTotal,\r\n        uint _burnAmount\r\n        ) payable public ActiveSeller(_seller){\r\n        require(itemTotal >= msg.value);\r\n        records.push(Record({\r\n            operator: _operator,\r\n            items: _items,\r\n            sellerId: _sellerId,\r\n            customerLocation: _customerLocation,\r\n            customer: _customer\r\n        }));\r\n        uint rate = InterfaceDigi(digitrade).getCurrentRate();\r\n        _burnAmount = SafeMath.mul((div(rate,100000000000000000)),msg.value);\r\n        burn(_burnAmount);\r\n        require(msg.value == itemTotal);\r\n        _operator.transfer(msg.value);\r\n    }\r\n    function burn(uint256 _value) internal {\r\n        InterfaceDigi(digitrade).transfer(InterfaceDigi(digitrade).getBurnAddress(),_value);\r\n    }\r\n    function createOpTimeLock(address _factory) public returns (address Addres)  {\r\n        require(msg.sender == Operators[msg.sender].operator, \"Not an operator\");\r\n        require(_factory == operatorFactory, \"addresses dont match\");\r\n        //locks[msg.sender] = new OperatorLock(operatorFactory);\r\n        OperatorLock newContract = new OperatorLock(_factory);\r\n        oplocks.push(newContract);\r\n        Addres = address(newContract);\r\n        Operators[msg.sender].timeLock = Addres;\r\n        return Addres;\r\n    }\r\n    function getOperatorLockContract(address _operator) public view returns(address) {\r\n        return Operators[_operator].timeLock;\r\n    }\r\n\r\n}\r\n\r\ncontract OperatorLock {\r\n        address public  operatorContract;\r\n        //Don't forget to secure strings related to personal data.\r\n        uint public constant MINIMUM_DELAY = 800;//2 hr blocktime\r\n        uint public constant MAXIMUM_DELAY = 1600;\r\n        uint public delay;\r\n        address private _owner;\r\n        bool status;\r\n        event requestOrder(address indexed customer, address indexed seller, uint region);\r\n        event acceptedOrder(address indexed customer, address indexed seller,address indexed driver, uint region);\r\n        event completedOrder(address indexed customer, address indexed seller,address indexed driver);\r\n        address timeLockContract;\r\n        struct openOrders {\r\n            address location;\r\n            address customer;\r\n            address driver;\r\n            string [] items;\r\n            uint total;\r\n            bool accepted;\r\n            string cLocation;\r\n            uint start;\r\n            uint expires;\r\n            uint delayBlocks;\r\n            uint driverPayment;\r\n        }\r\n\r\n    struct Asset {address asset; address location; address verifier; bool verified; uint expiration; uint region;}\r\n    mapping(address => Asset) OperatorAssets;\r\n    Asset[] public asset_array;\r\n\r\n    openOrders[] public orders;\r\n    mapping(address => openOrders )  public orderMap;\r\n\r\n    constructor(address _op)  {\r\n       _owner = msg.sender;\r\n       timeLockContract = address(this);\r\n       setOperatorContract(_op);\r\n    }\r\n\r\n    function setOperatorContract(address _operatorContract) internal{\r\n        require(_operatorContract == msg.sender);\r\n        operatorContract = _operatorContract;\r\n    }\r\n\r\n    modifier VerifiedAsset(address _asset){\r\n        require(msg.sender == OperatorAssets[_asset].asset);\r\n        _;\r\n    }\r\n\r\n    modifier delayBlocks(uint number){\r\n        require(number > MINIMUM_DELAY, \"Time period is too short\");\r\n        require(number < MAXIMUM_DELAY, \"Exceeds maximum time period\");\r\n        _;\r\n    }\r\n\r\n    modifier activeOrder(address _customer){\r\n        require(block.number < orderMap[_customer].expires, \"Order is no longer active\");\r\n        _;\r\n\r\n    }\r\n    modifier onlyOwner(){\r\n        require(msg.sender==_owner);\r\n        _;\r\n    }\r\n\r\n    modifier onlyOpen(){\r\n    require(status == true);\r\n    _;\r\n    }\r\n\r\n    function addAsset(address _asset, uint _expiration, uint _region) public{\r\n        Asset memory thisAsset = Asset(_asset, msg.sender, msg.sender, true ,_expiration , _region);\r\n        asset_array.push(thisAsset);\r\n    }\r\n    function getAssetInfo(address _asset) public view returns(Asset memory){\r\n        return OperatorAssets[_asset];\r\n    }\r\n    function getAssets() public view returns(Asset[] memory){\r\n        return asset_array;\r\n    }\r\n    function open(uint _delay) delayBlocks(_delay) public onlyOwner{\r\n        delay = _delay;\r\n        status = true;\r\n    }\r\n\r\n    function request(\r\n        address _customer,\r\n        string memory _customerLocation,\r\n        string [] memory _items,\r\n        address _seller,\r\n        uint _total,\r\n        uint region)\r\n        public payable onlyOpen{\r\n            require(msg.value > _total);\r\n            orders.push(openOrders({\r\n            location: _seller,\r\n            customer: _customer,\r\n            driver : 0x000000000000000000000000000000000000dEaD,\r\n            items: _items,\r\n            total:_total,\r\n            accepted: false,\r\n            start:block.number,\r\n            expires:block.number + delay,\r\n            cLocation: _customerLocation,\r\n            delayBlocks: 100,\r\n            driverPayment: 0\r\n        }));\r\n\r\n        emit requestOrder(msg.sender,_seller,region);\r\n        InterfaceOperator(operatorContract).transfer(timeLockContract, _total);\r\n    }\r\n\r\n    function accept(address _customer, address _location, address _driver, uint _amount) public payable onlyOpen{\r\n        require((block.number - orderMap[_customer].expires)>300, \"Not enough time to make this delivery\");\r\n        require(_driver == msg.sender || _location == _owner);\r\n        if(_driver == OperatorAssets[_location].asset){\r\n        orderMap[_customer].driver = _driver;\r\n        emit acceptedOrder(_customer, orderMap[_customer].location, _driver, OperatorAssets[_owner].region);\r\n        }\r\n        else{\r\n            require(msg.value == orderMap[_customer].total);\r\n            InterfaceOperator(operatorContract).transfer(timeLockContract,_amount);\r\n            orderMap[_customer].driverPayment == msg.value;\r\n            orderMap[_customer].driver = _driver;\r\n            emit acceptedOrder(_customer, orderMap[_customer].location, _driver, OperatorAssets[_owner].region);\r\n            }\r\n\r\n    }\r\n\r\n    function complete(address _customer, address _driver) public onlyOwner{\r\n        uint driverhold = orderMap[_customer].driverPayment;\r\n        InterfaceOperator(operatorContract).transfer(_driver, (orderMap[_customer].total+driverhold));\r\n        InterfaceOperator(operatorContract).transfer(_owner, orderMap[_customer].total);\r\n        emit completedOrder(_customer, msg.sender, _driver);\r\n    }\r\n\r\n    function cancel(address _customer, address _driver) public onlyOwner onlyOpen activeOrder(_customer){\r\n        InterfaceOperator(operatorContract).transfer(_customer, orderMap[_customer].total);\r\n        if(_driver !=0x000000000000000000000000000000000000dEaD)\r\n        if(_driver != OperatorAssets[_driver].asset)\r\n        InterfaceOperator(operatorContract).transfer(_driver, orderMap[_customer].total);\r\n        delete orderMap[_customer];\r\n    }\r\n\r\n    function close() public onlyOwner{\r\n     status = false;\r\n    }\r\n\r\n\r\n\r\n\r\n}\r\n",
  "sourcePath": "C:\\Users\\Julian Airhawk\\Desktop\\3dao\\Digitrade\\contracts\\Operations.sol",
  "compiler": {
    "name": "solc",
    "version": "0.8.10+commit.fc410830.Emscripten.clang"
  },
  "schemaVersion": "3.4.4",
  "updatedAt": "2022-01-05T20:18:57.997Z",
  "devdoc": {
    "kind": "dev",
    "methods": {},
    "version": 1
  },
  "userdoc": {
    "kind": "user",
    "methods": {},
    "version": 1
  }
}