{
  "contractName": "ProposalContract",
  "abi": [
    {
      "inputs": [
        {
          "internalType": "uint256",
          "name": "_ID",
          "type": "uint256"
        },
        {
          "internalType": "address",
          "name": "_proposer",
          "type": "address"
        },
        {
          "internalType": "uint256",
          "name": "_cost",
          "type": "uint256"
        },
        {
          "internalType": "address",
          "name": "_facilitator",
          "type": "address"
        },
        {
          "internalType": "uint256",
          "name": "_releaseBlock",
          "type": "uint256"
        },
        {
          "internalType": "address",
          "name": "_DIGI",
          "type": "address"
        },
        {
          "internalType": "address",
          "name": "_DAO",
          "type": "address"
        },
        {
          "internalType": "address",
          "name": "_tokenAddress",
          "type": "address"
        },
        {
          "internalType": "address",
          "name": "_stakePool",
          "type": "address"
        }
      ],
      "stateMutability": "nonpayable",
      "type": "constructor"
    },
    {
      "anonymous": false,
      "inputs": [
        {
          "indexed": false,
          "internalType": "uint256",
          "name": "contractNumber",
          "type": "uint256"
        },
        {
          "indexed": false,
          "internalType": "uint256",
          "name": "_amount",
          "type": "uint256"
        },
        {
          "indexed": false,
          "internalType": "uint256",
          "name": "_timeRemaining",
          "type": "uint256"
        }
      ],
      "name": "FundingNeeded",
      "type": "event"
    },
    {
      "anonymous": false,
      "inputs": [
        {
          "indexed": false,
          "internalType": "string",
          "name": "completionMessage",
          "type": "string"
        },
        {
          "indexed": false,
          "internalType": "bool",
          "name": "_completionStatus",
          "type": "bool"
        }
      ],
      "name": "TaskComplete",
      "type": "event"
    },
    {
      "inputs": [],
      "name": "DAO",
      "outputs": [
        {
          "internalType": "address",
          "name": "",
          "type": "address"
        }
      ],
      "stateMutability": "view",
      "type": "function"
    },
    {
      "inputs": [],
      "name": "facilitator",
      "outputs": [
        {
          "internalType": "address",
          "name": "",
          "type": "address"
        }
      ],
      "stateMutability": "view",
      "type": "function"
    },
    {
      "inputs": [],
      "name": "otherStakers",
      "outputs": [
        {
          "internalType": "uint256",
          "name": "",
          "type": "uint256"
        }
      ],
      "stateMutability": "view",
      "type": "function"
    },
    {
      "inputs": [],
      "name": "penalized",
      "outputs": [
        {
          "internalType": "bool",
          "name": "",
          "type": "bool"
        }
      ],
      "stateMutability": "view",
      "type": "function"
    },
    {
      "inputs": [],
      "name": "proposalCost",
      "outputs": [
        {
          "internalType": "uint256",
          "name": "",
          "type": "uint256"
        }
      ],
      "stateMutability": "view",
      "type": "function"
    },
    {
      "inputs": [],
      "name": "proposer",
      "outputs": [
        {
          "internalType": "address",
          "name": "",
          "type": "address"
        }
      ],
      "stateMutability": "view",
      "type": "function"
    },
    {
      "inputs": [],
      "name": "proposerStake",
      "outputs": [
        {
          "internalType": "uint256",
          "name": "",
          "type": "uint256"
        }
      ],
      "stateMutability": "view",
      "type": "function"
    },
    {
      "inputs": [],
      "name": "releaseBlock",
      "outputs": [
        {
          "internalType": "uint256",
          "name": "",
          "type": "uint256"
        }
      ],
      "stateMutability": "view",
      "type": "function"
    },
    {
      "inputs": [],
      "name": "taskComplete",
      "outputs": [
        {
          "internalType": "bool",
          "name": "",
          "type": "bool"
        }
      ],
      "stateMutability": "view",
      "type": "function"
    },
    {
      "inputs": [],
      "name": "tokenAddress",
      "outputs": [
        {
          "internalType": "address",
          "name": "",
          "type": "address"
        }
      ],
      "stateMutability": "view",
      "type": "function"
    },
    {
      "inputs": [
        {
          "internalType": "address",
          "name": "_sponsor",
          "type": "address"
        }
      ],
      "name": "sponsorBalance",
      "outputs": [
        {
          "internalType": "uint256",
          "name": "balance",
          "type": "uint256"
        }
      ],
      "stateMutability": "view",
      "type": "function"
    },
    {
      "inputs": [
        {
          "internalType": "uint256",
          "name": "_amount",
          "type": "uint256"
        }
      ],
      "name": "ProposerFundContract",
      "outputs": [
        {
          "internalType": "string",
          "name": "message",
          "type": "string"
        },
        {
          "internalType": "uint256",
          "name": "_completionBlock",
          "type": "uint256"
        }
      ],
      "stateMutability": "nonpayable",
      "type": "function"
    },
    {
      "inputs": [],
      "name": "DigiFundContract",
      "outputs": [],
      "stateMutability": "nonpayable",
      "type": "function"
    },
    {
      "inputs": [],
      "name": "checkFunds",
      "outputs": [
        {
          "internalType": "uint256",
          "name": "",
          "type": "uint256"
        }
      ],
      "stateMutability": "view",
      "type": "function"
    },
    {
      "inputs": [
        {
          "internalType": "string",
          "name": "message",
          "type": "string"
        },
        {
          "internalType": "bool",
          "name": "_complete",
          "type": "bool"
        }
      ],
      "name": "completionNotification",
      "outputs": [],
      "stateMutability": "nonpayable",
      "type": "function"
    },
    {
      "inputs": [],
      "name": "releasePayments",
      "outputs": [],
      "stateMutability": "nonpayable",
      "type": "function"
    },
    {
      "inputs": [
        {
          "internalType": "string",
          "name": "reason",
          "type": "string"
        }
      ],
      "name": "cancel",
      "outputs": [
        {
          "internalType": "string",
          "name": "_reason",
          "type": "string"
        }
      ],
      "stateMutability": "nonpayable",
      "type": "function"
    },
    {
      "inputs": [],
      "name": "collectProposerBenefit",
      "outputs": [],
      "stateMutability": "nonpayable",
      "type": "function"
    },
    {
      "inputs": [],
      "name": "returnPenalizedStake",
      "outputs": [],
      "stateMutability": "nonpayable",
      "type": "function"
    }
  ],
  "bytecode": "0x60806040523480156200001157600080fd5b50604051620012bc380380620012bc8339810160408190526200003491620001a2565b600a898155600480546001600160a01b03199081166001600160a01b038c8116919091179092556005805482168a841617905560068a9055600788905560008054821688841617905560038054821687841617905560028054909116918516919091179055620000b3908690620000ad908290620000f6565b62000162565b600d55600f80546001600160a01b0390921661010002610100600160a81b031990921691909117905550506008805461ffff19169055506200028b945050505050565b60008082116200014c5760405162461bcd60e51b815260206004820152601a60248201527f536166654d6174683a206469766973696f6e206279207a65726f000000000000604482015260640160405180910390fd5b60006200015a838562000242565b949350505050565b6000828211156200017257600080fd5b6200017e828462000265565b9392505050565b80516001600160a01b03811681146200019d57600080fd5b919050565b60008060008060008060008060006101208a8c031215620001c257600080fd5b89519850620001d460208b0162000185565b975060408a01519650620001eb60608b0162000185565b955060808a015194506200020260a08b0162000185565b93506200021260c08b0162000185565b92506200022260e08b0162000185565b9150620002336101008b0162000185565b90509295985092959850929598565b6000826200026057634e487b7160e01b600052601260045260246000fd5b500490565b6000828210156200028657634e487b7160e01b600052601160045260246000fd5b500390565b611021806200029b6000396000f3fe608060405234801561001057600080fd5b50600436106101215760003560e01c80637a117b87116100ad578063a54d6df811610071578063a54d6df814610234578063a8e4fb901461023d578063ada403a314610250578063e055984114610258578063e664f3b21461028157600080fd5b80637a117b87146101da578063863040e9146101ed57806398fabd3a1461020e5780639d15bb31146101985780639d76ea581461022157600080fd5b80634c77a10f116100f45780634c77a10f146101875780635769b50614610190578063657749931461019a5780636876d0bd146101a25780637797cee4146101af57600080fd5b806308d233dc146101265780630b4f3f3d146101415780630c3283061461016157806342c1b5071461016a575b600080fd5b61012e61028a565b6040519081526020015b60405180910390f35b61015461014f366004610daa565b6102fc565b6040516101389190610e34565b61012e600b5481565b6008546101779060ff1681565b6040519015158152602001610138565b61012e60075481565b61019861051c565b005b610198610698565b600f546101779060ff1681565b6005546101c2906001600160a01b031681565b6040516001600160a01b039091168152602001610138565b6101986101e8366004610e55565b61078e565b6102006101fb366004610ea7565b610878565b604051610138929190610ec0565b6003546101c2906001600160a01b031681565b6002546101c2906001600160a01b031681565b61012e600c5481565b6004546101c2906001600160a01b031681565b610198610b1a565b61012e610266366004610ee2565b6001600160a01b031660009081526011602052604090205490565b61012e60065481565b6002546040516370a0823160e01b81523060048201526000916001600160a01b0316906370a0823190602401602060405180830381865afa1580156102d3573d6000803e3d6000fd5b505050506040513d601f19601f820116820180604052508101906102f79190610f0b565b905090565b60085460609060ff61010090910416151560011461031957600080fd5b6000546001600160a01b031633148061033c57506005546001600160a01b031633145b1561046157600754431061034f57600080fd5b60025460048054600b5460405163a9059cbb60e01b81526001600160a01b039283169381019390935260248301529091169063a9059cbb906044016020604051808303816000875af11580156103a9573d6000803e3d6000fd5b505050506040513d601f19601f820116820180604052508101906103cd9190610f24565b50600254600f54600c5460405163a9059cbb60e01b81526001600160a01b0361010090930483166004820152602481019190915291169063a9059cbb906044015b6020604051808303816000875af115801561042d573d6000803e3d6000fd5b505050506040513d601f19601f820116820180604052508101906104519190610f24565b50506008805461ff001916905590565b6004546001600160a01b031633141561051757600754431061048257600080fd5b6008805461ffff191660011790556104a761049f605a6064610c01565b600b54610c68565b600b819055600254600f546001600160a01b039182169263a9059cbb92610100909204909116906104d9906001610f57565b600c546104e69190610f76565b6040516001600160e01b031960e085901b1681526001600160a01b039092166004830152602482015260440161040e565b919050565b6000546001600160a01b0316331461053357600080fd5b600360009054906101000a90046001600160a01b03166001600160a01b03166352639cd56040518163ffffffff1660e01b8152600401602060405180830381865afa158015610586573d6000803e3d6000fd5b505050506040513d601f19601f820116820180604052508101906105aa9190610f0b565b6001819055431061060d5760405162461bcd60e51b815260206004820152602260248201527f44494749206e6f206c6f6e6765722068617320616e792070726976696c656467604482015261657360f01b60648201526084015b60405180910390fd5b60025460065460405163a9059cbb60e01b815230600482015260248101919091526001600160a01b039091169063a9059cbb906044016020604051808303816000875af1158015610662573d6000803e3d6000fd5b505050506040513d601f19601f820116820180604052508101906106869190610f24565b506008805461ff001916610100179055565b6004546001600160a01b031633146106af57600080fd5b60085460ff1615156001146106fe5760405162461bcd60e51b8152602060048201526015602482015274165bdd481dd95c995b89dd081c195b985b1a5e9959605a1b6044820152606401610604565b600e54431161070c57600080fd5b60025460048054600b5460405163a9059cbb60e01b81526001600160a01b039283169381019390935260248301529091169063a9059cbb906044015b6020604051808303816000875af1158015610767573d6000803e3d6000fd5b505050506040513d601f19601f8201168201806040525081019061078b9190610f24565b50565b6005546001600160a01b031633146107a557600080fd5b600754431061081c5760405162461bcd60e51b815260206004820152603960248201527f5468652074696d6520746f20636f6d706c6574652074686520636f6d706c657460448201527f65207468652070726f706f73616c2068617320706173736564000000000000006064820152608401610604565b600f805460ff19168215151790556040517f6c291555923627821681051abd1364dae6f7649790bfaf96caca33de353f50329061085c9084908490610f8e565b60405180910390a18061087457610872826102fc565b505b5050565b6004546060906000906001600160a01b0316331461089557600080fd5b6006548311156108f35760405162461bcd60e51b8152602060048201526024808201527f53656e64696e67206d6f7265207468616e206167726565642075706f6e20616d6044820152631bdd5b9d60e21b6064820152608401610604565b600854610100900460ff161561094b5760405162461bcd60e51b815260206004820152601860248201527f50726f706f73616c20616c726561647920656e61626c656400000000000000006044820152606401610604565b6002546040516323b872dd60e01b8152336004820152306024820152604481018590526001600160a01b03909116906323b872dd906064016020604051808303816000875af11580156109a2573d6000803e3d6000fd5b505050506040513d601f19601f820116820180604052508101906109c69190610f24565b506002546009546001600160a01b039091169063a9059cbb9061dead906109ed9087610c68565b6040516001600160e01b031960e085901b1681526001600160a01b03909216600483015260248201526044016020604051808303816000875af1158015610a38573d6000803e3d6000fd5b505050506040513d601f19601f82011682018060405250810190610a5c9190610f24565b506008805461ff001916610100179055600654610a799084610cee565b600b819055831115610adc576000610a9384600b54610cee565b600a54600d5460408051928352602083018490528201529091507f7d4f064d15c232a3ae67a4813da9c815f784de413afec1d031d073650bc899db9060600160405180910390a1505b505060408051808201909152601e81527f436f6d706c6574696f6e206e6f74696669636174696f6e2064756520627900006020820152600d54915091565b6005546001600160a01b03163314610b3157600080fd5b60085460ff610100909104161515600114610b4b57600080fd5b6007544311610bc25760405162461bcd60e51b815260206004820152603760248201527f5468652063757272656e7420626c6f636b206e756d626572206973206c65737360448201527f207468616e207468652072656c6561736520626c6f636b0000000000000000006064820152608401610604565b60025460055460065460405163a9059cbb60e01b81526001600160a01b039283166004820152602481019190915291169063a9059cbb90604401610748565b6000808211610c525760405162461bcd60e51b815260206004820152601a60248201527f536166654d6174683a206469766973696f6e206279207a65726f0000000000006044820152606401610604565b6000610c5e8385610fb2565b9150505b92915050565b600082610c7757506000610c62565b6000610c838385610f57565b905082610c908583610fb2565b14610ce75760405162461bcd60e51b815260206004820152602160248201527f536166654d6174683a206d756c7469706c69636174696f6e206f766572666c6f6044820152607760f81b6064820152608401610604565b9392505050565b600082821115610cfd57600080fd5b610ce78284610fd4565b634e487b7160e01b600052604160045260246000fd5b600082601f830112610d2e57600080fd5b813567ffffffffffffffff80821115610d4957610d49610d07565b604051601f8301601f19908116603f01168101908282118183101715610d7157610d71610d07565b81604052838152866020858801011115610d8a57600080fd5b836020870160208301376000602085830101528094505050505092915050565b600060208284031215610dbc57600080fd5b813567ffffffffffffffff811115610dd357600080fd5b610ddf84828501610d1d565b949350505050565b6000815180845260005b81811015610e0d57602081850181015186830182015201610df1565b81811115610e1f576000602083870101525b50601f01601f19169290920160200192915050565b602081526000610ce76020830184610de7565b801515811461078b57600080fd5b60008060408385031215610e6857600080fd5b823567ffffffffffffffff811115610e7f57600080fd5b610e8b85828601610d1d565b9250506020830135610e9c81610e47565b809150509250929050565b600060208284031215610eb957600080fd5b5035919050565b604081526000610ed36040830185610de7565b90508260208301529392505050565b600060208284031215610ef457600080fd5b81356001600160a01b0381168114610ce757600080fd5b600060208284031215610f1d57600080fd5b5051919050565b600060208284031215610f3657600080fd5b8151610ce781610e47565b634e487b7160e01b600052601160045260246000fd5b6000816000190483118215151615610f7157610f71610f41565b500290565b60008219821115610f8957610f89610f41565b500190565b604081526000610fa16040830185610de7565b905082151560208301529392505050565b600082610fcf57634e487b7160e01b600052601260045260246000fd5b500490565b600082821015610fe657610fe6610f41565b50039056fea2646970667358221220463d7da8591f2ed240f3a4018cb208ace0c0e5fbbc7857efcac6235f133a600564736f6c634300080a0033",
  "immutableReferences": {},
  "source": "// SPDX-License-Identifier: MIT\r\npragma solidity 0.8.10;\r\n//DAO GOV version 1.0.0\r\n\r\n//NOT READY FOR PRODUCTION 12/30/2021\r\ncontract SafeMath {\r\n\r\n    function add(uint256 a, uint256 b) internal pure returns (uint256) {\r\n        uint256 c = a + b;\r\n        require(c >= a, \"SafeMath: addition overflow\");\r\n        return c;    }\r\n\r\n    function safeAdd(uint a, uint b) internal pure returns (uint c) {\r\n        c = a + b;\r\n        require(c >= a);\r\n    }\r\n    function safeSub(uint a, uint b) internal pure returns (uint c) {\r\n        require(b <= a);\r\n        c = a - b;\r\n    }\r\n\r\n    function mul(uint256 a, uint256 b) internal pure returns (uint256) {\r\n        if (a == 0) {\r\n            return 0;}\r\n            uint256 c = a * b;\r\n            require(c / a == b, \"SafeMath: multiplication overflow\");\r\n            return c;}\r\n\r\n    function div(uint256 a, uint256 b) internal pure returns (uint256) {\r\n        require(b > 0, \"SafeMath: division by zero\");\r\n        uint256 c = a / b;\r\n        return c;    }\r\n}\r\n\r\ninterface InterfaceDigi {\r\n    function balanceOf(address tokenOwner) external view returns (uint balance);\r\n    function totalSupply() external view returns (uint);\r\n    function transfer(address receiver, uint tokens) external returns (bool success);\r\n    function transferFrom(address sender, address receiver, uint tokens) external returns (bool success);\r\n\r\n}\r\n\r\n\r\ninterface InterfaceReps {\r\n    function checkRep() external view returns (bool);\r\n    function getMaturationTime() external view returns (uint);\r\n    function getRepMin() external view returns (uint);\r\n    function getRep() external view returns (address);\r\n    function getUnlockBlock() external view returns (uint);\r\n    function getStartBlock() external view returns (uint);\r\n\r\n}\r\n\r\ncontract DaoGov is SafeMath{\r\n    address tokenAddress;\r\n    address DIGI;\r\n    address DAO;\r\n    address REP;\r\n    address public stakePoolAddress;\r\n    uint public minimumVotingPeriod;\r\n    address [] public proposalContracts;\r\n    uint proposalContractID;\r\n    event proposalResult(uint _proposal, bool dtlcontract);\r\n    event Digichecked(uint _block);\r\n    uint DigiCheckBlock;\r\n    uint proposerBonus;\r\n    uint standardBonus;\r\n    uint standardBurn;\r\n    uint proposalIntializationThreshold;\r\n\r\n    struct Proposal {\r\n        address proposer;\r\n        string basic_description;\r\n        uint yesVotes;\r\n        uint noVotes;\r\n        uint startVoteBlock;\r\n        uint endVoteBlock;\r\n        uint proposalCost;\r\n        address [] alreadyVoted;\r\n        bool voteEnded;\r\n        bool votePass;\r\n        bool enacted;\r\n        uint initializationPoints;\r\n        bool initialized;\r\n        address [] initializers;\r\n    }\r\n\r\n    mapping(address => Proposal )  public proposers;\r\n    Proposal[] public proposals;\r\n\r\n    constructor(){\r\n        minimumVotingPeriod = 10; //01 blocks\r\n        proposalIntializationThreshold = 1000000 *10 *18; //1000000 DGT 1% of total supply\r\n        DIGI = msg.sender;\r\n        proposerBonus = 3;      //  3% of proposal cost\r\n        standardBonus = 2500;   //  2500 DGT\r\n        standardBurn = div(11,100);       //  1.11% of proposal cost\r\n    }\r\n\r\n    modifier onlyDIGI(){\r\n        require(msg.sender == DIGI);\r\n        _;\r\n    }\r\n    modifier DIGIcheck{\r\n        require(block.number < DigiCheckBlock,\"DIGI no longer has any priviledges\");\r\n        _;\r\n\r\n    }\r\n\r\n    function getStandardBurn() public view returns (uint){\r\n        return standardBurn;\r\n    }\r\n    function setStakePool(address pool) public onlyDIGI{\r\n        require(stakePoolAddress==address(0),\"Stake pool has already been set\");\r\n        stakePoolAddress = pool;\r\n    }\r\n    function getStakePool() public view returns (address){\r\n       return stakePoolAddress;\r\n    }\r\n    function checkDigi() public onlyDIGI{\r\n       require(DigiCheckBlock==0,\"Digi has already been checked\");\r\n       DigiCheckBlock =  add(block.number,1726272);\r\n       emit Digichecked(DigiCheckBlock);\r\n    }\r\n    function getDigiCheckBlock() public view returns(uint){\r\n        return DigiCheckBlock;\r\n    }\r\n    function setDigitradeAddress(address digitoken) public onlyDIGI(){\r\n        require(tokenAddress==address(0),\"Token Address has already been set\");\r\n        tokenAddress = digitoken;\r\n    }\r\n    function getDigitradeAddress() public view returns(address){\r\n        return tokenAddress;\r\n    }\r\n    function set3DAOAddress() public onlyDIGI{\r\n        DAO = address(this);\r\n    }\r\n    function get3DAOAddress() public view returns(address) {\r\n        return DAO;\r\n    }\r\n    function setRepAddress(address _rep) public onlyDIGI{\r\n        REP = _rep;\r\n    }\r\n\r\n    modifier onlyVestedReps(){\r\n       require(InterfaceDigi(tokenAddress).balanceOf(msg.sender) > InterfaceReps(REP).getRepMin(), \"Not enough digitrade tokens\");\r\n       require(msg.sender == InterfaceReps(REP).getRep(),\"You are not a rep\" );\r\n       require(block.number > InterfaceReps(REP).getUnlockBlock(), \"UnlockBlock <  current block number\");\r\n      _;\r\n    }\r\n    modifier onlyInitializedProposal(uint _proposal){\r\n      require(proposals[_proposal].initialized == true,\"Proposal is not initialized\");\r\n      _;\r\n    }\r\n    modifier onlyProposalSponsor(uint _proposal){\r\n       require(msg.sender == proposals[_proposal].proposer, \"Only the proposal creator can call this function\");\r\n      _;\r\n    }\r\n    modifier onlyNonEnactedProposals(uint _proposal){\r\n      require(proposals[_proposal].enacted == false, \"Proposal is already enacted\");\r\n      _;\r\n    }\r\n    modifier onlyEndedProposals(uint _proposal){\r\n      require(block.number > proposals[_proposal].endVoteBlock ,\"Voting period has not ended\");\r\n      _;\r\n    }\r\n\r\n\r\n    function checkRegistration() public view returns(uint _unlockBlock, string memory){\r\n        require(msg.sender == InterfaceReps(REP).getRep(), \"You have not registered yet\");\r\n        if(InterfaceReps(REP).getUnlockBlock()< block.number){\r\n           return (1,'You are registered');\r\n        }else{\r\n          return ((InterfaceReps(REP).getUnlockBlock() - InterfaceReps(REP).getStartBlock()), 'more blocks until registration');\r\n        }\r\n    }\r\n      //VOTING PROCESS...\r\n\r\n    function propose(string memory detailedDescription, uint256 _dgtCost, uint _votePeriod) public onlyVestedReps{\r\n        uint256 stakeBalance = InterfaceDigi(tokenAddress).balanceOf(stakePoolAddress);\r\n        uint maximumAvailiableTokens = mul(div(stakeBalance,100),2);\r\n        require((_dgtCost*10*18) < maximumAvailiableTokens, \"Proposal cost exceeds 2% of avaliable tokens\");\r\n        require(_votePeriod > minimumVotingPeriod);\r\n        address[] memory iVoted;\r\n        proposals.push(Proposal({\r\n                proposer: msg.sender,\r\n                basic_description: detailedDescription,\r\n                yesVotes: 0,\r\n                noVotes: 0,\r\n                startVoteBlock:block.number,\r\n                endVoteBlock: add(_votePeriod,block.number),\r\n                proposalCost: _dgtCost,\r\n                alreadyVoted:iVoted,\r\n                voteEnded:false,\r\n                votePass:false,\r\n                enacted:false,\r\n                initializationPoints: 0,\r\n                initialized:false,\r\n                initializers:iVoted\r\n            }));\r\n    }\r\n\r\n    function initializeProposal(uint _proposal) public onlyVestedReps returns (string memory message, uint points){\r\n      require(proposals[_proposal].initializationPoints < 1000000, \"Proposal Already initialized\");\r\n      uint previousPoints = proposals[_proposal].initializationPoints;\r\n      uint addedPoints = InterfaceDigi(tokenAddress).balanceOf(msg.sender);\r\n      uint currentPoints = add(previousPoints, addedPoints);\r\n      proposals[_proposal].initializationPoints = currentPoints;\r\n      if(currentPoints > proposalIntializationThreshold){\r\n        for (uint i=0; i<proposals[_proposal].initializers.length; i++){\r\n            require(proposals[_proposal].initializers[i] != msg.sender, \"Only one vote per address\");\r\n        }\r\n      proposals[_proposal].initialized = true;\r\n      string memory _message = \"Proposal is initalized\";\r\n      message = _message;\r\n      return (message, proposals[_proposal].initializationPoints);\r\n        }else{\r\n        return (\"1000000 required to initialize, Current initialization points: \", proposals[_proposal].initializationPoints);\r\n        }\r\n    }\r\n\r\n    function vote(uint _proposal, bool yes, bool no) public onlyVestedReps onlyInitializedProposal(_proposal) returns (string memory message){\r\n       for (uint i=0; i<proposals[_proposal].alreadyVoted.length; i++) {\r\n       require(proposals[_proposal].alreadyVoted[i] != msg.sender, \"Only one vote per address\");}\r\n       require(proposals[_proposal].endVoteBlock > block.number, \"Voting has ended\");\r\n       if(yes == true){\r\n           require(no == false);\r\n           proposals[_proposal].yesVotes += 1;\r\n           return \"You voted yes!\";}\r\n       if(no == true){\r\n           require(yes == false);\r\n           proposals[_proposal].noVotes += 1;\r\n           return \"You voted no!\";}\r\n       proposals[_proposal].alreadyVoted.push(msg.sender);\r\n    }\r\n\r\n    function tallyProposal(uint _proposal) public onlyEndedProposals(_proposal)  returns (bool _result) {\r\n        if(proposals[_proposal].yesVotes > proposals[_proposal].noVotes){\r\n        proposals[_proposal].voteEnded = true;\r\n        proposals[_proposal].votePass = true;\r\n        emit proposalResult(_proposal, true);\r\n        return true;\r\n        }\r\n        if(proposals[_proposal].yesVotes < proposals[_proposal].noVotes){\r\n        proposals[_proposal].voteEnded = true;\r\n        proposals[_proposal].votePass = false;\r\n        emit proposalResult(_proposal, true);\r\n        delete proposals[_proposal];\r\n        return false;\r\n        }\r\n    }\r\n\r\n    function veto(uint _proposal) public onlyDIGI DIGIcheck(){\r\n        uint yesVotes = proposals[_proposal].yesVotes;\r\n        uint noVotes  = proposals[_proposal].noVotes;\r\n        require((div(yesVotes,noVotes)) < mul((div(2,3)),(add(yesVotes,noVotes))),\" 66% majority overides DIGI authority\");\r\n        proposals[_proposal].votePass = false;\r\n        proposals[_proposal].enacted = false;\r\n        proposals[_proposal].voteEnded = true;\r\n        emit proposalResult(_proposal, false);\r\n    }\r\n\r\n    function calculateReleaseBlock(uint _weeks) public view returns (uint _releaseBlock){\r\n        _releaseBlock = block.number + (_weeks * 70000);\r\n        return _releaseBlock;\r\n    }\r\n\r\n    function enactProposal(\r\n        uint _proposal,\r\n        uint _weeks,\r\n        address _facilitator\r\n        )\r\n        public  onlyProposalSponsor(_proposal) returns (address) {\r\n        require(_weeks > 0,\" Proprosal needs at least 1 week to be completed\");\r\n        require(proposals[_proposal].votePass = true, \"The vote did not pass\");\r\n        uint proposerBalance = InterfaceDigi(tokenAddress).balanceOf(msg.sender);\r\n        require(proposerBalance >= proposals[_proposal].proposalCost,\"Your DGT balance is < than the amount needed to enact proposal\");\r\n        uint _releaseBlock = calculateReleaseBlock(_weeks);\r\n\r\n        proposalContractID = proposalContractID ++;\r\n\r\n        ProposalContract newContract = new ProposalContract(\r\n        proposalContractID,\r\n        proposals[_proposal].proposer,\r\n        proposals[_proposal].proposalCost,\r\n        _facilitator,\r\n        _releaseBlock,\r\n        DIGI,\r\n        DAO,\r\n        tokenAddress,\r\n        stakePoolAddress);\r\n        address newContractAddress = address(newContract);\r\n        proposalContracts.push(address(newContract));\r\n\r\n        return newContractAddress;\r\n    }\r\n\r\n    //END VOTING PROCESS\r\n\r\n}\r\n\r\ninterface InterfaceDaoGov {\r\n  function getStakePool() external view returns (address);\r\n  function getDIGI() external view returns (address);\r\n  function getDigiCheckBlock() external view returns (uint);\r\n  function get3DAOAddress() external view returns (address);\r\n  function getDigitradeAddress() external view returns (address);\r\n  function getStandardBurn() external view returns (address);\r\n}\r\n\r\ncontract ProposalContract is SafeMath{\r\n    address DIGI;\r\n    uint DigiCheckBlock;\r\n    address public tokenAddress;\r\n    address public DAO;\r\n    address public proposer;\r\n    address public facilitator;\r\n    uint public proposalCost;\r\n    uint public releaseBlock;\r\n    bool public penalized;\r\n    bool enable;\r\n    uint burnAmount;\r\n    uint ID;\r\n\r\n    uint public proposerStake;\r\n    uint public otherStakers;\r\n    uint completionBlock;\r\n    uint timeOut;\r\n    bool public taskComplete;\r\n    address stakePoolAddress;\r\n    address [] sponsors;\r\n    mapping(address => uint) balances;\r\n\r\n    struct Sponsors{\r\n    address sponsor;\r\n    uint balance;\r\n    }\r\n\r\n    event FundingNeeded(uint contractNumber, uint _amount, uint _timeRemaining);\r\n\r\n    event TaskComplete(string completionMessage, bool _completionStatus);\r\n\r\n\r\n    //TEAM STAKING\r\n    constructor(\r\n      uint _ID,\r\n      address _proposer,\r\n      uint _cost,\r\n      address _facilitator,\r\n      uint _releaseBlock,\r\n      address _DIGI,\r\n      address _DAO,\r\n      address _tokenAddress,\r\n      address _stakePool){\r\n        ID = _ID;\r\n        proposer = _proposer;\r\n        facilitator = _facilitator;\r\n        proposalCost = _cost;\r\n        releaseBlock = _releaseBlock;\r\n        DIGI = _DIGI;\r\n        DAO = _DAO;\r\n        tokenAddress = _tokenAddress;\r\n        completionBlock = safeSub(_releaseBlock , div(_releaseBlock,10));\r\n        stakePoolAddress = _stakePool;\r\n        enable = false;\r\n        penalized = false;\r\n\r\n    }\r\n\r\n    function sponsorBalance(address _sponsor) public  view returns (uint balance) {\r\n        return balances[_sponsor];\r\n    }\r\n\r\n    modifier DIGIcheck{\r\n        DigiCheckBlock = InterfaceDaoGov(DAO).getDigiCheckBlock();\r\n        require(block.number < DigiCheckBlock,\"DIGI no longer has any priviledges\");\r\n        _;\r\n\r\n    }\r\n    modifier onlyEnabled(){\r\n        require(enable == true);\r\n        _;\r\n    }\r\n    modifier onlyProposer(){\r\n        require(msg.sender == proposer);\r\n        _;\r\n    }\r\n    modifier onlyFacilitator(){\r\n        require(msg.sender == facilitator);\r\n        _;\r\n    }\r\n    modifier onlyDIGI(){\r\n        require(msg.sender == DIGI);\r\n        _;\r\n    }\r\n\r\n    function ProposerFundContract(uint _amount) public onlyProposer returns (string memory message, uint _completionBlock){\r\n        require(_amount <= proposalCost, \"Sending more than agreed upon amount\");\r\n        require(enable == false, \"Proposal already enabled\");\r\n        InterfaceDigi(tokenAddress).transferFrom(msg.sender, address(this) , _amount);\r\n        InterfaceDigi(tokenAddress).transfer(0x000000000000000000000000000000000000dEaD , mul(burnAmount,_amount));\r\n        enable = true;\r\n        proposerStake= safeSub(proposalCost,_amount);\r\n        if(proposerStake < _amount){\r\n            uint fundsNeeded = safeSub(_amount, proposerStake);\r\n            emit FundingNeeded(ID, fundsNeeded, completionBlock);\r\n        }\r\n        message = \"Completion notification due by\";\r\n        _completionBlock = completionBlock;\r\n        return (message, _completionBlock);\r\n    }\r\n\r\n    function DigiFundContract() public onlyDIGI DIGIcheck{\r\n        InterfaceDigi(tokenAddress).transfer(address(this),proposalCost);\r\n        enable = true;\r\n    }\r\n\r\n    function checkFunds() public view returns(uint){\r\n        return InterfaceDigi(tokenAddress).balanceOf(address(this));\r\n    }\r\n\r\n    function completionNotification(string memory message, bool _complete) public onlyFacilitator {\r\n      require(block.number < releaseBlock, \"The time to complete the complete the proposal has passed\");\r\n      taskComplete = _complete;\r\n      emit TaskComplete(message, _complete);\r\n      if(_complete == false){\r\n        cancel(message);\r\n      }\r\n    }\r\n\r\n    function releasePayments() public onlyFacilitator onlyEnabled{\r\n        require(block.number > releaseBlock, \"The current block number is less than the release block\");\r\n        InterfaceDigi(tokenAddress).transfer(facilitator,proposalCost);\r\n    }\r\n\r\n    function cancel(string memory reason) public onlyEnabled returns ( string memory _reason){\r\n        if(msg.sender == DIGI || msg.sender == facilitator){\r\n            require(block.number < releaseBlock);\r\n            InterfaceDigi(tokenAddress).transfer(proposer, proposerStake);\r\n            InterfaceDigi(tokenAddress).transfer(stakePoolAddress ,otherStakers);\r\n            //100% return of tokens to stakePoolAddress and proposer\r\n            enable = false;\r\n            _reason = reason;\r\n            return _reason;\r\n            }\r\n        if(msg.sender == proposer){\r\n            require(block.number < releaseBlock);\r\n            enable = false;\r\n            penalized = true;\r\n            proposerStake = mul((div(90,100)),proposerStake);\r\n            InterfaceDigi(tokenAddress).transfer(stakePoolAddress ,(otherStakers+(1*proposerStake)));\r\n            //100% return of tokens to stakePoolAddress but penalize proposer 10%\r\n            enable = false;\r\n            _reason = reason;\r\n            return _reason;\r\n            }\r\n\r\n    }\r\n\r\n    function collectProposerBenefit() public {\r\n\r\n    }\r\n\r\n    function returnPenalizedStake() public onlyProposer{\r\n            require(penalized == true, \"You weren't penalized\");\r\n            require(block.number > timeOut);\r\n            InterfaceDigi(tokenAddress).transfer(proposer,proposerStake);\r\n    }\r\n\r\n\r\n\r\n\r\n\r\n}\r\n\r\ncontract StakePool{\r\n\r\n}\r\n",
  "sourcePath": "C:\\Users\\Julian Airhawk\\Desktop\\3dao\\Digitrade\\contracts\\DaoGov.sol",
  "compiler": {
    "name": "solc",
    "version": "0.8.10+commit.fc410830.Emscripten.clang"
  },
  "schemaVersion": "3.4.4",
  "updatedAt": "2022-01-05T20:18:57.513Z",
  "devdoc": {
    "kind": "dev",
    "methods": {},
    "version": 1
  },
  "userdoc": {
    "kind": "user",
    "methods": {},
    "version": 1
  }
}