{
  "contractName": "Representatives",
  "abi": [
    {
      "inputs": [],
      "stateMutability": "nonpayable",
      "type": "constructor"
    },
    {
      "inputs": [
        {
          "internalType": "address",
          "name": "",
          "type": "address"
        }
      ],
      "name": "registeredReps",
      "outputs": [
        {
          "internalType": "address",
          "name": "_rep",
          "type": "address"
        },
        {
          "internalType": "uint256",
          "name": "_startBlock",
          "type": "uint256"
        },
        {
          "internalType": "uint256",
          "name": "_unlockBlock",
          "type": "uint256"
        }
      ],
      "stateMutability": "view",
      "type": "function",
      "constant": true
    },
    {
      "inputs": [
        {
          "internalType": "uint256",
          "name": "",
          "type": "uint256"
        }
      ],
      "name": "representatives",
      "outputs": [
        {
          "internalType": "address",
          "name": "_rep",
          "type": "address"
        },
        {
          "internalType": "uint256",
          "name": "_startBlock",
          "type": "uint256"
        },
        {
          "internalType": "uint256",
          "name": "_unlockBlock",
          "type": "uint256"
        }
      ],
      "stateMutability": "view",
      "type": "function",
      "constant": true
    },
    {
      "inputs": [],
      "name": "tokenAddress",
      "outputs": [
        {
          "internalType": "address",
          "name": "",
          "type": "address"
        }
      ],
      "stateMutability": "view",
      "type": "function",
      "constant": true
    },
    {
      "inputs": [
        {
          "internalType": "address",
          "name": "_digitrade",
          "type": "address"
        }
      ],
      "name": "setTokenAddress",
      "outputs": [],
      "stateMutability": "nonpayable",
      "type": "function"
    },
    {
      "inputs": [],
      "name": "getUnlockBlock",
      "outputs": [
        {
          "internalType": "uint256",
          "name": "",
          "type": "uint256"
        }
      ],
      "stateMutability": "view",
      "type": "function",
      "constant": true
    },
    {
      "inputs": [],
      "name": "getStartBlock",
      "outputs": [
        {
          "internalType": "uint256",
          "name": "",
          "type": "uint256"
        }
      ],
      "stateMutability": "view",
      "type": "function",
      "constant": true
    },
    {
      "inputs": [],
      "name": "getRep",
      "outputs": [
        {
          "internalType": "address",
          "name": "_repAddress",
          "type": "address"
        }
      ],
      "stateMutability": "view",
      "type": "function",
      "constant": true
    },
    {
      "inputs": [],
      "name": "getRepMin",
      "outputs": [
        {
          "internalType": "uint256",
          "name": "",
          "type": "uint256"
        }
      ],
      "stateMutability": "view",
      "type": "function",
      "constant": true
    },
    {
      "inputs": [],
      "name": "getMaturationTime",
      "outputs": [
        {
          "internalType": "uint256",
          "name": "",
          "type": "uint256"
        }
      ],
      "stateMutability": "view",
      "type": "function",
      "constant": true
    },
    {
      "inputs": [
        {
          "internalType": "address",
          "name": "_rep",
          "type": "address"
        }
      ],
      "name": "registerRep",
      "outputs": [],
      "stateMutability": "nonpayable",
      "type": "function"
    }
  ],
  "bytecode": "0x608060405234801561001057600080fd5b50600a600355621b77406002556104538061002c6000396000f3fe608060405234801561001057600080fd5b506004361061009d5760003560e01c80637780911c116100665780637780911c1461016f5780639d76ea5814610177578063a1a216e41461018a578063a5f18c0114610192578063e02e6f4b146101aa57600080fd5b8062d7a382146100a257806326a4e8d2146100c757806337e3ce8e146100dc5780634044140b146100fe57806370f73adf14610111575b600080fd5b6100aa6101bd565b6040516001600160a01b0390911681526020015b60405180910390f35b6100da6100d5366004610395565b6101e6565b005b336000908152600460205260409020600201545b6040519081526020016100be565b6100da61010c366004610395565b61021f565b61014a61011f366004610395565b6004602052600090815260409020805460018201546002909201546001600160a01b03909116919083565b604080516001600160a01b0390941684526020840192909252908201526060016100be565b6002546100f0565b6001546100aa906001600160a01b031681565b6003546100f0565b336000908152600460205260409020600101546100f0565b61014a6101b83660046103c5565b610358565b3360008181526004602052604081205490916001600160a01b0390911614156101e35750335b90565b6000546001600160a01b031633146101fd57600080fd5b600180546001600160a01b0319166001600160a01b0392909216919091179055565b336001600160a01b0382161461023457600080fd5b6002546001546040516370a0823160e01b81523360048201526001600160a01b03909116906370a0823190602401602060405180830381865afa15801561027f573d6000803e3d6000fd5b505050506040513d601f19601f820116820180604052508101906102a391906103de565b116102ec5760405162461bcd60e51b815260206004820152601560248201527410985b185b98d9481d5b99195c880c4c12c81111d5605a1b604482015260640160405180910390fd5b6000600354436102fc91906103f7565b604080516060810182526001600160a01b03948516808252436020808401918252838501958652600092835260049052929020905181546001600160a01b03191695169490941784555160018401555160029092019190915550565b6005818154811061036857600080fd5b60009182526020909120600390910201805460018201546002909201546001600160a01b03909116925083565b6000602082840312156103a757600080fd5b81356001600160a01b03811681146103be57600080fd5b9392505050565b6000602082840312156103d757600080fd5b5035919050565b6000602082840312156103f057600080fd5b5051919050565b6000821982111561041857634e487b7160e01b600052601160045260246000fd5b50019056fea26469706673582212201114fd1b5ade4a078bf3599ef877c338cadb6a906fe10a65413f4f885dba8c4a64736f6c634300080a0033",
  "immutableReferences": {},
  "source": "// SPDX-License-Identifier: MIT\r\npragma solidity 0.8.10;\r\n\r\n\r\ninterface InterfaceDigi {\r\n    function balanceOf(address tokenOwner) external view returns (uint balance);\r\n    function totalSupply() external view returns (uint);\r\n    function transfer(address receiver, uint tokens) external returns (bool success);\r\n    function transferFrom(address sender, address receiver, uint tokens) external returns (bool success);\r\n}\r\n\r\ncontract Representatives {\r\n    address DIGI;\r\n    address public tokenAddress;\r\n    uint representativeMin;\r\n    uint repMaturation;\r\n    mapping(address => Representative )  public registeredReps;\r\n\r\n\r\n    struct Representative{\r\n        address _rep;\r\n        uint _startBlock;\r\n        uint _unlockBlock;\r\n    }\r\n\r\n    Representative[] public representatives;\r\n\r\n    constructor() {\r\n        DIGI == msg.sender;\r\n        repMaturation = 10;\r\n        representativeMin = 10000 * 10 * 18; // 10000 Digitrade\r\n    }\r\n\r\n    modifier onlyDIGI(){\r\n        require(msg.sender == DIGI);\r\n        _;\r\n    }\r\n\r\n    function setTokenAddress(address _digitrade) public onlyDIGI{\r\n        tokenAddress = _digitrade;\r\n    }\r\n\r\n    function getUnlockBlock() public view returns (uint){\r\n        return registeredReps[msg.sender]._unlockBlock;\r\n    }\r\n\r\n    function getStartBlock() public view returns (uint) {\r\n        return registeredReps[msg.sender]._startBlock;\r\n    }\r\n\r\n    function getRep() public view returns (address _repAddress){\r\n        if(msg.sender == registeredReps[msg.sender]._rep){\r\n           _repAddress = msg.sender;\r\n        }\r\n        return _repAddress;\r\n\r\n    }\r\n\r\n    function getRepMin() public view returns (uint){\r\n        return representativeMin;\r\n    }\r\n\r\n    function getMaturationTime() public view returns (uint) {\r\n        return repMaturation;\r\n    }\r\n\r\n    function registerRep(address _rep) public {\r\n      require(msg.sender == _rep);\r\n      require(InterfaceDigi(tokenAddress).balanceOf(msg.sender) > representativeMin, \"Balance under 10K DGT\");\r\n      uint _unlockBlock = block.number + repMaturation;  //unlocks after 30 days or so\r\n      registeredReps[_rep] = Representative(_rep,block.number, _unlockBlock);\r\n    }\r\n\r\n}\r\n",
  "sourcePath": "C:\\Users\\Julian Airhawk\\Desktop\\3dao\\Digitrade\\contracts\\Representatives.sol",
  "compiler": {
    "name": "solc",
    "version": "0.8.10+commit.fc410830.Emscripten.clang"
  },
  "schemaVersion": "3.4.4",
  "updatedAt": "2022-01-05T20:19:08.098Z",
  "networkType": "ethereum",
  "devdoc": {
    "kind": "dev",
    "methods": {},
    "version": 1
  },
  "userdoc": {
    "kind": "user",
    "methods": {},
    "version": 1
  }
}