{
  "contractName": "Token",
  "abi": [
    {
      "inputs": [],
      "stateMutability": "nonpayable",
      "type": "constructor"
    },
    {
      "anonymous": false,
      "inputs": [
        {
          "indexed": true,
          "internalType": "address",
          "name": "tokenOwner",
          "type": "address"
        },
        {
          "indexed": true,
          "internalType": "address",
          "name": "spender",
          "type": "address"
        },
        {
          "indexed": false,
          "internalType": "uint256",
          "name": "tokens",
          "type": "uint256"
        }
      ],
      "name": "Approval",
      "type": "event"
    },
    {
      "anonymous": false,
      "inputs": [
        {
          "indexed": true,
          "internalType": "address",
          "name": "burner",
          "type": "address"
        },
        {
          "indexed": false,
          "internalType": "uint256",
          "name": "value",
          "type": "uint256"
        }
      ],
      "name": "Burn",
      "type": "event"
    },
    {
      "anonymous": false,
      "inputs": [
        {
          "indexed": true,
          "internalType": "address",
          "name": "from",
          "type": "address"
        },
        {
          "indexed": true,
          "internalType": "address",
          "name": "to",
          "type": "address"
        },
        {
          "indexed": false,
          "internalType": "uint256",
          "name": "tokens",
          "type": "uint256"
        }
      ],
      "name": "Transfer",
      "type": "event"
    },
    {
      "inputs": [],
      "name": "_totalSupply",
      "outputs": [
        {
          "internalType": "uint256",
          "name": "",
          "type": "uint256"
        }
      ],
      "stateMutability": "view",
      "type": "function",
      "constant": true
    },
    {
      "inputs": [],
      "name": "decimals",
      "outputs": [
        {
          "internalType": "uint8",
          "name": "",
          "type": "uint8"
        }
      ],
      "stateMutability": "view",
      "type": "function",
      "constant": true
    },
    {
      "inputs": [],
      "name": "devFund_address",
      "outputs": [
        {
          "internalType": "address",
          "name": "",
          "type": "address"
        }
      ],
      "stateMutability": "view",
      "type": "function",
      "constant": true
    },
    {
      "inputs": [],
      "name": "name",
      "outputs": [
        {
          "internalType": "string",
          "name": "",
          "type": "string"
        }
      ],
      "stateMutability": "view",
      "type": "function",
      "constant": true
    },
    {
      "inputs": [],
      "name": "symbol",
      "outputs": [
        {
          "internalType": "string",
          "name": "",
          "type": "string"
        }
      ],
      "stateMutability": "view",
      "type": "function",
      "constant": true
    },
    {
      "inputs": [],
      "name": "test",
      "outputs": [
        {
          "internalType": "uint256",
          "name": "",
          "type": "uint256"
        }
      ],
      "stateMutability": "view",
      "type": "function",
      "constant": true
    },
    {
      "inputs": [
        {
          "internalType": "address",
          "name": "_DDDAO",
          "type": "address"
        }
      ],
      "name": "set3DAOAddress",
      "outputs": [],
      "stateMutability": "nonpayable",
      "type": "function"
    },
    {
      "inputs": [],
      "name": "totalSupply",
      "outputs": [
        {
          "internalType": "uint256",
          "name": "",
          "type": "uint256"
        }
      ],
      "stateMutability": "view",
      "type": "function",
      "constant": true
    },
    {
      "inputs": [
        {
          "internalType": "address",
          "name": "tokenOwner",
          "type": "address"
        }
      ],
      "name": "balanceOf",
      "outputs": [
        {
          "internalType": "uint256",
          "name": "balance",
          "type": "uint256"
        }
      ],
      "stateMutability": "view",
      "type": "function",
      "constant": true
    },
    {
      "inputs": [
        {
          "internalType": "address",
          "name": "receiver",
          "type": "address"
        },
        {
          "internalType": "uint256",
          "name": "tokens",
          "type": "uint256"
        }
      ],
      "name": "transfer",
      "outputs": [
        {
          "internalType": "bool",
          "name": "success",
          "type": "bool"
        }
      ],
      "stateMutability": "nonpayable",
      "type": "function"
    },
    {
      "inputs": [
        {
          "internalType": "address",
          "name": "spender",
          "type": "address"
        },
        {
          "internalType": "uint256",
          "name": "tokens",
          "type": "uint256"
        }
      ],
      "name": "approve",
      "outputs": [
        {
          "internalType": "bool",
          "name": "success",
          "type": "bool"
        }
      ],
      "stateMutability": "nonpayable",
      "type": "function"
    },
    {
      "inputs": [
        {
          "internalType": "address",
          "name": "sender",
          "type": "address"
        },
        {
          "internalType": "address",
          "name": "receiver",
          "type": "address"
        },
        {
          "internalType": "uint256",
          "name": "tokens",
          "type": "uint256"
        }
      ],
      "name": "transferFrom",
      "outputs": [
        {
          "internalType": "bool",
          "name": "success",
          "type": "bool"
        }
      ],
      "stateMutability": "nonpayable",
      "type": "function"
    },
    {
      "inputs": [
        {
          "internalType": "address",
          "name": "tokenOwner",
          "type": "address"
        },
        {
          "internalType": "address",
          "name": "spender",
          "type": "address"
        }
      ],
      "name": "allowance",
      "outputs": [
        {
          "internalType": "uint256",
          "name": "remaining",
          "type": "uint256"
        }
      ],
      "stateMutability": "view",
      "type": "function",
      "constant": true
    },
    {
      "inputs": [],
      "name": "get3DAOAddress",
      "outputs": [
        {
          "internalType": "address",
          "name": "",
          "type": "address"
        }
      ],
      "stateMutability": "view",
      "type": "function",
      "constant": true
    }
  ],
  "bytecode": "0x608060405260016000553480156200001657600080fd5b50604080518082019091526003808252621111d560ea1b60209092019182526200004391600291620001ee565b506040805180820190915260098082526844696769747261646560b81b60209092019182526200007691600391620001ee565b506004805460ff191660121790556a52b7d2dcc80cd2e400000060058190556a14adf4b7320334b90000006006908155600780546001600160a01b031916733f22ee8eb88d5120dcab0e203f103f07800d07a31781553360009081526008602052604090209290925590549054620000f8916001600160a01b031690620000ff565b506200031c565b336000908152600860205260408120546200011b9083620001ad565b33600090815260086020526040808220929092556001600160a01b03851681522054620001499083620001d0565b6001600160a01b0384166000818152600860205260409081902092909255905133907fddf252ad1be2c89b69c2b068fc378daa952ba7f163c4a11628f55a4df523b3ef906200019b9086815260200190565b60405180910390a35060015b92915050565b600082821115620001bd57600080fd5b620001c98284620002aa565b9392505050565b6000620001de8284620002c4565b905082811015620001a757600080fd5b828054620001fc90620002df565b90600052602060002090601f0160209004810192826200022057600085556200026b565b82601f106200023b57805160ff19168380011785556200026b565b828001600101855582156200026b579182015b828111156200026b5782518255916020019190600101906200024e565b50620002799291506200027d565b5090565b5b808211156200027957600081556001016200027e565b634e487b7160e01b600052601160045260246000fd5b600082821015620002bf57620002bf62000294565b500390565b60008219821115620002da57620002da62000294565b500190565b600181811c90821680620002f457607f821691505b602082108114156200031657634e487b7160e01b600052602260045260246000fd5b50919050565b610782806200032c6000396000f3fe608060405234801561001057600080fd5b50600436106100ea5760003560e01c806370a082311161008c5780639aa8a920116100665780639aa8a920146101f2578063a9059cbb14610203578063dd62ed3e14610216578063f8a8fd6d1461024f57600080fd5b806370a0823114610196578063858757de146101bf57806395d89b41146101ea57600080fd5b8063211c0c1f116100c8578063211c0c1f1461014657806323b872dd1461015b578063313ce5671461016e5780633eaaf86b1461018d57600080fd5b806306fdde03146100ef578063095ea7b31461010d57806318160ddd14610130575b600080fd5b6100f7610258565b60405161010491906105a7565b60405180910390f35b61012061011b366004610618565b6102e6565b6040519015158152602001610104565b610138610353565b604051908152602001610104565b610159610154366004610642565b610391565b005b61012061016936600461065d565b6103ca565b60045461017b9060ff1681565b60405160ff9091168152602001610104565b61013860055481565b6101386101a4366004610642565b6001600160a01b031660009081526008602052604090205490565b6007546101d2906001600160a01b031681565b6040516001600160a01b039091168152602001610104565b6100f76104c8565b6001546001600160a01b03166101d2565b610120610211366004610618565b6104d5565b610138610224366004610699565b6001600160a01b03918216600090815260096020908152604080832093909416825291909152205490565b61013860005481565b60038054610265906106cc565b80601f0160208091040260200160405190810160405280929190818152602001828054610291906106cc565b80156102de5780601f106102b3576101008083540402835291602001916102de565b820191906000526020600020905b8154815290600101906020018083116102c157829003601f168201915b505050505081565b3360008181526009602090815260408083206001600160a01b038716808552925280832085905551919290917f8c5be1e5ebec7d5bd14f71427d1e84f3dd0314c0f7b2291e5b200ac8c7c3b925906103419086815260200190565b60405180910390a35060015b92915050565b600080805260086020527f5eff886ea0ce6ca488a3d6e336d6c0f75f46d19b42c06ce5ee98e42c96d256c75460055461038c919061071d565b905090565b6007546001600160a01b031633146103a857600080fd5b600180546001600160a01b0319166001600160a01b0392909216919091179055565b6001600160a01b0383166000908152600860205260408120546103ed908361056c565b6001600160a01b0385166000908152600860209081526040808320939093556009815282822033835290522054610424908361056c565b6001600160a01b038086166000908152600960209081526040808320338452825280832094909455918616815260089091522054610462908361058c565b6001600160a01b0380851660008181526008602052604090819020939093559151908616907fddf252ad1be2c89b69c2b068fc378daa952ba7f163c4a11628f55a4df523b3ef906104b69086815260200190565b60405180910390a35060019392505050565b60028054610265906106cc565b336000908152600860205260408120546104ef908361056c565b33600090815260086020526040808220929092556001600160a01b0385168152205461051b908361058c565b6001600160a01b0384166000818152600860205260409081902092909255905133907fddf252ad1be2c89b69c2b068fc378daa952ba7f163c4a11628f55a4df523b3ef906103419086815260200190565b60008282111561057b57600080fd5b610585828461071d565b9392505050565b60006105988284610734565b90508281101561034d57600080fd5b600060208083528351808285015260005b818110156105d4578581018301518582016040015282016105b8565b818111156105e6576000604083870101525b50601f01601f1916929092016040019392505050565b80356001600160a01b038116811461061357600080fd5b919050565b6000806040838503121561062b57600080fd5b610634836105fc565b946020939093013593505050565b60006020828403121561065457600080fd5b610585826105fc565b60008060006060848603121561067257600080fd5b61067b846105fc565b9250610689602085016105fc565b9150604084013590509250925092565b600080604083850312156106ac57600080fd5b6106b5836105fc565b91506106c3602084016105fc565b90509250929050565b600181811c908216806106e057607f821691505b6020821081141561070157634e487b7160e01b600052602260045260246000fd5b50919050565b634e487b7160e01b600052601160045260246000fd5b60008282101561072f5761072f610707565b500390565b6000821982111561074757610747610707565b50019056fea2646970667358221220b2cb37168b2c4ee78664f6cb50d8ec36ccc63fe8abc71ef1fb438500952cca5e64736f6c634300080a0033",
  "immutableReferences": {},
  "source": "// SPDX-License-Identifier: unlicensed\r\npragma solidity 0.8.10;\r\n\r\ncontract SafeMath {\r\n\r\n    function add(uint256 a, uint256 b) internal pure returns (uint256) {\r\n        uint256 c = a + b;\r\n        require(c >= a, \"SafeMath: addition overflow\");\r\n        return c;    }\r\n\r\n    function safeAdd(uint a, uint b) internal pure returns (uint c) {\r\n        c = a + b;\r\n        require(c >= a);\r\n    }\r\n    function safeSub(uint a, uint b) internal pure returns (uint c) {\r\n        require(b <= a);\r\n        c = a - b;\r\n    }\r\n\r\n    function mul(uint256 a, uint256 b) internal pure returns (uint256) {\r\n        if (a == 0) {\r\n            return 0;}\r\n            uint256 c = a * b;\r\n            require(c / a == b, \"SafeMath: multiplication overflow\");\r\n            return c;}\r\n\r\n    function div(uint256 a, uint256 b) internal pure returns (uint256) {\r\n        require(b > 0, \"SafeMath: division by zero\");\r\n        uint256 c = a / b;\r\n        return c;    }\r\n}\r\n\r\n\r\ncontract Token is SafeMath {\r\n    uint public test = 1;\r\n    address DDDAO;\r\n    string public symbol;\r\n    string public  name;\r\n    uint8 public decimals;\r\n    uint public _totalSupply;\r\n    uint devFund;\r\n\r\n    address public devFund_address;\r\n    mapping(address => uint) balances;\r\n    mapping(address => mapping(address => uint)) allowed;\r\n    event Burn(address indexed burner, uint256 value);\r\n    event Transfer(address indexed from, address indexed to, uint tokens);\r\n    event Approval(address indexed tokenOwner, address indexed spender, uint tokens);\r\n    modifier onlyDigitrade(){\r\n    require(msg.sender == devFund_address);\r\n    _;\r\n    }\r\n\r\n\r\n    constructor() {\r\n        symbol = \"DGT\";\r\n        name = \"Token\";\r\n        decimals = 18;\r\n        _totalSupply = 100_000_000e18; //100 million\r\n        devFund = 25_000_000e18;  //10 million\r\n        devFund_address = 0x3f22EE8EB88d5120DcAB0E203F103f07800D07a3; //Change to hardcoded dev address\r\n        balances[msg.sender] = _totalSupply;\r\n        transfer(devFund_address, devFund);\r\n    }\r\n\r\n\r\n    function set3DAOAddress(address _DDDAO) public onlyDigitrade{\r\n        DDDAO = _DDDAO;\r\n    }\r\n\r\n    function totalSupply() public view returns (uint) {\r\n        return _totalSupply - balances[address(0)];\r\n    }\r\n\r\n    function balanceOf(address tokenOwner) public  view returns (uint balance) {\r\n        return balances[tokenOwner];\r\n    }\r\n\r\n    function transfer(address receiver, uint tokens) public returns (bool success) {\r\n        balances[msg.sender] = safeSub(balances[msg.sender], tokens);\r\n        balances[receiver] = safeAdd(balances[receiver], tokens);\r\n        emit Transfer(msg.sender, receiver, tokens);\r\n        return true;\r\n    }\r\n\r\n    function approve(address spender, uint tokens) public returns (bool success) {\r\n        allowed[msg.sender][spender] = tokens;\r\n        emit Approval(msg.sender, spender, tokens);\r\n        return true;\r\n    }\r\n\r\n    function transferFrom(address sender, address receiver, uint tokens) public returns (bool success) {\r\n        balances[sender] = safeSub(balances[sender], tokens);\r\n        allowed[sender][msg.sender] = safeSub(allowed[sender][msg.sender], tokens);\r\n        balances[receiver] = safeAdd(balances[receiver], tokens);\r\n        emit Transfer(sender, receiver, tokens);\r\n        return true;\r\n    }\r\n\r\n    function allowance(address tokenOwner, address spender) public view returns (uint remaining) {\r\n        return allowed[tokenOwner][spender];\r\n    }\r\n\r\n    function get3DAOAddress() public view returns(address){\r\n        return DDDAO;\r\n    }\r\n\r\n}\r\n",
  "sourcePath": "C:\\Users\\Julian Airhawk\\Desktop\\3dao\\Token\\contracts\\Token.sol",
  "compiler": {
    "name": "solc",
    "version": "0.8.10+commit.fc410830.Emscripten.clang"
  },
  "schemaVersion": "3.4.4",
  "updatedAt": "2022-01-05T20:19:07.873Z",
  "networkType": "ethereum",
  "devdoc": {
    "kind": "dev",
    "methods": {},
    "version": 1
  },
  "userdoc": {
    "kind": "user",
    "methods": {},
    "version": 1
  }
}